{
	"contracts/SupplyChain.sol": {
		"ProductRegistry": {
			"abi": [
				{
					"inputs": [],
					"stateMutability": "nonpayable",
					"type": "constructor"
				},
				{
					"anonymous": false,
					"inputs": [
						{
							"indexed": false,
							"internalType": "uint256",
							"name": "id",
							"type": "uint256"
						},
						{
							"indexed": false,
							"internalType": "string",
							"name": "name",
							"type": "string"
						},
						{
							"indexed": false,
							"internalType": "uint256",
							"name": "price",
							"type": "uint256"
						},
						{
							"indexed": false,
							"internalType": "address",
							"name": "owner",
							"type": "address"
						}
					],
					"name": "ProductRegistered",
					"type": "event"
				},
				{
					"inputs": [],
					"name": "productCount",
					"outputs": [
						{
							"internalType": "uint256",
							"name": "",
							"type": "uint256"
						}
					],
					"stateMutability": "view",
					"type": "function"
				},
				{
					"inputs": [
						{
							"internalType": "uint256",
							"name": "",
							"type": "uint256"
						}
					],
					"name": "products",
					"outputs": [
						{
							"internalType": "uint256",
							"name": "id",
							"type": "uint256"
						},
						{
							"internalType": "string",
							"name": "name",
							"type": "string"
						},
						{
							"internalType": "uint256",
							"name": "price",
							"type": "uint256"
						},
						{
							"internalType": "address",
							"name": "owner",
							"type": "address"
						}
					],
					"stateMutability": "view",
					"type": "function"
				},
				{
					"inputs": [
						{
							"internalType": "string",
							"name": "_name",
							"type": "string"
						},
						{
							"internalType": "uint256",
							"name": "_price",
							"type": "uint256"
						}
					],
					"name": "registerProduct",
					"outputs": [],
					"stateMutability": "nonpayable",
					"type": "function"
				},
				{
					"inputs": [
						{
							"internalType": "uint256",
							"name": "_productId",
							"type": "uint256"
						},
						{
							"internalType": "address",
							"name": "_newOwner",
							"type": "address"
						}
					],
					"name": "transferOwnership",
					"outputs": [],
					"stateMutability": "nonpayable",
					"type": "function"
				},
				{
					"inputs": [
						{
							"internalType": "uint256",
							"name": "_productId",
							"type": "uint256"
						},
						{
							"internalType": "uint256",
							"name": "_newPrice",
							"type": "uint256"
						}
					],
					"name": "updatePrice",
					"outputs": [],
					"stateMutability": "nonpayable",
					"type": "function"
				}
			],
			"devdoc": {
				"kind": "dev",
				"methods": {},
				"version": 1
			},
			"evm": {
				"assembly": "    /* \"contracts/SupplyChain.sol\":195:2159  contract ProductRegistry is ReentrancyGuard {... */\n  mstore(0x40, 0x80)\n    /* \"contracts/SupplyChain.sol\":625:672  constructor() {... */\n  callvalue\n  dup1\n  iszero\n  tag_1\n  jumpi\n  0x00\n  dup1\n  revert\ntag_1:\n  pop\n    /* \"@openzeppelin/contracts/security/ReentrancyGuard.sol\":1716:1717  1 */\n  0x01\n    /* \"@openzeppelin/contracts/security/ReentrancyGuard.sol\":1821:1828  _status */\n  0x00\n    /* \"@openzeppelin/contracts/security/ReentrancyGuard.sol\":1821:1843  _status = _NOT_ENTERED */\n  dup2\n  swap1\n  sstore\n  pop\n    /* \"contracts/SupplyChain.sol\":664:665  0 */\n  0x00\n    /* \"contracts/SupplyChain.sol\":649:661  productCount */\n  0x02\n    /* \"contracts/SupplyChain.sol\":649:665  productCount = 0 */\n  dup2\n  swap1\n  sstore\n  pop\n    /* \"contracts/SupplyChain.sol\":195:2159  contract ProductRegistry is ReentrancyGuard {... */\n  dataSize(sub_0)\n  dup1\n  dataOffset(sub_0)\n  0x00\n  codecopy\n  0x00\n  return\nstop\n\nsub_0: assembly {\n        /* \"contracts/SupplyChain.sol\":195:2159  contract ProductRegistry is ReentrancyGuard {... */\n      mstore(0x40, 0x80)\n      callvalue\n      dup1\n      iszero\n      tag_1\n      jumpi\n      0x00\n      dup1\n      revert\n    tag_1:\n      pop\n      jumpi(tag_2, lt(calldatasize, 0x04))\n      shr(0xe0, calldataload(0x00))\n      dup1\n      0x29507f73\n      eq\n      tag_3\n      jumpi\n      dup1\n      0x7acc0b20\n      eq\n      tag_4\n      jumpi\n      dup1\n      0x82367b2d\n      eq\n      tag_5\n      jumpi\n      dup1\n      0x8c96091b\n      eq\n      tag_6\n      jumpi\n      dup1\n      0xe0f6ef87\n      eq\n      tag_7\n      jumpi\n    tag_2:\n      0x00\n      dup1\n      revert\n        /* \"contracts/SupplyChain.sol\":1792:2157  function transferOwnership(uint256 _productId, address _newOwner) public nonReentrant {... */\n    tag_3:\n      tag_8\n      0x04\n      dup1\n      calldatasize\n      sub\n      dup2\n      add\n      swap1\n      tag_9\n      swap2\n      swap1\n      tag_10\n      jump\t// in\n    tag_9:\n      tag_11\n      jump\t// in\n    tag_8:\n      stop\n        /* \"contracts/SupplyChain.sol\":365:408  mapping(uint256 => Product) public products */\n    tag_4:\n      tag_12\n      0x04\n      dup1\n      calldatasize\n      sub\n      dup2\n      add\n      swap1\n      tag_13\n      swap2\n      swap1\n      tag_14\n      jump\t// in\n    tag_13:\n      tag_15\n      jump\t// in\n    tag_12:\n      mload(0x40)\n      tag_16\n      swap5\n      swap4\n      swap3\n      swap2\n      swap1\n      tag_17\n      jump\t// in\n    tag_16:\n      mload(0x40)\n      dup1\n      swap2\n      sub\n      swap1\n      return\n        /* \"contracts/SupplyChain.sol\":1309:1735  function updatePrice(uint256 _productId, uint256 _newPrice) public nonReentrant {... */\n    tag_5:\n      tag_18\n      0x04\n      dup1\n      calldatasize\n      sub\n      dup2\n      add\n      swap1\n      tag_19\n      swap2\n      swap1\n      tag_20\n      jump\t// in\n    tag_19:\n      tag_21\n      jump\t// in\n    tag_18:\n      stop\n        /* \"contracts/SupplyChain.sol\":720:1257  function registerProduct(string memory _name, uint256 _price) public nonReentrant {... */\n    tag_6:\n      tag_22\n      0x04\n      dup1\n      calldatasize\n      sub\n      dup2\n      add\n      swap1\n      tag_23\n      swap2\n      swap1\n      tag_24\n      jump\t// in\n    tag_23:\n      tag_25\n      jump\t// in\n    tag_22:\n      stop\n        /* \"contracts/SupplyChain.sol\":414:441  uint256 public productCount */\n    tag_7:\n      tag_26\n      tag_27\n      jump\t// in\n    tag_26:\n      mload(0x40)\n      tag_28\n      swap2\n      swap1\n      tag_29\n      jump\t// in\n    tag_28:\n      mload(0x40)\n      dup1\n      swap2\n      sub\n      swap1\n      return\n        /* \"contracts/SupplyChain.sol\":1792:2157  function transferOwnership(uint256 _productId, address _newOwner) public nonReentrant {... */\n    tag_11:\n        /* \"@openzeppelin/contracts/security/ReentrancyGuard.sol\":2261:2282  _nonReentrantBefore() */\n      tag_31\n        /* \"@openzeppelin/contracts/security/ReentrancyGuard.sol\":2261:2280  _nonReentrantBefore */\n      tag_32\n        /* \"@openzeppelin/contracts/security/ReentrancyGuard.sol\":2261:2282  _nonReentrantBefore() */\n      jump\t// in\n    tag_31:\n        /* \"contracts/SupplyChain.sol\":1909:1910  0 */\n      0x00\n        /* \"contracts/SupplyChain.sol\":1896:1906  _productId */\n      dup3\n        /* \"contracts/SupplyChain.sol\":1896:1910  _productId > 0 */\n      gt\n        /* \"contracts/SupplyChain.sol\":1896:1940  _productId > 0 && _productId <= productCount */\n      dup1\n      iszero\n      tag_34\n      jumpi\n      pop\n        /* \"contracts/SupplyChain.sol\":1928:1940  productCount */\n      sload(0x02)\n        /* \"contracts/SupplyChain.sol\":1914:1924  _productId */\n      dup3\n        /* \"contracts/SupplyChain.sol\":1914:1940  _productId <= productCount */\n      gt\n      iszero\n        /* \"contracts/SupplyChain.sol\":1896:1940  _productId > 0 && _productId <= productCount */\n    tag_34:\n        /* \"contracts/SupplyChain.sol\":1888:1967  require(_productId > 0 && _productId <= productCount, \"Product does not exist\") */\n      tag_35\n      jumpi\n      mload(0x40)\n      0x08c379a000000000000000000000000000000000000000000000000000000000\n      dup2\n      mstore\n      0x04\n      add\n      tag_36\n      swap1\n      tag_37\n      jump\t// in\n    tag_36:\n      mload(0x40)\n      dup1\n      swap2\n      sub\n      swap1\n      revert\n    tag_35:\n        /* \"contracts/SupplyChain.sol\":2015:2025  msg.sender */\n      caller\n        /* \"contracts/SupplyChain.sol\":1985:2025  products[_productId].owner == msg.sender */\n      0xffffffffffffffffffffffffffffffffffffffff\n      and\n        /* \"contracts/SupplyChain.sol\":1985:1993  products */\n      0x01\n        /* \"contracts/SupplyChain.sol\":1985:2005  products[_productId] */\n      0x00\n        /* \"contracts/SupplyChain.sol\":1994:2004  _productId */\n      dup5\n        /* \"contracts/SupplyChain.sol\":1985:2005  products[_productId] */\n      dup2\n      mstore\n      0x20\n      add\n      swap1\n      dup2\n      mstore\n      0x20\n      add\n      0x00\n      keccak256\n        /* \"contracts/SupplyChain.sol\":1985:2011  products[_productId].owner */\n      0x03\n      add\n      0x00\n      swap1\n      sload\n      swap1\n      0x0100\n      exp\n      swap1\n      div\n      0xffffffffffffffffffffffffffffffffffffffff\n      and\n        /* \"contracts/SupplyChain.sol\":1985:2025  products[_productId].owner == msg.sender */\n      0xffffffffffffffffffffffffffffffffffffffff\n      and\n      eq\n        /* \"contracts/SupplyChain.sol\":1977:2067  require(products[_productId].owner == msg.sender, \"Only the owner can transfer ownership\") */\n      tag_38\n      jumpi\n      mload(0x40)\n      0x08c379a000000000000000000000000000000000000000000000000000000000\n      dup2\n      mstore\n      0x04\n      add\n      tag_39\n      swap1\n      tag_40\n      jump\t// in\n    tag_39:\n      mload(0x40)\n      dup1\n      swap2\n      sub\n      swap1\n      revert\n    tag_38:\n        /* \"contracts/SupplyChain.sol\":2141:2150  _newOwner */\n      dup1\n        /* \"contracts/SupplyChain.sol\":2112:2120  products */\n      0x01\n        /* \"contracts/SupplyChain.sol\":2112:2132  products[_productId] */\n      0x00\n        /* \"contracts/SupplyChain.sol\":2121:2131  _productId */\n      dup5\n        /* \"contracts/SupplyChain.sol\":2112:2132  products[_productId] */\n      dup2\n      mstore\n      0x20\n      add\n      swap1\n      dup2\n      mstore\n      0x20\n      add\n      0x00\n      keccak256\n        /* \"contracts/SupplyChain.sol\":2112:2138  products[_productId].owner */\n      0x03\n      add\n      0x00\n        /* \"contracts/SupplyChain.sol\":2112:2150  products[_productId].owner = _newOwner */\n      0x0100\n      exp\n      dup2\n      sload\n      dup2\n      0xffffffffffffffffffffffffffffffffffffffff\n      mul\n      not\n      and\n      swap1\n      dup4\n      0xffffffffffffffffffffffffffffffffffffffff\n      and\n      mul\n      or\n      swap1\n      sstore\n      pop\n        /* \"@openzeppelin/contracts/security/ReentrancyGuard.sol\":2303:2323  _nonReentrantAfter() */\n      tag_41\n        /* \"@openzeppelin/contracts/security/ReentrancyGuard.sol\":2303:2321  _nonReentrantAfter */\n      tag_42\n        /* \"@openzeppelin/contracts/security/ReentrancyGuard.sol\":2303:2323  _nonReentrantAfter() */\n      jump\t// in\n    tag_41:\n        /* \"contracts/SupplyChain.sol\":1792:2157  function transferOwnership(uint256 _productId, address _newOwner) public nonReentrant {... */\n      pop\n      pop\n      jump\t// out\n        /* \"contracts/SupplyChain.sol\":365:408  mapping(uint256 => Product) public products */\n    tag_15:\n      mstore(0x20, 0x01)\n      dup1\n      0x00\n      mstore\n      keccak256(0x00, 0x40)\n      0x00\n      swap2\n      pop\n      swap1\n      pop\n      dup1\n      0x00\n      add\n      sload\n      swap1\n      dup1\n      0x01\n      add\n      dup1\n      sload\n      tag_43\n      swap1\n      tag_44\n      jump\t// in\n    tag_43:\n      dup1\n      0x1f\n      add\n      0x20\n      dup1\n      swap2\n      div\n      mul\n      0x20\n      add\n      mload(0x40)\n      swap1\n      dup2\n      add\n      0x40\n      mstore\n      dup1\n      swap3\n      swap2\n      swap1\n      dup2\n      dup2\n      mstore\n      0x20\n      add\n      dup3\n      dup1\n      sload\n      tag_45\n      swap1\n      tag_44\n      jump\t// in\n    tag_45:\n      dup1\n      iszero\n      tag_46\n      jumpi\n      dup1\n      0x1f\n      lt\n      tag_47\n      jumpi\n      0x0100\n      dup1\n      dup4\n      sload\n      div\n      mul\n      dup4\n      mstore\n      swap2\n      0x20\n      add\n      swap2\n      jump(tag_46)\n    tag_47:\n      dup3\n      add\n      swap2\n      swap1\n      0x00\n      mstore\n      keccak256(0x00, 0x20)\n      swap1\n    tag_48:\n      dup2\n      sload\n      dup2\n      mstore\n      swap1\n      0x01\n      add\n      swap1\n      0x20\n      add\n      dup1\n      dup4\n      gt\n      tag_48\n      jumpi\n      dup3\n      swap1\n      sub\n      0x1f\n      and\n      dup3\n      add\n      swap2\n    tag_46:\n      pop\n      pop\n      pop\n      pop\n      pop\n      swap1\n      dup1\n      0x02\n      add\n      sload\n      swap1\n      dup1\n      0x03\n      add\n      0x00\n      swap1\n      sload\n      swap1\n      0x0100\n      exp\n      swap1\n      div\n      0xffffffffffffffffffffffffffffffffffffffff\n      and\n      swap1\n      pop\n      dup5\n      jump\t// out\n        /* \"contracts/SupplyChain.sol\":1309:1735  function updatePrice(uint256 _productId, uint256 _newPrice) public nonReentrant {... */\n    tag_21:\n        /* \"@openzeppelin/contracts/security/ReentrancyGuard.sol\":2261:2282  _nonReentrantBefore() */\n      tag_50\n        /* \"@openzeppelin/contracts/security/ReentrancyGuard.sol\":2261:2280  _nonReentrantBefore */\n      tag_32\n        /* \"@openzeppelin/contracts/security/ReentrancyGuard.sol\":2261:2282  _nonReentrantBefore() */\n      jump\t// in\n    tag_50:\n        /* \"contracts/SupplyChain.sol\":1420:1421  0 */\n      0x00\n        /* \"contracts/SupplyChain.sol\":1407:1417  _productId */\n      dup3\n        /* \"contracts/SupplyChain.sol\":1407:1421  _productId > 0 */\n      gt\n        /* \"contracts/SupplyChain.sol\":1407:1451  _productId > 0 && _productId <= productCount */\n      dup1\n      iszero\n      tag_52\n      jumpi\n      pop\n        /* \"contracts/SupplyChain.sol\":1439:1451  productCount */\n      sload(0x02)\n        /* \"contracts/SupplyChain.sol\":1425:1435  _productId */\n      dup3\n        /* \"contracts/SupplyChain.sol\":1425:1451  _productId <= productCount */\n      gt\n      iszero\n        /* \"contracts/SupplyChain.sol\":1407:1451  _productId > 0 && _productId <= productCount */\n    tag_52:\n        /* \"contracts/SupplyChain.sol\":1399:1478  require(_productId > 0 && _productId <= productCount, \"Product does not exist\") */\n      tag_53\n      jumpi\n      mload(0x40)\n      0x08c379a000000000000000000000000000000000000000000000000000000000\n      dup2\n      mstore\n      0x04\n      add\n      tag_54\n      swap1\n      tag_37\n      jump\t// in\n    tag_54:\n      mload(0x40)\n      dup1\n      swap2\n      sub\n      swap1\n      revert\n    tag_53:\n        /* \"contracts/SupplyChain.sol\":1526:1536  msg.sender */\n      caller\n        /* \"contracts/SupplyChain.sol\":1496:1536  products[_productId].owner == msg.sender */\n      0xffffffffffffffffffffffffffffffffffffffff\n      and\n        /* \"contracts/SupplyChain.sol\":1496:1504  products */\n      0x01\n        /* \"contracts/SupplyChain.sol\":1496:1516  products[_productId] */\n      0x00\n        /* \"contracts/SupplyChain.sol\":1505:1515  _productId */\n      dup5\n        /* \"contracts/SupplyChain.sol\":1496:1516  products[_productId] */\n      dup2\n      mstore\n      0x20\n      add\n      swap1\n      dup2\n      mstore\n      0x20\n      add\n      0x00\n      keccak256\n        /* \"contracts/SupplyChain.sol\":1496:1522  products[_productId].owner */\n      0x03\n      add\n      0x00\n      swap1\n      sload\n      swap1\n      0x0100\n      exp\n      swap1\n      div\n      0xffffffffffffffffffffffffffffffffffffffff\n      and\n        /* \"contracts/SupplyChain.sol\":1496:1536  products[_productId].owner == msg.sender */\n      0xffffffffffffffffffffffffffffffffffffffff\n      and\n      eq\n        /* \"contracts/SupplyChain.sol\":1488:1576  require(products[_productId].owner == msg.sender, \"Only the owner can update the price\") */\n      tag_55\n      jumpi\n      mload(0x40)\n      0x08c379a000000000000000000000000000000000000000000000000000000000\n      dup2\n      mstore\n      0x04\n      add\n      tag_56\n      swap1\n      tag_57\n      jump\t// in\n    tag_56:\n      mload(0x40)\n      dup1\n      swap2\n      sub\n      swap1\n      revert\n    tag_55:\n        /* \"contracts/SupplyChain.sol\":1606:1607  0 */\n      0x00\n        /* \"contracts/SupplyChain.sol\":1594:1603  _newPrice */\n      dup2\n        /* \"contracts/SupplyChain.sol\":1594:1607  _newPrice > 0 */\n      gt\n        /* \"contracts/SupplyChain.sol\":1586:1643  require(_newPrice > 0, \"Price must be greater than zero\") */\n      tag_58\n      jumpi\n      mload(0x40)\n      0x08c379a000000000000000000000000000000000000000000000000000000000\n      dup2\n      mstore\n      0x04\n      add\n      tag_59\n      swap1\n      tag_60\n      jump\t// in\n    tag_59:\n      mload(0x40)\n      dup1\n      swap2\n      sub\n      swap1\n      revert\n    tag_58:\n        /* \"contracts/SupplyChain.sol\":1719:1728  _newPrice */\n      dup1\n        /* \"contracts/SupplyChain.sol\":1690:1698  products */\n      0x01\n        /* \"contracts/SupplyChain.sol\":1690:1710  products[_productId] */\n      0x00\n        /* \"contracts/SupplyChain.sol\":1699:1709  _productId */\n      dup5\n        /* \"contracts/SupplyChain.sol\":1690:1710  products[_productId] */\n      dup2\n      mstore\n      0x20\n      add\n      swap1\n      dup2\n      mstore\n      0x20\n      add\n      0x00\n      keccak256\n        /* \"contracts/SupplyChain.sol\":1690:1716  products[_productId].price */\n      0x02\n      add\n        /* \"contracts/SupplyChain.sol\":1690:1728  products[_productId].price = _newPrice */\n      dup2\n      swap1\n      sstore\n      pop\n        /* \"@openzeppelin/contracts/security/ReentrancyGuard.sol\":2303:2323  _nonReentrantAfter() */\n      tag_61\n        /* \"@openzeppelin/contracts/security/ReentrancyGuard.sol\":2303:2321  _nonReentrantAfter */\n      tag_42\n        /* \"@openzeppelin/contracts/security/ReentrancyGuard.sol\":2303:2323  _nonReentrantAfter() */\n      jump\t// in\n    tag_61:\n        /* \"contracts/SupplyChain.sol\":1309:1735  function updatePrice(uint256 _productId, uint256 _newPrice) public nonReentrant {... */\n      pop\n      pop\n      jump\t// out\n        /* \"contracts/SupplyChain.sol\":720:1257  function registerProduct(string memory _name, uint256 _price) public nonReentrant {... */\n    tag_25:\n        /* \"@openzeppelin/contracts/security/ReentrancyGuard.sol\":2261:2282  _nonReentrantBefore() */\n      tag_63\n        /* \"@openzeppelin/contracts/security/ReentrancyGuard.sol\":2261:2280  _nonReentrantBefore */\n      tag_32\n        /* \"@openzeppelin/contracts/security/ReentrancyGuard.sol\":2261:2282  _nonReentrantBefore() */\n      jump\t// in\n    tag_63:\n        /* \"contracts/SupplyChain.sol\":842:843  0 */\n      0x00\n        /* \"contracts/SupplyChain.sol\":826:831  _name */\n      dup3\n        /* \"contracts/SupplyChain.sol\":820:839  bytes(_name).length */\n      mload\n        /* \"contracts/SupplyChain.sol\":820:843  bytes(_name).length > 0 */\n      gt\n        /* \"contracts/SupplyChain.sol\":812:876  require(bytes(_name).length > 0, \"Product name cannot be empty\") */\n      tag_65\n      jumpi\n      mload(0x40)\n      0x08c379a000000000000000000000000000000000000000000000000000000000\n      dup2\n      mstore\n      0x04\n      add\n      tag_66\n      swap1\n      tag_67\n      jump\t// in\n    tag_66:\n      mload(0x40)\n      dup1\n      swap2\n      sub\n      swap1\n      revert\n    tag_65:\n        /* \"contracts/SupplyChain.sol\":903:904  0 */\n      0x00\n        /* \"contracts/SupplyChain.sol\":894:900  _price */\n      dup2\n        /* \"contracts/SupplyChain.sol\":894:904  _price > 0 */\n      gt\n        /* \"contracts/SupplyChain.sol\":886:948  require(_price > 0, \"Product price must be greater than zero\") */\n      tag_68\n      jumpi\n      mload(0x40)\n      0x08c379a000000000000000000000000000000000000000000000000000000000\n      dup2\n      mstore\n      0x04\n      add\n      tag_69\n      swap1\n      tag_70\n      jump\t// in\n    tag_69:\n      mload(0x40)\n      dup1\n      swap2\n      sub\n      swap1\n      revert\n    tag_68:\n        /* \"contracts/SupplyChain.sol\":1022:1034  productCount */\n      0x02\n      0x00\n        /* \"contracts/SupplyChain.sol\":1022:1036  productCount++ */\n      dup2\n      sload\n      dup1\n      swap3\n      swap2\n      swap1\n      tag_71\n      swap1\n      tag_72\n      jump\t// in\n    tag_71:\n      swap2\n      swap1\n      pop\n      sstore\n      pop\n        /* \"contracts/SupplyChain.sol\":1071:1119  Product(productCount, _name, _price, msg.sender) */\n      mload(0x40)\n      dup1\n      0x80\n      add\n      0x40\n      mstore\n      dup1\n        /* \"contracts/SupplyChain.sol\":1079:1091  productCount */\n      sload(0x02)\n        /* \"contracts/SupplyChain.sol\":1071:1119  Product(productCount, _name, _price, msg.sender) */\n      dup2\n      mstore\n      0x20\n      add\n        /* \"contracts/SupplyChain.sol\":1093:1098  _name */\n      dup4\n        /* \"contracts/SupplyChain.sol\":1071:1119  Product(productCount, _name, _price, msg.sender) */\n      dup2\n      mstore\n      0x20\n      add\n        /* \"contracts/SupplyChain.sol\":1100:1106  _price */\n      dup3\n        /* \"contracts/SupplyChain.sol\":1071:1119  Product(productCount, _name, _price, msg.sender) */\n      dup2\n      mstore\n      0x20\n      add\n        /* \"contracts/SupplyChain.sol\":1108:1118  msg.sender */\n      caller\n        /* \"contracts/SupplyChain.sol\":1071:1119  Product(productCount, _name, _price, msg.sender) */\n      0xffffffffffffffffffffffffffffffffffffffff\n      and\n      dup2\n      mstore\n      pop\n        /* \"contracts/SupplyChain.sol\":1046:1054  products */\n      0x01\n        /* \"contracts/SupplyChain.sol\":1046:1068  products[productCount] */\n      0x00\n        /* \"contracts/SupplyChain.sol\":1055:1067  productCount */\n      sload(0x02)\n        /* \"contracts/SupplyChain.sol\":1046:1068  products[productCount] */\n      dup2\n      mstore\n      0x20\n      add\n      swap1\n      dup2\n      mstore\n      0x20\n      add\n      0x00\n      keccak256\n        /* \"contracts/SupplyChain.sol\":1046:1119  products[productCount] = Product(productCount, _name, _price, msg.sender) */\n      0x00\n      dup3\n      add\n      mload\n      dup2\n      0x00\n      add\n      sstore\n      0x20\n      dup3\n      add\n      mload\n      dup2\n      0x01\n      add\n      swap1\n      dup2\n      tag_73\n      swap2\n      swap1\n      tag_74\n      jump\t// in\n    tag_73:\n      pop\n      0x40\n      dup3\n      add\n      mload\n      dup2\n      0x02\n      add\n      sstore\n      0x60\n      dup3\n      add\n      mload\n      dup2\n      0x03\n      add\n      exp(0x0100, 0x00)\n      dup2\n      sload\n      dup2\n      0xffffffffffffffffffffffffffffffffffffffff\n      mul\n      not\n      and\n      swap1\n      dup4\n      0xffffffffffffffffffffffffffffffffffffffff\n      and\n      mul\n      or\n      swap1\n      sstore\n      pop\n      swap1\n      pop\n      pop\n        /* \"contracts/SupplyChain.sol\":1192:1250  ProductRegistered(productCount, _name, _price, msg.sender) */\n      0x1a8bfa80b90d0a150d945c6b1acf7d4253e76b8cc6ace1ac1793351fa2d50b8d\n        /* \"contracts/SupplyChain.sol\":1210:1222  productCount */\n      sload(0x02)\n        /* \"contracts/SupplyChain.sol\":1224:1229  _name */\n      dup4\n        /* \"contracts/SupplyChain.sol\":1231:1237  _price */\n      dup4\n        /* \"contracts/SupplyChain.sol\":1239:1249  msg.sender */\n      caller\n        /* \"contracts/SupplyChain.sol\":1192:1250  ProductRegistered(productCount, _name, _price, msg.sender) */\n      mload(0x40)\n      tag_75\n      swap5\n      swap4\n      swap3\n      swap2\n      swap1\n      tag_17\n      jump\t// in\n    tag_75:\n      mload(0x40)\n      dup1\n      swap2\n      sub\n      swap1\n      log1\n        /* \"@openzeppelin/contracts/security/ReentrancyGuard.sol\":2303:2323  _nonReentrantAfter() */\n      tag_76\n        /* \"@openzeppelin/contracts/security/ReentrancyGuard.sol\":2303:2321  _nonReentrantAfter */\n      tag_42\n        /* \"@openzeppelin/contracts/security/ReentrancyGuard.sol\":2303:2323  _nonReentrantAfter() */\n      jump\t// in\n    tag_76:\n        /* \"contracts/SupplyChain.sol\":720:1257  function registerProduct(string memory _name, uint256 _price) public nonReentrant {... */\n      pop\n      pop\n      jump\t// out\n        /* \"contracts/SupplyChain.sol\":414:441  uint256 public productCount */\n    tag_27:\n      sload(0x02)\n      dup2\n      jump\t// out\n        /* \"@openzeppelin/contracts/security/ReentrancyGuard.sol\":2336:2623  function _nonReentrantBefore() private {... */\n    tag_32:\n        /* \"@openzeppelin/contracts/security/ReentrancyGuard.sol\":1759:1760  2 */\n      0x02\n        /* \"@openzeppelin/contracts/security/ReentrancyGuard.sol\":2468:2475  _status */\n      sload(0x00)\n        /* \"@openzeppelin/contracts/security/ReentrancyGuard.sol\":2468:2487  _status != _ENTERED */\n      sub\n        /* \"@openzeppelin/contracts/security/ReentrancyGuard.sol\":2460:2523  require(_status != _ENTERED, \"ReentrancyGuard: reentrant call\") */\n      tag_78\n      jumpi\n      mload(0x40)\n      0x08c379a000000000000000000000000000000000000000000000000000000000\n      dup2\n      mstore\n      0x04\n      add\n      tag_79\n      swap1\n      tag_80\n      jump\t// in\n    tag_79:\n      mload(0x40)\n      dup1\n      swap2\n      sub\n      swap1\n      revert\n    tag_78:\n        /* \"@openzeppelin/contracts/security/ReentrancyGuard.sol\":1759:1760  2 */\n      0x02\n        /* \"@openzeppelin/contracts/security/ReentrancyGuard.sol\":2598:2605  _status */\n      0x00\n        /* \"@openzeppelin/contracts/security/ReentrancyGuard.sol\":2598:2616  _status = _ENTERED */\n      dup2\n      swap1\n      sstore\n      pop\n        /* \"@openzeppelin/contracts/security/ReentrancyGuard.sol\":2336:2623  function _nonReentrantBefore() private {... */\n      jump\t// out\n        /* \"@openzeppelin/contracts/security/ReentrancyGuard.sol\":2629:2838  function _nonReentrantAfter() private {... */\n    tag_42:\n        /* \"@openzeppelin/contracts/security/ReentrancyGuard.sol\":1716:1717  1 */\n      0x01\n        /* \"@openzeppelin/contracts/security/ReentrancyGuard.sol\":2809:2816  _status */\n      0x00\n        /* \"@openzeppelin/contracts/security/ReentrancyGuard.sol\":2809:2831  _status = _NOT_ENTERED */\n      dup2\n      swap1\n      sstore\n      pop\n        /* \"@openzeppelin/contracts/security/ReentrancyGuard.sol\":2629:2838  function _nonReentrantAfter() private {... */\n      jump\t// out\n        /* \"#utility.yul\":7:82   */\n    tag_82:\n        /* \"#utility.yul\":40:46   */\n      0x00\n        /* \"#utility.yul\":73:75   */\n      0x40\n        /* \"#utility.yul\":67:76   */\n      mload\n        /* \"#utility.yul\":57:76   */\n      swap1\n      pop\n        /* \"#utility.yul\":7:82   */\n      swap1\n      jump\t// out\n        /* \"#utility.yul\":88:205   */\n    tag_83:\n        /* \"#utility.yul\":197:198   */\n      0x00\n        /* \"#utility.yul\":194:195   */\n      dup1\n        /* \"#utility.yul\":187:199   */\n      revert\n        /* \"#utility.yul\":211:328   */\n    tag_84:\n        /* \"#utility.yul\":320:321   */\n      0x00\n        /* \"#utility.yul\":317:318   */\n      dup1\n        /* \"#utility.yul\":310:322   */\n      revert\n        /* \"#utility.yul\":334:411   */\n    tag_85:\n        /* \"#utility.yul\":371:378   */\n      0x00\n        /* \"#utility.yul\":400:405   */\n      dup2\n        /* \"#utility.yul\":389:405   */\n      swap1\n      pop\n        /* \"#utility.yul\":334:411   */\n      swap2\n      swap1\n      pop\n      jump\t// out\n        /* \"#utility.yul\":417:539   */\n    tag_86:\n        /* \"#utility.yul\":490:514   */\n      tag_145\n        /* \"#utility.yul\":508:513   */\n      dup2\n        /* \"#utility.yul\":490:514   */\n      tag_85\n      jump\t// in\n    tag_145:\n        /* \"#utility.yul\":483:488   */\n      dup2\n        /* \"#utility.yul\":480:515   */\n      eq\n        /* \"#utility.yul\":470:533   */\n      tag_146\n      jumpi\n        /* \"#utility.yul\":529:530   */\n      0x00\n        /* \"#utility.yul\":526:527   */\n      dup1\n        /* \"#utility.yul\":519:531   */\n      revert\n        /* \"#utility.yul\":470:533   */\n    tag_146:\n        /* \"#utility.yul\":417:539   */\n      pop\n      jump\t// out\n        /* \"#utility.yul\":545:684   */\n    tag_87:\n        /* \"#utility.yul\":591:596   */\n      0x00\n        /* \"#utility.yul\":629:635   */\n      dup2\n        /* \"#utility.yul\":616:636   */\n      calldataload\n        /* \"#utility.yul\":607:636   */\n      swap1\n      pop\n        /* \"#utility.yul\":645:678   */\n      tag_148\n        /* \"#utility.yul\":672:677   */\n      dup2\n        /* \"#utility.yul\":645:678   */\n      tag_86\n      jump\t// in\n    tag_148:\n        /* \"#utility.yul\":545:684   */\n      swap3\n      swap2\n      pop\n      pop\n      jump\t// out\n        /* \"#utility.yul\":690:816   */\n    tag_88:\n        /* \"#utility.yul\":727:734   */\n      0x00\n        /* \"#utility.yul\":767:809   */\n      0xffffffffffffffffffffffffffffffffffffffff\n        /* \"#utility.yul\":760:765   */\n      dup3\n        /* \"#utility.yul\":756:810   */\n      and\n        /* \"#utility.yul\":745:810   */\n      swap1\n      pop\n        /* \"#utility.yul\":690:816   */\n      swap2\n      swap1\n      pop\n      jump\t// out\n        /* \"#utility.yul\":822:918   */\n    tag_89:\n        /* \"#utility.yul\":859:866   */\n      0x00\n        /* \"#utility.yul\":888:912   */\n      tag_151\n        /* \"#utility.yul\":906:911   */\n      dup3\n        /* \"#utility.yul\":888:912   */\n      tag_88\n      jump\t// in\n    tag_151:\n        /* \"#utility.yul\":877:912   */\n      swap1\n      pop\n        /* \"#utility.yul\":822:918   */\n      swap2\n      swap1\n      pop\n      jump\t// out\n        /* \"#utility.yul\":924:1046   */\n    tag_90:\n        /* \"#utility.yul\":997:1021   */\n      tag_153\n        /* \"#utility.yul\":1015:1020   */\n      dup2\n        /* \"#utility.yul\":997:1021   */\n      tag_89\n      jump\t// in\n    tag_153:\n        /* \"#utility.yul\":990:995   */\n      dup2\n        /* \"#utility.yul\":987:1022   */\n      eq\n        /* \"#utility.yul\":977:1040   */\n      tag_154\n      jumpi\n        /* \"#utility.yul\":1036:1037   */\n      0x00\n        /* \"#utility.yul\":1033:1034   */\n      dup1\n        /* \"#utility.yul\":1026:1038   */\n      revert\n        /* \"#utility.yul\":977:1040   */\n    tag_154:\n        /* \"#utility.yul\":924:1046   */\n      pop\n      jump\t// out\n        /* \"#utility.yul\":1052:1191   */\n    tag_91:\n        /* \"#utility.yul\":1098:1103   */\n      0x00\n        /* \"#utility.yul\":1136:1142   */\n      dup2\n        /* \"#utility.yul\":1123:1143   */\n      calldataload\n        /* \"#utility.yul\":1114:1143   */\n      swap1\n      pop\n        /* \"#utility.yul\":1152:1185   */\n      tag_156\n        /* \"#utility.yul\":1179:1184   */\n      dup2\n        /* \"#utility.yul\":1152:1185   */\n      tag_90\n      jump\t// in\n    tag_156:\n        /* \"#utility.yul\":1052:1191   */\n      swap3\n      swap2\n      pop\n      pop\n      jump\t// out\n        /* \"#utility.yul\":1197:1671   */\n    tag_10:\n        /* \"#utility.yul\":1265:1271   */\n      0x00\n        /* \"#utility.yul\":1273:1279   */\n      dup1\n        /* \"#utility.yul\":1322:1324   */\n      0x40\n        /* \"#utility.yul\":1310:1319   */\n      dup4\n        /* \"#utility.yul\":1301:1308   */\n      dup6\n        /* \"#utility.yul\":1297:1320   */\n      sub\n        /* \"#utility.yul\":1293:1325   */\n      slt\n        /* \"#utility.yul\":1290:1409   */\n      iszero\n      tag_158\n      jumpi\n        /* \"#utility.yul\":1328:1407   */\n      tag_159\n      tag_83\n      jump\t// in\n    tag_159:\n        /* \"#utility.yul\":1290:1409   */\n    tag_158:\n        /* \"#utility.yul\":1448:1449   */\n      0x00\n        /* \"#utility.yul\":1473:1526   */\n      tag_160\n        /* \"#utility.yul\":1518:1525   */\n      dup6\n        /* \"#utility.yul\":1509:1515   */\n      dup3\n        /* \"#utility.yul\":1498:1507   */\n      dup7\n        /* \"#utility.yul\":1494:1516   */\n      add\n        /* \"#utility.yul\":1473:1526   */\n      tag_87\n      jump\t// in\n    tag_160:\n        /* \"#utility.yul\":1463:1526   */\n      swap3\n      pop\n        /* \"#utility.yul\":1419:1536   */\n      pop\n        /* \"#utility.yul\":1575:1577   */\n      0x20\n        /* \"#utility.yul\":1601:1654   */\n      tag_161\n        /* \"#utility.yul\":1646:1653   */\n      dup6\n        /* \"#utility.yul\":1637:1643   */\n      dup3\n        /* \"#utility.yul\":1626:1635   */\n      dup7\n        /* \"#utility.yul\":1622:1644   */\n      add\n        /* \"#utility.yul\":1601:1654   */\n      tag_91\n      jump\t// in\n    tag_161:\n        /* \"#utility.yul\":1591:1654   */\n      swap2\n      pop\n        /* \"#utility.yul\":1546:1664   */\n      pop\n        /* \"#utility.yul\":1197:1671   */\n      swap3\n      pop\n      swap3\n      swap1\n      pop\n      jump\t// out\n        /* \"#utility.yul\":1677:2006   */\n    tag_14:\n        /* \"#utility.yul\":1736:1742   */\n      0x00\n        /* \"#utility.yul\":1785:1787   */\n      0x20\n        /* \"#utility.yul\":1773:1782   */\n      dup3\n        /* \"#utility.yul\":1764:1771   */\n      dup5\n        /* \"#utility.yul\":1760:1783   */\n      sub\n        /* \"#utility.yul\":1756:1788   */\n      slt\n        /* \"#utility.yul\":1753:1872   */\n      iszero\n      tag_163\n      jumpi\n        /* \"#utility.yul\":1791:1870   */\n      tag_164\n      tag_83\n      jump\t// in\n    tag_164:\n        /* \"#utility.yul\":1753:1872   */\n    tag_163:\n        /* \"#utility.yul\":1911:1912   */\n      0x00\n        /* \"#utility.yul\":1936:1989   */\n      tag_165\n        /* \"#utility.yul\":1981:1988   */\n      dup5\n        /* \"#utility.yul\":1972:1978   */\n      dup3\n        /* \"#utility.yul\":1961:1970   */\n      dup6\n        /* \"#utility.yul\":1957:1979   */\n      add\n        /* \"#utility.yul\":1936:1989   */\n      tag_87\n      jump\t// in\n    tag_165:\n        /* \"#utility.yul\":1926:1989   */\n      swap2\n      pop\n        /* \"#utility.yul\":1882:1999   */\n      pop\n        /* \"#utility.yul\":1677:2006   */\n      swap3\n      swap2\n      pop\n      pop\n      jump\t// out\n        /* \"#utility.yul\":2012:2130   */\n    tag_92:\n        /* \"#utility.yul\":2099:2123   */\n      tag_167\n        /* \"#utility.yul\":2117:2122   */\n      dup2\n        /* \"#utility.yul\":2099:2123   */\n      tag_85\n      jump\t// in\n    tag_167:\n        /* \"#utility.yul\":2094:2097   */\n      dup3\n        /* \"#utility.yul\":2087:2124   */\n      mstore\n        /* \"#utility.yul\":2012:2130   */\n      pop\n      pop\n      jump\t// out\n        /* \"#utility.yul\":2136:2235   */\n    tag_93:\n        /* \"#utility.yul\":2188:2194   */\n      0x00\n        /* \"#utility.yul\":2222:2227   */\n      dup2\n        /* \"#utility.yul\":2216:2228   */\n      mload\n        /* \"#utility.yul\":2206:2228   */\n      swap1\n      pop\n        /* \"#utility.yul\":2136:2235   */\n      swap2\n      swap1\n      pop\n      jump\t// out\n        /* \"#utility.yul\":2241:2410   */\n    tag_94:\n        /* \"#utility.yul\":2325:2336   */\n      0x00\n        /* \"#utility.yul\":2359:2365   */\n      dup3\n        /* \"#utility.yul\":2354:2357   */\n      dup3\n        /* \"#utility.yul\":2347:2366   */\n      mstore\n        /* \"#utility.yul\":2399:2403   */\n      0x20\n        /* \"#utility.yul\":2394:2397   */\n      dup3\n        /* \"#utility.yul\":2390:2404   */\n      add\n        /* \"#utility.yul\":2375:2404   */\n      swap1\n      pop\n        /* \"#utility.yul\":2241:2410   */\n      swap3\n      swap2\n      pop\n      pop\n      jump\t// out\n        /* \"#utility.yul\":2416:2555   */\n    tag_95:\n        /* \"#utility.yul\":2505:2511   */\n      dup3\n        /* \"#utility.yul\":2500:2503   */\n      dup2\n        /* \"#utility.yul\":2495:2498   */\n      dup4\n        /* \"#utility.yul\":2489:2512   */\n      mcopy\n        /* \"#utility.yul\":2546:2547   */\n      0x00\n        /* \"#utility.yul\":2537:2543   */\n      dup4\n        /* \"#utility.yul\":2532:2535   */\n      dup4\n        /* \"#utility.yul\":2528:2544   */\n      add\n        /* \"#utility.yul\":2521:2548   */\n      mstore\n        /* \"#utility.yul\":2416:2555   */\n      pop\n      pop\n      pop\n      jump\t// out\n        /* \"#utility.yul\":2561:2663   */\n    tag_96:\n        /* \"#utility.yul\":2602:2608   */\n      0x00\n        /* \"#utility.yul\":2653:2655   */\n      0x1f\n        /* \"#utility.yul\":2649:2656   */\n      not\n        /* \"#utility.yul\":2644:2646   */\n      0x1f\n        /* \"#utility.yul\":2637:2642   */\n      dup4\n        /* \"#utility.yul\":2633:2647   */\n      add\n        /* \"#utility.yul\":2629:2657   */\n      and\n        /* \"#utility.yul\":2619:2657   */\n      swap1\n      pop\n        /* \"#utility.yul\":2561:2663   */\n      swap2\n      swap1\n      pop\n      jump\t// out\n        /* \"#utility.yul\":2669:3046   */\n    tag_97:\n        /* \"#utility.yul\":2757:2760   */\n      0x00\n        /* \"#utility.yul\":2785:2824   */\n      tag_173\n        /* \"#utility.yul\":2818:2823   */\n      dup3\n        /* \"#utility.yul\":2785:2824   */\n      tag_93\n      jump\t// in\n    tag_173:\n        /* \"#utility.yul\":2840:2911   */\n      tag_174\n        /* \"#utility.yul\":2904:2910   */\n      dup2\n        /* \"#utility.yul\":2899:2902   */\n      dup6\n        /* \"#utility.yul\":2840:2911   */\n      tag_94\n      jump\t// in\n    tag_174:\n        /* \"#utility.yul\":2833:2911   */\n      swap4\n      pop\n        /* \"#utility.yul\":2920:2985   */\n      tag_175\n        /* \"#utility.yul\":2978:2984   */\n      dup2\n        /* \"#utility.yul\":2973:2976   */\n      dup6\n        /* \"#utility.yul\":2966:2970   */\n      0x20\n        /* \"#utility.yul\":2959:2964   */\n      dup7\n        /* \"#utility.yul\":2955:2971   */\n      add\n        /* \"#utility.yul\":2920:2985   */\n      tag_95\n      jump\t// in\n    tag_175:\n        /* \"#utility.yul\":3010:3039   */\n      tag_176\n        /* \"#utility.yul\":3032:3038   */\n      dup2\n        /* \"#utility.yul\":3010:3039   */\n      tag_96\n      jump\t// in\n    tag_176:\n        /* \"#utility.yul\":3005:3008   */\n      dup5\n        /* \"#utility.yul\":3001:3040   */\n      add\n        /* \"#utility.yul\":2994:3040   */\n      swap2\n      pop\n        /* \"#utility.yul\":2761:3046   */\n      pop\n        /* \"#utility.yul\":2669:3046   */\n      swap3\n      swap2\n      pop\n      pop\n      jump\t// out\n        /* \"#utility.yul\":3052:3170   */\n    tag_98:\n        /* \"#utility.yul\":3139:3163   */\n      tag_178\n        /* \"#utility.yul\":3157:3162   */\n      dup2\n        /* \"#utility.yul\":3139:3163   */\n      tag_89\n      jump\t// in\n    tag_178:\n        /* \"#utility.yul\":3134:3137   */\n      dup3\n        /* \"#utility.yul\":3127:3164   */\n      mstore\n        /* \"#utility.yul\":3052:3170   */\n      pop\n      pop\n      jump\t// out\n        /* \"#utility.yul\":3176:3820   */\n    tag_17:\n        /* \"#utility.yul\":3373:3377   */\n      0x00\n        /* \"#utility.yul\":3411:3414   */\n      0x80\n        /* \"#utility.yul\":3400:3409   */\n      dup3\n        /* \"#utility.yul\":3396:3415   */\n      add\n        /* \"#utility.yul\":3388:3415   */\n      swap1\n      pop\n        /* \"#utility.yul\":3425:3496   */\n      tag_180\n        /* \"#utility.yul\":3493:3494   */\n      0x00\n        /* \"#utility.yul\":3482:3491   */\n      dup4\n        /* \"#utility.yul\":3478:3495   */\n      add\n        /* \"#utility.yul\":3469:3475   */\n      dup8\n        /* \"#utility.yul\":3425:3496   */\n      tag_92\n      jump\t// in\n    tag_180:\n        /* \"#utility.yul\":3543:3552   */\n      dup2\n        /* \"#utility.yul\":3537:3541   */\n      dup2\n        /* \"#utility.yul\":3533:3553   */\n      sub\n        /* \"#utility.yul\":3528:3530   */\n      0x20\n        /* \"#utility.yul\":3517:3526   */\n      dup4\n        /* \"#utility.yul\":3513:3531   */\n      add\n        /* \"#utility.yul\":3506:3554   */\n      mstore\n        /* \"#utility.yul\":3571:3649   */\n      tag_181\n        /* \"#utility.yul\":3644:3648   */\n      dup2\n        /* \"#utility.yul\":3635:3641   */\n      dup7\n        /* \"#utility.yul\":3571:3649   */\n      tag_97\n      jump\t// in\n    tag_181:\n        /* \"#utility.yul\":3563:3649   */\n      swap1\n      pop\n        /* \"#utility.yul\":3659:3731   */\n      tag_182\n        /* \"#utility.yul\":3727:3729   */\n      0x40\n        /* \"#utility.yul\":3716:3725   */\n      dup4\n        /* \"#utility.yul\":3712:3730   */\n      add\n        /* \"#utility.yul\":3703:3709   */\n      dup6\n        /* \"#utility.yul\":3659:3731   */\n      tag_92\n      jump\t// in\n    tag_182:\n        /* \"#utility.yul\":3741:3813   */\n      tag_183\n        /* \"#utility.yul\":3809:3811   */\n      0x60\n        /* \"#utility.yul\":3798:3807   */\n      dup4\n        /* \"#utility.yul\":3794:3812   */\n      add\n        /* \"#utility.yul\":3785:3791   */\n      dup5\n        /* \"#utility.yul\":3741:3813   */\n      tag_98\n      jump\t// in\n    tag_183:\n        /* \"#utility.yul\":3176:3820   */\n      swap6\n      swap5\n      pop\n      pop\n      pop\n      pop\n      pop\n      jump\t// out\n        /* \"#utility.yul\":3826:4300   */\n    tag_20:\n        /* \"#utility.yul\":3894:3900   */\n      0x00\n        /* \"#utility.yul\":3902:3908   */\n      dup1\n        /* \"#utility.yul\":3951:3953   */\n      0x40\n        /* \"#utility.yul\":3939:3948   */\n      dup4\n        /* \"#utility.yul\":3930:3937   */\n      dup6\n        /* \"#utility.yul\":3926:3949   */\n      sub\n        /* \"#utility.yul\":3922:3954   */\n      slt\n        /* \"#utility.yul\":3919:4038   */\n      iszero\n      tag_185\n      jumpi\n        /* \"#utility.yul\":3957:4036   */\n      tag_186\n      tag_83\n      jump\t// in\n    tag_186:\n        /* \"#utility.yul\":3919:4038   */\n    tag_185:\n        /* \"#utility.yul\":4077:4078   */\n      0x00\n        /* \"#utility.yul\":4102:4155   */\n      tag_187\n        /* \"#utility.yul\":4147:4154   */\n      dup6\n        /* \"#utility.yul\":4138:4144   */\n      dup3\n        /* \"#utility.yul\":4127:4136   */\n      dup7\n        /* \"#utility.yul\":4123:4145   */\n      add\n        /* \"#utility.yul\":4102:4155   */\n      tag_87\n      jump\t// in\n    tag_187:\n        /* \"#utility.yul\":4092:4155   */\n      swap3\n      pop\n        /* \"#utility.yul\":4048:4165   */\n      pop\n        /* \"#utility.yul\":4204:4206   */\n      0x20\n        /* \"#utility.yul\":4230:4283   */\n      tag_188\n        /* \"#utility.yul\":4275:4282   */\n      dup6\n        /* \"#utility.yul\":4266:4272   */\n      dup3\n        /* \"#utility.yul\":4255:4264   */\n      dup7\n        /* \"#utility.yul\":4251:4273   */\n      add\n        /* \"#utility.yul\":4230:4283   */\n      tag_87\n      jump\t// in\n    tag_188:\n        /* \"#utility.yul\":4220:4283   */\n      swap2\n      pop\n        /* \"#utility.yul\":4175:4293   */\n      pop\n        /* \"#utility.yul\":3826:4300   */\n      swap3\n      pop\n      swap3\n      swap1\n      pop\n      jump\t// out\n        /* \"#utility.yul\":4306:4423   */\n    tag_99:\n        /* \"#utility.yul\":4415:4416   */\n      0x00\n        /* \"#utility.yul\":4412:4413   */\n      dup1\n        /* \"#utility.yul\":4405:4417   */\n      revert\n        /* \"#utility.yul\":4429:4546   */\n    tag_100:\n        /* \"#utility.yul\":4538:4539   */\n      0x00\n        /* \"#utility.yul\":4535:4536   */\n      dup1\n        /* \"#utility.yul\":4528:4540   */\n      revert\n        /* \"#utility.yul\":4552:4732   */\n    tag_101:\n        /* \"#utility.yul\":4600:4677   */\n      0x4e487b7100000000000000000000000000000000000000000000000000000000\n        /* \"#utility.yul\":4597:4598   */\n      0x00\n        /* \"#utility.yul\":4590:4678   */\n      mstore\n        /* \"#utility.yul\":4697:4701   */\n      0x41\n        /* \"#utility.yul\":4694:4695   */\n      0x04\n        /* \"#utility.yul\":4687:4702   */\n      mstore\n        /* \"#utility.yul\":4721:4725   */\n      0x24\n        /* \"#utility.yul\":4718:4719   */\n      0x00\n        /* \"#utility.yul\":4711:4726   */\n      revert\n        /* \"#utility.yul\":4738:5019   */\n    tag_102:\n        /* \"#utility.yul\":4821:4848   */\n      tag_193\n        /* \"#utility.yul\":4843:4847   */\n      dup3\n        /* \"#utility.yul\":4821:4848   */\n      tag_96\n      jump\t// in\n    tag_193:\n        /* \"#utility.yul\":4813:4819   */\n      dup2\n        /* \"#utility.yul\":4809:4849   */\n      add\n        /* \"#utility.yul\":4951:4957   */\n      dup2\n        /* \"#utility.yul\":4939:4949   */\n      dup2\n        /* \"#utility.yul\":4936:4958   */\n      lt\n        /* \"#utility.yul\":4915:4933   */\n      0xffffffffffffffff\n        /* \"#utility.yul\":4903:4913   */\n      dup3\n        /* \"#utility.yul\":4900:4934   */\n      gt\n        /* \"#utility.yul\":4897:4959   */\n      or\n        /* \"#utility.yul\":4894:4982   */\n      iszero\n      tag_194\n      jumpi\n        /* \"#utility.yul\":4962:4980   */\n      tag_195\n      tag_101\n      jump\t// in\n    tag_195:\n        /* \"#utility.yul\":4894:4982   */\n    tag_194:\n        /* \"#utility.yul\":5002:5012   */\n      dup1\n        /* \"#utility.yul\":4998:5000   */\n      0x40\n        /* \"#utility.yul\":4991:5013   */\n      mstore\n        /* \"#utility.yul\":4781:5019   */\n      pop\n        /* \"#utility.yul\":4738:5019   */\n      pop\n      pop\n      jump\t// out\n        /* \"#utility.yul\":5025:5154   */\n    tag_103:\n        /* \"#utility.yul\":5059:5065   */\n      0x00\n        /* \"#utility.yul\":5086:5106   */\n      tag_197\n      tag_82\n      jump\t// in\n    tag_197:\n        /* \"#utility.yul\":5076:5106   */\n      swap1\n      pop\n        /* \"#utility.yul\":5115:5148   */\n      tag_198\n        /* \"#utility.yul\":5143:5147   */\n      dup3\n        /* \"#utility.yul\":5135:5141   */\n      dup3\n        /* \"#utility.yul\":5115:5148   */\n      tag_102\n      jump\t// in\n    tag_198:\n        /* \"#utility.yul\":5025:5154   */\n      swap2\n      swap1\n      pop\n      jump\t// out\n        /* \"#utility.yul\":5160:5468   */\n    tag_104:\n        /* \"#utility.yul\":5222:5226   */\n      0x00\n        /* \"#utility.yul\":5312:5330   */\n      0xffffffffffffffff\n        /* \"#utility.yul\":5304:5310   */\n      dup3\n        /* \"#utility.yul\":5301:5331   */\n      gt\n        /* \"#utility.yul\":5298:5354   */\n      iszero\n      tag_200\n      jumpi\n        /* \"#utility.yul\":5334:5352   */\n      tag_201\n      tag_101\n      jump\t// in\n    tag_201:\n        /* \"#utility.yul\":5298:5354   */\n    tag_200:\n        /* \"#utility.yul\":5372:5401   */\n      tag_202\n        /* \"#utility.yul\":5394:5400   */\n      dup3\n        /* \"#utility.yul\":5372:5401   */\n      tag_96\n      jump\t// in\n    tag_202:\n        /* \"#utility.yul\":5364:5401   */\n      swap1\n      pop\n        /* \"#utility.yul\":5456:5460   */\n      0x20\n        /* \"#utility.yul\":5450:5454   */\n      dup2\n        /* \"#utility.yul\":5446:5461   */\n      add\n        /* \"#utility.yul\":5438:5461   */\n      swap1\n      pop\n        /* \"#utility.yul\":5160:5468   */\n      swap2\n      swap1\n      pop\n      jump\t// out\n        /* \"#utility.yul\":5474:5622   */\n    tag_105:\n        /* \"#utility.yul\":5572:5578   */\n      dup3\n        /* \"#utility.yul\":5567:5570   */\n      dup2\n        /* \"#utility.yul\":5562:5565   */\n      dup4\n        /* \"#utility.yul\":5549:5579   */\n      calldatacopy\n        /* \"#utility.yul\":5613:5614   */\n      0x00\n        /* \"#utility.yul\":5604:5610   */\n      dup4\n        /* \"#utility.yul\":5599:5602   */\n      dup4\n        /* \"#utility.yul\":5595:5611   */\n      add\n        /* \"#utility.yul\":5588:5615   */\n      mstore\n        /* \"#utility.yul\":5474:5622   */\n      pop\n      pop\n      pop\n      jump\t// out\n        /* \"#utility.yul\":5628:6053   */\n    tag_106:\n        /* \"#utility.yul\":5706:5711   */\n      0x00\n        /* \"#utility.yul\":5731:5797   */\n      tag_205\n        /* \"#utility.yul\":5747:5796   */\n      tag_206\n        /* \"#utility.yul\":5789:5795   */\n      dup5\n        /* \"#utility.yul\":5747:5796   */\n      tag_104\n      jump\t// in\n    tag_206:\n        /* \"#utility.yul\":5731:5797   */\n      tag_103\n      jump\t// in\n    tag_205:\n        /* \"#utility.yul\":5722:5797   */\n      swap1\n      pop\n        /* \"#utility.yul\":5820:5826   */\n      dup3\n        /* \"#utility.yul\":5813:5818   */\n      dup2\n        /* \"#utility.yul\":5806:5827   */\n      mstore\n        /* \"#utility.yul\":5858:5862   */\n      0x20\n        /* \"#utility.yul\":5851:5856   */\n      dup2\n        /* \"#utility.yul\":5847:5863   */\n      add\n        /* \"#utility.yul\":5896:5899   */\n      dup5\n        /* \"#utility.yul\":5887:5893   */\n      dup5\n        /* \"#utility.yul\":5882:5885   */\n      dup5\n        /* \"#utility.yul\":5878:5894   */\n      add\n        /* \"#utility.yul\":5875:5900   */\n      gt\n        /* \"#utility.yul\":5872:5984   */\n      iszero\n      tag_207\n      jumpi\n        /* \"#utility.yul\":5903:5982   */\n      tag_208\n      tag_100\n      jump\t// in\n    tag_208:\n        /* \"#utility.yul\":5872:5984   */\n    tag_207:\n        /* \"#utility.yul\":5993:6047   */\n      tag_209\n        /* \"#utility.yul\":6040:6046   */\n      dup5\n        /* \"#utility.yul\":6035:6038   */\n      dup3\n        /* \"#utility.yul\":6030:6033   */\n      dup6\n        /* \"#utility.yul\":5993:6047   */\n      tag_105\n      jump\t// in\n    tag_209:\n        /* \"#utility.yul\":5712:6053   */\n      pop\n        /* \"#utility.yul\":5628:6053   */\n      swap4\n      swap3\n      pop\n      pop\n      pop\n      jump\t// out\n        /* \"#utility.yul\":6073:6413   */\n    tag_107:\n        /* \"#utility.yul\":6129:6134   */\n      0x00\n        /* \"#utility.yul\":6178:6181   */\n      dup3\n        /* \"#utility.yul\":6171:6175   */\n      0x1f\n        /* \"#utility.yul\":6163:6169   */\n      dup4\n        /* \"#utility.yul\":6159:6176   */\n      add\n        /* \"#utility.yul\":6155:6182   */\n      slt\n        /* \"#utility.yul\":6145:6267   */\n      tag_211\n      jumpi\n        /* \"#utility.yul\":6186:6265   */\n      tag_212\n      tag_99\n      jump\t// in\n    tag_212:\n        /* \"#utility.yul\":6145:6267   */\n    tag_211:\n        /* \"#utility.yul\":6303:6309   */\n      dup2\n        /* \"#utility.yul\":6290:6310   */\n      calldataload\n        /* \"#utility.yul\":6328:6407   */\n      tag_213\n        /* \"#utility.yul\":6403:6406   */\n      dup5\n        /* \"#utility.yul\":6395:6401   */\n      dup3\n        /* \"#utility.yul\":6388:6392   */\n      0x20\n        /* \"#utility.yul\":6380:6386   */\n      dup7\n        /* \"#utility.yul\":6376:6393   */\n      add\n        /* \"#utility.yul\":6328:6407   */\n      tag_106\n      jump\t// in\n    tag_213:\n        /* \"#utility.yul\":6319:6407   */\n      swap2\n      pop\n        /* \"#utility.yul\":6135:6413   */\n      pop\n        /* \"#utility.yul\":6073:6413   */\n      swap3\n      swap2\n      pop\n      pop\n      jump\t// out\n        /* \"#utility.yul\":6419:7073   */\n    tag_24:\n        /* \"#utility.yul\":6497:6503   */\n      0x00\n        /* \"#utility.yul\":6505:6511   */\n      dup1\n        /* \"#utility.yul\":6554:6556   */\n      0x40\n        /* \"#utility.yul\":6542:6551   */\n      dup4\n        /* \"#utility.yul\":6533:6540   */\n      dup6\n        /* \"#utility.yul\":6529:6552   */\n      sub\n        /* \"#utility.yul\":6525:6557   */\n      slt\n        /* \"#utility.yul\":6522:6641   */\n      iszero\n      tag_215\n      jumpi\n        /* \"#utility.yul\":6560:6639   */\n      tag_216\n      tag_83\n      jump\t// in\n    tag_216:\n        /* \"#utility.yul\":6522:6641   */\n    tag_215:\n        /* \"#utility.yul\":6708:6709   */\n      0x00\n        /* \"#utility.yul\":6697:6706   */\n      dup4\n        /* \"#utility.yul\":6693:6710   */\n      add\n        /* \"#utility.yul\":6680:6711   */\n      calldataload\n        /* \"#utility.yul\":6738:6756   */\n      0xffffffffffffffff\n        /* \"#utility.yul\":6730:6736   */\n      dup2\n        /* \"#utility.yul\":6727:6757   */\n      gt\n        /* \"#utility.yul\":6724:6841   */\n      iszero\n      tag_217\n      jumpi\n        /* \"#utility.yul\":6760:6839   */\n      tag_218\n      tag_84\n      jump\t// in\n    tag_218:\n        /* \"#utility.yul\":6724:6841   */\n    tag_217:\n        /* \"#utility.yul\":6865:6928   */\n      tag_219\n        /* \"#utility.yul\":6920:6927   */\n      dup6\n        /* \"#utility.yul\":6911:6917   */\n      dup3\n        /* \"#utility.yul\":6900:6909   */\n      dup7\n        /* \"#utility.yul\":6896:6918   */\n      add\n        /* \"#utility.yul\":6865:6928   */\n      tag_107\n      jump\t// in\n    tag_219:\n        /* \"#utility.yul\":6855:6928   */\n      swap3\n      pop\n        /* \"#utility.yul\":6651:6938   */\n      pop\n        /* \"#utility.yul\":6977:6979   */\n      0x20\n        /* \"#utility.yul\":7003:7056   */\n      tag_220\n        /* \"#utility.yul\":7048:7055   */\n      dup6\n        /* \"#utility.yul\":7039:7045   */\n      dup3\n        /* \"#utility.yul\":7028:7037   */\n      dup7\n        /* \"#utility.yul\":7024:7046   */\n      add\n        /* \"#utility.yul\":7003:7056   */\n      tag_87\n      jump\t// in\n    tag_220:\n        /* \"#utility.yul\":6993:7056   */\n      swap2\n      pop\n        /* \"#utility.yul\":6948:7066   */\n      pop\n        /* \"#utility.yul\":6419:7073   */\n      swap3\n      pop\n      swap3\n      swap1\n      pop\n      jump\t// out\n        /* \"#utility.yul\":7079:7301   */\n    tag_29:\n        /* \"#utility.yul\":7172:7176   */\n      0x00\n        /* \"#utility.yul\":7210:7212   */\n      0x20\n        /* \"#utility.yul\":7199:7208   */\n      dup3\n        /* \"#utility.yul\":7195:7213   */\n      add\n        /* \"#utility.yul\":7187:7213   */\n      swap1\n      pop\n        /* \"#utility.yul\":7223:7294   */\n      tag_222\n        /* \"#utility.yul\":7291:7292   */\n      0x00\n        /* \"#utility.yul\":7280:7289   */\n      dup4\n        /* \"#utility.yul\":7276:7293   */\n      add\n        /* \"#utility.yul\":7267:7273   */\n      dup5\n        /* \"#utility.yul\":7223:7294   */\n      tag_92\n      jump\t// in\n    tag_222:\n        /* \"#utility.yul\":7079:7301   */\n      swap3\n      swap2\n      pop\n      pop\n      jump\t// out\n        /* \"#utility.yul\":7307:7479   */\n    tag_108:\n        /* \"#utility.yul\":7447:7471   */\n      0x50726f6475637420646f6573206e6f7420657869737400000000000000000000\n        /* \"#utility.yul\":7443:7444   */\n      0x00\n        /* \"#utility.yul\":7435:7441   */\n      dup3\n        /* \"#utility.yul\":7431:7445   */\n      add\n        /* \"#utility.yul\":7424:7472   */\n      mstore\n        /* \"#utility.yul\":7307:7479   */\n      pop\n      jump\t// out\n        /* \"#utility.yul\":7485:7851   */\n    tag_109:\n        /* \"#utility.yul\":7627:7630   */\n      0x00\n        /* \"#utility.yul\":7648:7715   */\n      tag_225\n        /* \"#utility.yul\":7712:7714   */\n      0x16\n        /* \"#utility.yul\":7707:7710   */\n      dup4\n        /* \"#utility.yul\":7648:7715   */\n      tag_94\n      jump\t// in\n    tag_225:\n        /* \"#utility.yul\":7641:7715   */\n      swap2\n      pop\n        /* \"#utility.yul\":7724:7817   */\n      tag_226\n        /* \"#utility.yul\":7813:7816   */\n      dup3\n        /* \"#utility.yul\":7724:7817   */\n      tag_108\n      jump\t// in\n    tag_226:\n        /* \"#utility.yul\":7842:7844   */\n      0x20\n        /* \"#utility.yul\":7837:7840   */\n      dup3\n        /* \"#utility.yul\":7833:7845   */\n      add\n        /* \"#utility.yul\":7826:7845   */\n      swap1\n      pop\n        /* \"#utility.yul\":7485:7851   */\n      swap2\n      swap1\n      pop\n      jump\t// out\n        /* \"#utility.yul\":7857:8276   */\n    tag_37:\n        /* \"#utility.yul\":8023:8027   */\n      0x00\n        /* \"#utility.yul\":8061:8063   */\n      0x20\n        /* \"#utility.yul\":8050:8059   */\n      dup3\n        /* \"#utility.yul\":8046:8064   */\n      add\n        /* \"#utility.yul\":8038:8064   */\n      swap1\n      pop\n        /* \"#utility.yul\":8110:8119   */\n      dup2\n        /* \"#utility.yul\":8104:8108   */\n      dup2\n        /* \"#utility.yul\":8100:8120   */\n      sub\n        /* \"#utility.yul\":8096:8097   */\n      0x00\n        /* \"#utility.yul\":8085:8094   */\n      dup4\n        /* \"#utility.yul\":8081:8098   */\n      add\n        /* \"#utility.yul\":8074:8121   */\n      mstore\n        /* \"#utility.yul\":8138:8269   */\n      tag_228\n        /* \"#utility.yul\":8264:8268   */\n      dup2\n        /* \"#utility.yul\":8138:8269   */\n      tag_109\n      jump\t// in\n    tag_228:\n        /* \"#utility.yul\":8130:8269   */\n      swap1\n      pop\n        /* \"#utility.yul\":7857:8276   */\n      swap2\n      swap1\n      pop\n      jump\t// out\n        /* \"#utility.yul\":8282:8506   */\n    tag_110:\n        /* \"#utility.yul\":8422:8456   */\n      0x4f6e6c7920746865206f776e65722063616e207472616e73666572206f776e65\n        /* \"#utility.yul\":8418:8419   */\n      0x00\n        /* \"#utility.yul\":8410:8416   */\n      dup3\n        /* \"#utility.yul\":8406:8420   */\n      add\n        /* \"#utility.yul\":8399:8457   */\n      mstore\n        /* \"#utility.yul\":8491:8498   */\n      0x7273686970000000000000000000000000000000000000000000000000000000\n        /* \"#utility.yul\":8486:8488   */\n      0x20\n        /* \"#utility.yul\":8478:8484   */\n      dup3\n        /* \"#utility.yul\":8474:8489   */\n      add\n        /* \"#utility.yul\":8467:8499   */\n      mstore\n        /* \"#utility.yul\":8282:8506   */\n      pop\n      jump\t// out\n        /* \"#utility.yul\":8512:8878   */\n    tag_111:\n        /* \"#utility.yul\":8654:8657   */\n      0x00\n        /* \"#utility.yul\":8675:8742   */\n      tag_231\n        /* \"#utility.yul\":8739:8741   */\n      0x25\n        /* \"#utility.yul\":8734:8737   */\n      dup4\n        /* \"#utility.yul\":8675:8742   */\n      tag_94\n      jump\t// in\n    tag_231:\n        /* \"#utility.yul\":8668:8742   */\n      swap2\n      pop\n        /* \"#utility.yul\":8751:8844   */\n      tag_232\n        /* \"#utility.yul\":8840:8843   */\n      dup3\n        /* \"#utility.yul\":8751:8844   */\n      tag_110\n      jump\t// in\n    tag_232:\n        /* \"#utility.yul\":8869:8871   */\n      0x40\n        /* \"#utility.yul\":8864:8867   */\n      dup3\n        /* \"#utility.yul\":8860:8872   */\n      add\n        /* \"#utility.yul\":8853:8872   */\n      swap1\n      pop\n        /* \"#utility.yul\":8512:8878   */\n      swap2\n      swap1\n      pop\n      jump\t// out\n        /* \"#utility.yul\":8884:9303   */\n    tag_40:\n        /* \"#utility.yul\":9050:9054   */\n      0x00\n        /* \"#utility.yul\":9088:9090   */\n      0x20\n        /* \"#utility.yul\":9077:9086   */\n      dup3\n        /* \"#utility.yul\":9073:9091   */\n      add\n        /* \"#utility.yul\":9065:9091   */\n      swap1\n      pop\n        /* \"#utility.yul\":9137:9146   */\n      dup2\n        /* \"#utility.yul\":9131:9135   */\n      dup2\n        /* \"#utility.yul\":9127:9147   */\n      sub\n        /* \"#utility.yul\":9123:9124   */\n      0x00\n        /* \"#utility.yul\":9112:9121   */\n      dup4\n        /* \"#utility.yul\":9108:9125   */\n      add\n        /* \"#utility.yul\":9101:9148   */\n      mstore\n        /* \"#utility.yul\":9165:9296   */\n      tag_234\n        /* \"#utility.yul\":9291:9295   */\n      dup2\n        /* \"#utility.yul\":9165:9296   */\n      tag_111\n      jump\t// in\n    tag_234:\n        /* \"#utility.yul\":9157:9296   */\n      swap1\n      pop\n        /* \"#utility.yul\":8884:9303   */\n      swap2\n      swap1\n      pop\n      jump\t// out\n        /* \"#utility.yul\":9309:9489   */\n    tag_112:\n        /* \"#utility.yul\":9357:9434   */\n      0x4e487b7100000000000000000000000000000000000000000000000000000000\n        /* \"#utility.yul\":9354:9355   */\n      0x00\n        /* \"#utility.yul\":9347:9435   */\n      mstore\n        /* \"#utility.yul\":9454:9458   */\n      0x22\n        /* \"#utility.yul\":9451:9452   */\n      0x04\n        /* \"#utility.yul\":9444:9459   */\n      mstore\n        /* \"#utility.yul\":9478:9482   */\n      0x24\n        /* \"#utility.yul\":9475:9476   */\n      0x00\n        /* \"#utility.yul\":9468:9483   */\n      revert\n        /* \"#utility.yul\":9495:9815   */\n    tag_44:\n        /* \"#utility.yul\":9539:9545   */\n      0x00\n        /* \"#utility.yul\":9576:9577   */\n      0x02\n        /* \"#utility.yul\":9570:9574   */\n      dup3\n        /* \"#utility.yul\":9566:9578   */\n      div\n        /* \"#utility.yul\":9556:9578   */\n      swap1\n      pop\n        /* \"#utility.yul\":9623:9624   */\n      0x01\n        /* \"#utility.yul\":9617:9621   */\n      dup3\n        /* \"#utility.yul\":9613:9625   */\n      and\n        /* \"#utility.yul\":9644:9662   */\n      dup1\n        /* \"#utility.yul\":9634:9715   */\n      tag_237\n      jumpi\n        /* \"#utility.yul\":9700:9704   */\n      0x7f\n        /* \"#utility.yul\":9692:9698   */\n      dup3\n        /* \"#utility.yul\":9688:9705   */\n      and\n        /* \"#utility.yul\":9678:9705   */\n      swap2\n      pop\n        /* \"#utility.yul\":9634:9715   */\n    tag_237:\n        /* \"#utility.yul\":9762:9764   */\n      0x20\n        /* \"#utility.yul\":9754:9760   */\n      dup3\n        /* \"#utility.yul\":9751:9765   */\n      lt\n        /* \"#utility.yul\":9731:9749   */\n      dup2\n        /* \"#utility.yul\":9728:9766   */\n      sub\n        /* \"#utility.yul\":9725:9809   */\n      tag_238\n      jumpi\n        /* \"#utility.yul\":9781:9799   */\n      tag_239\n      tag_112\n      jump\t// in\n    tag_239:\n        /* \"#utility.yul\":9725:9809   */\n    tag_238:\n        /* \"#utility.yul\":9546:9815   */\n      pop\n        /* \"#utility.yul\":9495:9815   */\n      swap2\n      swap1\n      pop\n      jump\t// out\n        /* \"#utility.yul\":9821:10043   */\n    tag_113:\n        /* \"#utility.yul\":9961:9995   */\n      0x4f6e6c7920746865206f776e65722063616e2075706461746520746865207072\n        /* \"#utility.yul\":9957:9958   */\n      0x00\n        /* \"#utility.yul\":9949:9955   */\n      dup3\n        /* \"#utility.yul\":9945:9959   */\n      add\n        /* \"#utility.yul\":9938:9996   */\n      mstore\n        /* \"#utility.yul\":10030:10035   */\n      0x6963650000000000000000000000000000000000000000000000000000000000\n        /* \"#utility.yul\":10025:10027   */\n      0x20\n        /* \"#utility.yul\":10017:10023   */\n      dup3\n        /* \"#utility.yul\":10013:10028   */\n      add\n        /* \"#utility.yul\":10006:10036   */\n      mstore\n        /* \"#utility.yul\":9821:10043   */\n      pop\n      jump\t// out\n        /* \"#utility.yul\":10049:10415   */\n    tag_114:\n        /* \"#utility.yul\":10191:10194   */\n      0x00\n        /* \"#utility.yul\":10212:10279   */\n      tag_242\n        /* \"#utility.yul\":10276:10278   */\n      0x23\n        /* \"#utility.yul\":10271:10274   */\n      dup4\n        /* \"#utility.yul\":10212:10279   */\n      tag_94\n      jump\t// in\n    tag_242:\n        /* \"#utility.yul\":10205:10279   */\n      swap2\n      pop\n        /* \"#utility.yul\":10288:10381   */\n      tag_243\n        /* \"#utility.yul\":10377:10380   */\n      dup3\n        /* \"#utility.yul\":10288:10381   */\n      tag_113\n      jump\t// in\n    tag_243:\n        /* \"#utility.yul\":10406:10408   */\n      0x40\n        /* \"#utility.yul\":10401:10404   */\n      dup3\n        /* \"#utility.yul\":10397:10409   */\n      add\n        /* \"#utility.yul\":10390:10409   */\n      swap1\n      pop\n        /* \"#utility.yul\":10049:10415   */\n      swap2\n      swap1\n      pop\n      jump\t// out\n        /* \"#utility.yul\":10421:10840   */\n    tag_57:\n        /* \"#utility.yul\":10587:10591   */\n      0x00\n        /* \"#utility.yul\":10625:10627   */\n      0x20\n        /* \"#utility.yul\":10614:10623   */\n      dup3\n        /* \"#utility.yul\":10610:10628   */\n      add\n        /* \"#utility.yul\":10602:10628   */\n      swap1\n      pop\n        /* \"#utility.yul\":10674:10683   */\n      dup2\n        /* \"#utility.yul\":10668:10672   */\n      dup2\n        /* \"#utility.yul\":10664:10684   */\n      sub\n        /* \"#utility.yul\":10660:10661   */\n      0x00\n        /* \"#utility.yul\":10649:10658   */\n      dup4\n        /* \"#utility.yul\":10645:10662   */\n      add\n        /* \"#utility.yul\":10638:10685   */\n      mstore\n        /* \"#utility.yul\":10702:10833   */\n      tag_245\n        /* \"#utility.yul\":10828:10832   */\n      dup2\n        /* \"#utility.yul\":10702:10833   */\n      tag_114\n      jump\t// in\n    tag_245:\n        /* \"#utility.yul\":10694:10833   */\n      swap1\n      pop\n        /* \"#utility.yul\":10421:10840   */\n      swap2\n      swap1\n      pop\n      jump\t// out\n        /* \"#utility.yul\":10846:11027   */\n    tag_115:\n        /* \"#utility.yul\":10986:11019   */\n      0x5072696365206d7573742062652067726561746572207468616e207a65726f00\n        /* \"#utility.yul\":10982:10983   */\n      0x00\n        /* \"#utility.yul\":10974:10980   */\n      dup3\n        /* \"#utility.yul\":10970:10984   */\n      add\n        /* \"#utility.yul\":10963:11020   */\n      mstore\n        /* \"#utility.yul\":10846:11027   */\n      pop\n      jump\t// out\n        /* \"#utility.yul\":11033:11399   */\n    tag_116:\n        /* \"#utility.yul\":11175:11178   */\n      0x00\n        /* \"#utility.yul\":11196:11263   */\n      tag_248\n        /* \"#utility.yul\":11260:11262   */\n      0x1f\n        /* \"#utility.yul\":11255:11258   */\n      dup4\n        /* \"#utility.yul\":11196:11263   */\n      tag_94\n      jump\t// in\n    tag_248:\n        /* \"#utility.yul\":11189:11263   */\n      swap2\n      pop\n        /* \"#utility.yul\":11272:11365   */\n      tag_249\n        /* \"#utility.yul\":11361:11364   */\n      dup3\n        /* \"#utility.yul\":11272:11365   */\n      tag_115\n      jump\t// in\n    tag_249:\n        /* \"#utility.yul\":11390:11392   */\n      0x20\n        /* \"#utility.yul\":11385:11388   */\n      dup3\n        /* \"#utility.yul\":11381:11393   */\n      add\n        /* \"#utility.yul\":11374:11393   */\n      swap1\n      pop\n        /* \"#utility.yul\":11033:11399   */\n      swap2\n      swap1\n      pop\n      jump\t// out\n        /* \"#utility.yul\":11405:11824   */\n    tag_60:\n        /* \"#utility.yul\":11571:11575   */\n      0x00\n        /* \"#utility.yul\":11609:11611   */\n      0x20\n        /* \"#utility.yul\":11598:11607   */\n      dup3\n        /* \"#utility.yul\":11594:11612   */\n      add\n        /* \"#utility.yul\":11586:11612   */\n      swap1\n      pop\n        /* \"#utility.yul\":11658:11667   */\n      dup2\n        /* \"#utility.yul\":11652:11656   */\n      dup2\n        /* \"#utility.yul\":11648:11668   */\n      sub\n        /* \"#utility.yul\":11644:11645   */\n      0x00\n        /* \"#utility.yul\":11633:11642   */\n      dup4\n        /* \"#utility.yul\":11629:11646   */\n      add\n        /* \"#utility.yul\":11622:11669   */\n      mstore\n        /* \"#utility.yul\":11686:11817   */\n      tag_251\n        /* \"#utility.yul\":11812:11816   */\n      dup2\n        /* \"#utility.yul\":11686:11817   */\n      tag_116\n      jump\t// in\n    tag_251:\n        /* \"#utility.yul\":11678:11817   */\n      swap1\n      pop\n        /* \"#utility.yul\":11405:11824   */\n      swap2\n      swap1\n      pop\n      jump\t// out\n        /* \"#utility.yul\":11830:12008   */\n    tag_117:\n        /* \"#utility.yul\":11970:12000   */\n      0x50726f64756374206e616d652063616e6e6f7420626520656d70747900000000\n        /* \"#utility.yul\":11966:11967   */\n      0x00\n        /* \"#utility.yul\":11958:11964   */\n      dup3\n        /* \"#utility.yul\":11954:11968   */\n      add\n        /* \"#utility.yul\":11947:12001   */\n      mstore\n        /* \"#utility.yul\":11830:12008   */\n      pop\n      jump\t// out\n        /* \"#utility.yul\":12014:12380   */\n    tag_118:\n        /* \"#utility.yul\":12156:12159   */\n      0x00\n        /* \"#utility.yul\":12177:12244   */\n      tag_254\n        /* \"#utility.yul\":12241:12243   */\n      0x1c\n        /* \"#utility.yul\":12236:12239   */\n      dup4\n        /* \"#utility.yul\":12177:12244   */\n      tag_94\n      jump\t// in\n    tag_254:\n        /* \"#utility.yul\":12170:12244   */\n      swap2\n      pop\n        /* \"#utility.yul\":12253:12346   */\n      tag_255\n        /* \"#utility.yul\":12342:12345   */\n      dup3\n        /* \"#utility.yul\":12253:12346   */\n      tag_117\n      jump\t// in\n    tag_255:\n        /* \"#utility.yul\":12371:12373   */\n      0x20\n        /* \"#utility.yul\":12366:12369   */\n      dup3\n        /* \"#utility.yul\":12362:12374   */\n      add\n        /* \"#utility.yul\":12355:12374   */\n      swap1\n      pop\n        /* \"#utility.yul\":12014:12380   */\n      swap2\n      swap1\n      pop\n      jump\t// out\n        /* \"#utility.yul\":12386:12805   */\n    tag_67:\n        /* \"#utility.yul\":12552:12556   */\n      0x00\n        /* \"#utility.yul\":12590:12592   */\n      0x20\n        /* \"#utility.yul\":12579:12588   */\n      dup3\n        /* \"#utility.yul\":12575:12593   */\n      add\n        /* \"#utility.yul\":12567:12593   */\n      swap1\n      pop\n        /* \"#utility.yul\":12639:12648   */\n      dup2\n        /* \"#utility.yul\":12633:12637   */\n      dup2\n        /* \"#utility.yul\":12629:12649   */\n      sub\n        /* \"#utility.yul\":12625:12626   */\n      0x00\n        /* \"#utility.yul\":12614:12623   */\n      dup4\n        /* \"#utility.yul\":12610:12627   */\n      add\n        /* \"#utility.yul\":12603:12650   */\n      mstore\n        /* \"#utility.yul\":12667:12798   */\n      tag_257\n        /* \"#utility.yul\":12793:12797   */\n      dup2\n        /* \"#utility.yul\":12667:12798   */\n      tag_118\n      jump\t// in\n    tag_257:\n        /* \"#utility.yul\":12659:12798   */\n      swap1\n      pop\n        /* \"#utility.yul\":12386:12805   */\n      swap2\n      swap1\n      pop\n      jump\t// out\n        /* \"#utility.yul\":12811:13037   */\n    tag_119:\n        /* \"#utility.yul\":12951:12985   */\n      0x50726f64756374207072696365206d7573742062652067726561746572207468\n        /* \"#utility.yul\":12947:12948   */\n      0x00\n        /* \"#utility.yul\":12939:12945   */\n      dup3\n        /* \"#utility.yul\":12935:12949   */\n      add\n        /* \"#utility.yul\":12928:12986   */\n      mstore\n        /* \"#utility.yul\":13020:13029   */\n      0x616e207a65726f00000000000000000000000000000000000000000000000000\n        /* \"#utility.yul\":13015:13017   */\n      0x20\n        /* \"#utility.yul\":13007:13013   */\n      dup3\n        /* \"#utility.yul\":13003:13018   */\n      add\n        /* \"#utility.yul\":12996:13030   */\n      mstore\n        /* \"#utility.yul\":12811:13037   */\n      pop\n      jump\t// out\n        /* \"#utility.yul\":13043:13409   */\n    tag_120:\n        /* \"#utility.yul\":13185:13188   */\n      0x00\n        /* \"#utility.yul\":13206:13273   */\n      tag_260\n        /* \"#utility.yul\":13270:13272   */\n      0x27\n        /* \"#utility.yul\":13265:13268   */\n      dup4\n        /* \"#utility.yul\":13206:13273   */\n      tag_94\n      jump\t// in\n    tag_260:\n        /* \"#utility.yul\":13199:13273   */\n      swap2\n      pop\n        /* \"#utility.yul\":13282:13375   */\n      tag_261\n        /* \"#utility.yul\":13371:13374   */\n      dup3\n        /* \"#utility.yul\":13282:13375   */\n      tag_119\n      jump\t// in\n    tag_261:\n        /* \"#utility.yul\":13400:13402   */\n      0x40\n        /* \"#utility.yul\":13395:13398   */\n      dup3\n        /* \"#utility.yul\":13391:13403   */\n      add\n        /* \"#utility.yul\":13384:13403   */\n      swap1\n      pop\n        /* \"#utility.yul\":13043:13409   */\n      swap2\n      swap1\n      pop\n      jump\t// out\n        /* \"#utility.yul\":13415:13834   */\n    tag_70:\n        /* \"#utility.yul\":13581:13585   */\n      0x00\n        /* \"#utility.yul\":13619:13621   */\n      0x20\n        /* \"#utility.yul\":13608:13617   */\n      dup3\n        /* \"#utility.yul\":13604:13622   */\n      add\n        /* \"#utility.yul\":13596:13622   */\n      swap1\n      pop\n        /* \"#utility.yul\":13668:13677   */\n      dup2\n        /* \"#utility.yul\":13662:13666   */\n      dup2\n        /* \"#utility.yul\":13658:13678   */\n      sub\n        /* \"#utility.yul\":13654:13655   */\n      0x00\n        /* \"#utility.yul\":13643:13652   */\n      dup4\n        /* \"#utility.yul\":13639:13656   */\n      add\n        /* \"#utility.yul\":13632:13679   */\n      mstore\n        /* \"#utility.yul\":13696:13827   */\n      tag_263\n        /* \"#utility.yul\":13822:13826   */\n      dup2\n        /* \"#utility.yul\":13696:13827   */\n      tag_120\n      jump\t// in\n    tag_263:\n        /* \"#utility.yul\":13688:13827   */\n      swap1\n      pop\n        /* \"#utility.yul\":13415:13834   */\n      swap2\n      swap1\n      pop\n      jump\t// out\n        /* \"#utility.yul\":13840:14020   */\n    tag_121:\n        /* \"#utility.yul\":13888:13965   */\n      0x4e487b7100000000000000000000000000000000000000000000000000000000\n        /* \"#utility.yul\":13885:13886   */\n      0x00\n        /* \"#utility.yul\":13878:13966   */\n      mstore\n        /* \"#utility.yul\":13985:13989   */\n      0x11\n        /* \"#utility.yul\":13982:13983   */\n      0x04\n        /* \"#utility.yul\":13975:13990   */\n      mstore\n        /* \"#utility.yul\":14009:14013   */\n      0x24\n        /* \"#utility.yul\":14006:14007   */\n      0x00\n        /* \"#utility.yul\":13999:14014   */\n      revert\n        /* \"#utility.yul\":14026:14259   */\n    tag_72:\n        /* \"#utility.yul\":14065:14068   */\n      0x00\n        /* \"#utility.yul\":14088:14112   */\n      tag_266\n        /* \"#utility.yul\":14106:14111   */\n      dup3\n        /* \"#utility.yul\":14088:14112   */\n      tag_85\n      jump\t// in\n    tag_266:\n        /* \"#utility.yul\":14079:14112   */\n      swap2\n      pop\n        /* \"#utility.yul\":14134:14200   */\n      0xffffffffffffffffffffffffffffffffffffffffffffffffffffffffffffffff\n        /* \"#utility.yul\":14127:14132   */\n      dup3\n        /* \"#utility.yul\":14124:14201   */\n      sub\n        /* \"#utility.yul\":14121:14224   */\n      tag_267\n      jumpi\n        /* \"#utility.yul\":14204:14222   */\n      tag_268\n      tag_121\n      jump\t// in\n    tag_268:\n        /* \"#utility.yul\":14121:14224   */\n    tag_267:\n        /* \"#utility.yul\":14251:14252   */\n      0x01\n        /* \"#utility.yul\":14244:14249   */\n      dup3\n        /* \"#utility.yul\":14240:14253   */\n      add\n        /* \"#utility.yul\":14233:14253   */\n      swap1\n      pop\n        /* \"#utility.yul\":14026:14259   */\n      swap2\n      swap1\n      pop\n      jump\t// out\n        /* \"#utility.yul\":14265:14406   */\n    tag_122:\n        /* \"#utility.yul\":14314:14318   */\n      0x00\n        /* \"#utility.yul\":14337:14340   */\n      dup2\n        /* \"#utility.yul\":14329:14340   */\n      swap1\n      pop\n        /* \"#utility.yul\":14360:14363   */\n      dup2\n        /* \"#utility.yul\":14357:14358   */\n      0x00\n        /* \"#utility.yul\":14350:14364   */\n      mstore\n        /* \"#utility.yul\":14394:14398   */\n      0x20\n        /* \"#utility.yul\":14391:14392   */\n      0x00\n        /* \"#utility.yul\":14381:14399   */\n      keccak256\n        /* \"#utility.yul\":14373:14399   */\n      swap1\n      pop\n        /* \"#utility.yul\":14265:14406   */\n      swap2\n      swap1\n      pop\n      jump\t// out\n        /* \"#utility.yul\":14412:14505   */\n    tag_123:\n        /* \"#utility.yul\":14449:14455   */\n      0x00\n        /* \"#utility.yul\":14496:14498   */\n      0x20\n        /* \"#utility.yul\":14491:14493   */\n      0x1f\n        /* \"#utility.yul\":14484:14489   */\n      dup4\n        /* \"#utility.yul\":14480:14494   */\n      add\n        /* \"#utility.yul\":14476:14499   */\n      div\n        /* \"#utility.yul\":14466:14499   */\n      swap1\n      pop\n        /* \"#utility.yul\":14412:14505   */\n      swap2\n      swap1\n      pop\n      jump\t// out\n        /* \"#utility.yul\":14511:14618   */\n    tag_124:\n        /* \"#utility.yul\":14555:14563   */\n      0x00\n        /* \"#utility.yul\":14605:14610   */\n      dup3\n        /* \"#utility.yul\":14599:14603   */\n      dup3\n        /* \"#utility.yul\":14595:14611   */\n      shl\n        /* \"#utility.yul\":14574:14611   */\n      swap1\n      pop\n        /* \"#utility.yul\":14511:14618   */\n      swap3\n      swap2\n      pop\n      pop\n      jump\t// out\n        /* \"#utility.yul\":14624:15017   */\n    tag_125:\n        /* \"#utility.yul\":14693:14699   */\n      0x00\n        /* \"#utility.yul\":14743:14744   */\n      0x08\n        /* \"#utility.yul\":14731:14741   */\n      dup4\n        /* \"#utility.yul\":14727:14745   */\n      mul\n        /* \"#utility.yul\":14766:14863   */\n      tag_273\n        /* \"#utility.yul\":14796:14862   */\n      0xffffffffffffffffffffffffffffffffffffffffffffffffffffffffffffffff\n        /* \"#utility.yul\":14785:14794   */\n      dup3\n        /* \"#utility.yul\":14766:14863   */\n      tag_124\n      jump\t// in\n    tag_273:\n        /* \"#utility.yul\":14884:14923   */\n      tag_274\n        /* \"#utility.yul\":14914:14922   */\n      dup7\n        /* \"#utility.yul\":14903:14912   */\n      dup4\n        /* \"#utility.yul\":14884:14923   */\n      tag_124\n      jump\t// in\n    tag_274:\n        /* \"#utility.yul\":14872:14923   */\n      swap6\n      pop\n        /* \"#utility.yul\":14956:14960   */\n      dup1\n        /* \"#utility.yul\":14952:14961   */\n      not\n        /* \"#utility.yul\":14945:14950   */\n      dup5\n        /* \"#utility.yul\":14941:14962   */\n      and\n        /* \"#utility.yul\":14932:14962   */\n      swap4\n      pop\n        /* \"#utility.yul\":15005:15009   */\n      dup1\n        /* \"#utility.yul\":14995:15003   */\n      dup7\n        /* \"#utility.yul\":14991:15010   */\n      and\n        /* \"#utility.yul\":14984:14989   */\n      dup5\n        /* \"#utility.yul\":14981:15011   */\n      or\n        /* \"#utility.yul\":14971:15011   */\n      swap3\n      pop\n        /* \"#utility.yul\":14700:15017   */\n      pop\n      pop\n        /* \"#utility.yul\":14624:15017   */\n      swap4\n      swap3\n      pop\n      pop\n      pop\n      jump\t// out\n        /* \"#utility.yul\":15023:15083   */\n    tag_126:\n        /* \"#utility.yul\":15051:15054   */\n      0x00\n        /* \"#utility.yul\":15072:15077   */\n      dup2\n        /* \"#utility.yul\":15065:15077   */\n      swap1\n      pop\n        /* \"#utility.yul\":15023:15083   */\n      swap2\n      swap1\n      pop\n      jump\t// out\n        /* \"#utility.yul\":15089:15231   */\n    tag_127:\n        /* \"#utility.yul\":15139:15148   */\n      0x00\n        /* \"#utility.yul\":15172:15225   */\n      tag_277\n        /* \"#utility.yul\":15190:15224   */\n      tag_278\n        /* \"#utility.yul\":15199:15223   */\n      tag_279\n        /* \"#utility.yul\":15217:15222   */\n      dup5\n        /* \"#utility.yul\":15199:15223   */\n      tag_85\n      jump\t// in\n    tag_279:\n        /* \"#utility.yul\":15190:15224   */\n      tag_126\n      jump\t// in\n    tag_278:\n        /* \"#utility.yul\":15172:15225   */\n      tag_85\n      jump\t// in\n    tag_277:\n        /* \"#utility.yul\":15159:15225   */\n      swap1\n      pop\n        /* \"#utility.yul\":15089:15231   */\n      swap2\n      swap1\n      pop\n      jump\t// out\n        /* \"#utility.yul\":15237:15312   */\n    tag_128:\n        /* \"#utility.yul\":15280:15283   */\n      0x00\n        /* \"#utility.yul\":15301:15306   */\n      dup2\n        /* \"#utility.yul\":15294:15306   */\n      swap1\n      pop\n        /* \"#utility.yul\":15237:15312   */\n      swap2\n      swap1\n      pop\n      jump\t// out\n        /* \"#utility.yul\":15318:15587   */\n    tag_129:\n        /* \"#utility.yul\":15428:15467   */\n      tag_282\n        /* \"#utility.yul\":15459:15466   */\n      dup4\n        /* \"#utility.yul\":15428:15467   */\n      tag_127\n      jump\t// in\n    tag_282:\n        /* \"#utility.yul\":15489:15580   */\n      tag_283\n        /* \"#utility.yul\":15538:15579   */\n      tag_284\n        /* \"#utility.yul\":15562:15578   */\n      dup3\n        /* \"#utility.yul\":15538:15579   */\n      tag_128\n      jump\t// in\n    tag_284:\n        /* \"#utility.yul\":15530:15536   */\n      dup5\n        /* \"#utility.yul\":15523:15527   */\n      dup5\n        /* \"#utility.yul\":15517:15528   */\n      sload\n        /* \"#utility.yul\":15489:15580   */\n      tag_125\n      jump\t// in\n    tag_283:\n        /* \"#utility.yul\":15483:15487   */\n      dup3\n        /* \"#utility.yul\":15476:15581   */\n      sstore\n        /* \"#utility.yul\":15394:15587   */\n      pop\n        /* \"#utility.yul\":15318:15587   */\n      pop\n      pop\n      pop\n      jump\t// out\n        /* \"#utility.yul\":15593:15666   */\n    tag_130:\n        /* \"#utility.yul\":15638:15641   */\n      0x00\n        /* \"#utility.yul\":15593:15666   */\n      swap1\n      jump\t// out\n        /* \"#utility.yul\":15672:15861   */\n    tag_131:\n        /* \"#utility.yul\":15749:15781   */\n      tag_287\n      tag_130\n      jump\t// in\n    tag_287:\n        /* \"#utility.yul\":15790:15855   */\n      tag_288\n        /* \"#utility.yul\":15848:15854   */\n      dup2\n        /* \"#utility.yul\":15840:15846   */\n      dup5\n        /* \"#utility.yul\":15834:15838   */\n      dup5\n        /* \"#utility.yul\":15790:15855   */\n      tag_129\n      jump\t// in\n    tag_288:\n        /* \"#utility.yul\":15725:15861   */\n      pop\n        /* \"#utility.yul\":15672:15861   */\n      pop\n      pop\n      jump\t// out\n        /* \"#utility.yul\":15867:16053   */\n    tag_132:\n        /* \"#utility.yul\":15927:16047   */\n    tag_290:\n        /* \"#utility.yul\":15944:15947   */\n      dup2\n        /* \"#utility.yul\":15937:15942   */\n      dup2\n        /* \"#utility.yul\":15934:15948   */\n      lt\n        /* \"#utility.yul\":15927:16047   */\n      iszero\n      tag_292\n      jumpi\n        /* \"#utility.yul\":15998:16037   */\n      tag_293\n        /* \"#utility.yul\":16035:16036   */\n      0x00\n        /* \"#utility.yul\":16028:16033   */\n      dup3\n        /* \"#utility.yul\":15998:16037   */\n      tag_131\n      jump\t// in\n    tag_293:\n        /* \"#utility.yul\":15971:15972   */\n      0x01\n        /* \"#utility.yul\":15964:15969   */\n      dup2\n        /* \"#utility.yul\":15960:15973   */\n      add\n        /* \"#utility.yul\":15951:15973   */\n      swap1\n      pop\n        /* \"#utility.yul\":15927:16047   */\n      jump(tag_290)\n    tag_292:\n        /* \"#utility.yul\":15867:16053   */\n      pop\n      pop\n      jump\t// out\n        /* \"#utility.yul\":16059:16602   */\n    tag_133:\n        /* \"#utility.yul\":16160:16162   */\n      0x1f\n        /* \"#utility.yul\":16155:16158   */\n      dup3\n        /* \"#utility.yul\":16152:16163   */\n      gt\n        /* \"#utility.yul\":16149:16595   */\n      iszero\n      tag_295\n      jumpi\n        /* \"#utility.yul\":16194:16232   */\n      tag_296\n        /* \"#utility.yul\":16226:16231   */\n      dup2\n        /* \"#utility.yul\":16194:16232   */\n      tag_122\n      jump\t// in\n    tag_296:\n        /* \"#utility.yul\":16278:16307   */\n      tag_297\n        /* \"#utility.yul\":16296:16306   */\n      dup5\n        /* \"#utility.yul\":16278:16307   */\n      tag_123\n      jump\t// in\n    tag_297:\n        /* \"#utility.yul\":16268:16276   */\n      dup2\n        /* \"#utility.yul\":16264:16308   */\n      add\n        /* \"#utility.yul\":16461:16463   */\n      0x20\n        /* \"#utility.yul\":16449:16459   */\n      dup6\n        /* \"#utility.yul\":16446:16464   */\n      lt\n        /* \"#utility.yul\":16443:16492   */\n      iszero\n      tag_298\n      jumpi\n        /* \"#utility.yul\":16482:16490   */\n      dup2\n        /* \"#utility.yul\":16467:16490   */\n      swap1\n      pop\n        /* \"#utility.yul\":16443:16492   */\n    tag_298:\n        /* \"#utility.yul\":16505:16585   */\n      tag_299\n        /* \"#utility.yul\":16561:16583   */\n      tag_300\n        /* \"#utility.yul\":16579:16582   */\n      dup6\n        /* \"#utility.yul\":16561:16583   */\n      tag_123\n      jump\t// in\n    tag_300:\n        /* \"#utility.yul\":16551:16559   */\n      dup4\n        /* \"#utility.yul\":16547:16584   */\n      add\n        /* \"#utility.yul\":16534:16545   */\n      dup3\n        /* \"#utility.yul\":16505:16585   */\n      tag_132\n      jump\t// in\n    tag_299:\n        /* \"#utility.yul\":16164:16595   */\n      pop\n      pop\n        /* \"#utility.yul\":16149:16595   */\n    tag_295:\n        /* \"#utility.yul\":16059:16602   */\n      pop\n      pop\n      pop\n      jump\t// out\n        /* \"#utility.yul\":16608:16725   */\n    tag_134:\n        /* \"#utility.yul\":16662:16670   */\n      0x00\n        /* \"#utility.yul\":16712:16717   */\n      dup3\n        /* \"#utility.yul\":16706:16710   */\n      dup3\n        /* \"#utility.yul\":16702:16718   */\n      shr\n        /* \"#utility.yul\":16681:16718   */\n      swap1\n      pop\n        /* \"#utility.yul\":16608:16725   */\n      swap3\n      swap2\n      pop\n      pop\n      jump\t// out\n        /* \"#utility.yul\":16731:16900   */\n    tag_135:\n        /* \"#utility.yul\":16775:16781   */\n      0x00\n        /* \"#utility.yul\":16808:16859   */\n      tag_303\n        /* \"#utility.yul\":16856:16857   */\n      0x00\n        /* \"#utility.yul\":16852:16858   */\n      not\n        /* \"#utility.yul\":16844:16849   */\n      dup5\n        /* \"#utility.yul\":16841:16842   */\n      0x08\n        /* \"#utility.yul\":16837:16850   */\n      mul\n        /* \"#utility.yul\":16808:16859   */\n      tag_134\n      jump\t// in\n    tag_303:\n        /* \"#utility.yul\":16804:16860   */\n      not\n        /* \"#utility.yul\":16889:16893   */\n      dup1\n        /* \"#utility.yul\":16883:16887   */\n      dup4\n        /* \"#utility.yul\":16879:16894   */\n      and\n        /* \"#utility.yul\":16869:16894   */\n      swap2\n      pop\n        /* \"#utility.yul\":16782:16900   */\n      pop\n        /* \"#utility.yul\":16731:16900   */\n      swap3\n      swap2\n      pop\n      pop\n      jump\t// out\n        /* \"#utility.yul\":16905:17200   */\n    tag_136:\n        /* \"#utility.yul\":16981:16985   */\n      0x00\n        /* \"#utility.yul\":17127:17156   */\n      tag_305\n        /* \"#utility.yul\":17152:17155   */\n      dup4\n        /* \"#utility.yul\":17146:17150   */\n      dup4\n        /* \"#utility.yul\":17127:17156   */\n      tag_135\n      jump\t// in\n    tag_305:\n        /* \"#utility.yul\":17119:17156   */\n      swap2\n      pop\n        /* \"#utility.yul\":17189:17192   */\n      dup3\n        /* \"#utility.yul\":17186:17187   */\n      0x02\n        /* \"#utility.yul\":17182:17193   */\n      mul\n        /* \"#utility.yul\":17176:17180   */\n      dup3\n        /* \"#utility.yul\":17173:17194   */\n      or\n        /* \"#utility.yul\":17165:17194   */\n      swap1\n      pop\n        /* \"#utility.yul\":16905:17200   */\n      swap3\n      swap2\n      pop\n      pop\n      jump\t// out\n        /* \"#utility.yul\":17205:18600   */\n    tag_74:\n        /* \"#utility.yul\":17322:17359   */\n      tag_307\n        /* \"#utility.yul\":17355:17358   */\n      dup3\n        /* \"#utility.yul\":17322:17359   */\n      tag_93\n      jump\t// in\n    tag_307:\n        /* \"#utility.yul\":17424:17442   */\n      0xffffffffffffffff\n        /* \"#utility.yul\":17416:17422   */\n      dup2\n        /* \"#utility.yul\":17413:17443   */\n      gt\n        /* \"#utility.yul\":17410:17466   */\n      iszero\n      tag_308\n      jumpi\n        /* \"#utility.yul\":17446:17464   */\n      tag_309\n      tag_101\n      jump\t// in\n    tag_309:\n        /* \"#utility.yul\":17410:17466   */\n    tag_308:\n        /* \"#utility.yul\":17490:17528   */\n      tag_310\n        /* \"#utility.yul\":17522:17526   */\n      dup3\n        /* \"#utility.yul\":17516:17527   */\n      sload\n        /* \"#utility.yul\":17490:17528   */\n      tag_44\n      jump\t// in\n    tag_310:\n        /* \"#utility.yul\":17575:17642   */\n      tag_311\n        /* \"#utility.yul\":17635:17641   */\n      dup3\n        /* \"#utility.yul\":17627:17633   */\n      dup3\n        /* \"#utility.yul\":17621:17625   */\n      dup6\n        /* \"#utility.yul\":17575:17642   */\n      tag_133\n      jump\t// in\n    tag_311:\n        /* \"#utility.yul\":17669:17670   */\n      0x00\n        /* \"#utility.yul\":17693:17697   */\n      0x20\n        /* \"#utility.yul\":17680:17697   */\n      swap1\n      pop\n        /* \"#utility.yul\":17725:17727   */\n      0x1f\n        /* \"#utility.yul\":17717:17723   */\n      dup4\n        /* \"#utility.yul\":17714:17728   */\n      gt\n        /* \"#utility.yul\":17742:17743   */\n      0x01\n        /* \"#utility.yul\":17737:18355   */\n      dup2\n      eq\n      tag_313\n      jumpi\n        /* \"#utility.yul\":18399:18400   */\n      0x00\n        /* \"#utility.yul\":18416:18422   */\n      dup5\n        /* \"#utility.yul\":18413:18490   */\n      iszero\n      tag_314\n      jumpi\n        /* \"#utility.yul\":18465:18474   */\n      dup3\n        /* \"#utility.yul\":18460:18463   */\n      dup8\n        /* \"#utility.yul\":18456:18475   */\n      add\n        /* \"#utility.yul\":18450:18476   */\n      mload\n        /* \"#utility.yul\":18441:18476   */\n      swap1\n      pop\n        /* \"#utility.yul\":18413:18490   */\n    tag_314:\n        /* \"#utility.yul\":18516:18583   */\n      tag_315\n        /* \"#utility.yul\":18576:18582   */\n      dup6\n        /* \"#utility.yul\":18569:18574   */\n      dup3\n        /* \"#utility.yul\":18516:18583   */\n      tag_136\n      jump\t// in\n    tag_315:\n        /* \"#utility.yul\":18510:18514   */\n      dup7\n        /* \"#utility.yul\":18503:18584   */\n      sstore\n        /* \"#utility.yul\":18372:18594   */\n      pop\n        /* \"#utility.yul\":17707:18594   */\n      jump(tag_312)\n        /* \"#utility.yul\":17737:18355   */\n    tag_313:\n        /* \"#utility.yul\":17789:17793   */\n      0x1f\n        /* \"#utility.yul\":17785:17794   */\n      not\n        /* \"#utility.yul\":17777:17783   */\n      dup5\n        /* \"#utility.yul\":17773:17795   */\n      and\n        /* \"#utility.yul\":17823:17860   */\n      tag_316\n        /* \"#utility.yul\":17855:17859   */\n      dup7\n        /* \"#utility.yul\":17823:17860   */\n      tag_122\n      jump\t// in\n    tag_316:\n        /* \"#utility.yul\":17882:17883   */\n      0x00\n        /* \"#utility.yul\":17896:18104   */\n    tag_317:\n        /* \"#utility.yul\":17910:17917   */\n      dup3\n        /* \"#utility.yul\":17907:17908   */\n      dup2\n        /* \"#utility.yul\":17904:17918   */\n      lt\n        /* \"#utility.yul\":17896:18104   */\n      iszero\n      tag_319\n      jumpi\n        /* \"#utility.yul\":17989:17998   */\n      dup5\n        /* \"#utility.yul\":17984:17987   */\n      dup10\n        /* \"#utility.yul\":17980:17999   */\n      add\n        /* \"#utility.yul\":17974:18000   */\n      mload\n        /* \"#utility.yul\":17966:17972   */\n      dup3\n        /* \"#utility.yul\":17959:18001   */\n      sstore\n        /* \"#utility.yul\":18040:18041   */\n      0x01\n        /* \"#utility.yul\":18032:18038   */\n      dup3\n        /* \"#utility.yul\":18028:18042   */\n      add\n        /* \"#utility.yul\":18018:18042   */\n      swap2\n      pop\n        /* \"#utility.yul\":18087:18089   */\n      0x20\n        /* \"#utility.yul\":18076:18085   */\n      dup6\n        /* \"#utility.yul\":18072:18090   */\n      add\n        /* \"#utility.yul\":18059:18090   */\n      swap5\n      pop\n        /* \"#utility.yul\":17933:17937   */\n      0x20\n        /* \"#utility.yul\":17930:17931   */\n      dup2\n        /* \"#utility.yul\":17926:17938   */\n      add\n        /* \"#utility.yul\":17921:17938   */\n      swap1\n      pop\n        /* \"#utility.yul\":17896:18104   */\n      jump(tag_317)\n    tag_319:\n        /* \"#utility.yul\":18132:18138   */\n      dup7\n        /* \"#utility.yul\":18123:18130   */\n      dup4\n        /* \"#utility.yul\":18120:18139   */\n      lt\n        /* \"#utility.yul\":18117:18296   */\n      iszero\n      tag_320\n      jumpi\n        /* \"#utility.yul\":18190:18199   */\n      dup5\n        /* \"#utility.yul\":18185:18188   */\n      dup10\n        /* \"#utility.yul\":18181:18200   */\n      add\n        /* \"#utility.yul\":18175:18201   */\n      mload\n        /* \"#utility.yul\":18233:18281   */\n      tag_321\n        /* \"#utility.yul\":18275:18279   */\n      0x1f\n        /* \"#utility.yul\":18267:18273   */\n      dup10\n        /* \"#utility.yul\":18263:18280   */\n      and\n        /* \"#utility.yul\":18252:18261   */\n      dup3\n        /* \"#utility.yul\":18233:18281   */\n      tag_135\n      jump\t// in\n    tag_321:\n        /* \"#utility.yul\":18225:18231   */\n      dup4\n        /* \"#utility.yul\":18218:18282   */\n      sstore\n        /* \"#utility.yul\":18140:18296   */\n      pop\n        /* \"#utility.yul\":18117:18296   */\n    tag_320:\n        /* \"#utility.yul\":18342:18343   */\n      0x01\n        /* \"#utility.yul\":18338:18339   */\n      0x02\n        /* \"#utility.yul\":18330:18336   */\n      dup9\n        /* \"#utility.yul\":18326:18340   */\n      mul\n        /* \"#utility.yul\":18322:18344   */\n      add\n        /* \"#utility.yul\":18316:18320   */\n      dup9\n        /* \"#utility.yul\":18309:18345   */\n      sstore\n        /* \"#utility.yul\":17744:18355   */\n      pop\n      pop\n      pop\n        /* \"#utility.yul\":17707:18594   */\n    tag_312:\n      pop\n        /* \"#utility.yul\":17297:18600   */\n      pop\n      pop\n      pop\n        /* \"#utility.yul\":17205:18600   */\n      pop\n      pop\n      jump\t// out\n        /* \"#utility.yul\":18606:18787   */\n    tag_137:\n        /* \"#utility.yul\":18746:18779   */\n      0x5265656e7472616e637947756172643a207265656e7472616e742063616c6c00\n        /* \"#utility.yul\":18742:18743   */\n      0x00\n        /* \"#utility.yul\":18734:18740   */\n      dup3\n        /* \"#utility.yul\":18730:18744   */\n      add\n        /* \"#utility.yul\":18723:18780   */\n      mstore\n        /* \"#utility.yul\":18606:18787   */\n      pop\n      jump\t// out\n        /* \"#utility.yul\":18793:19159   */\n    tag_138:\n        /* \"#utility.yul\":18935:18938   */\n      0x00\n        /* \"#utility.yul\":18956:19023   */\n      tag_324\n        /* \"#utility.yul\":19020:19022   */\n      0x1f\n        /* \"#utility.yul\":19015:19018   */\n      dup4\n        /* \"#utility.yul\":18956:19023   */\n      tag_94\n      jump\t// in\n    tag_324:\n        /* \"#utility.yul\":18949:19023   */\n      swap2\n      pop\n        /* \"#utility.yul\":19032:19125   */\n      tag_325\n        /* \"#utility.yul\":19121:19124   */\n      dup3\n        /* \"#utility.yul\":19032:19125   */\n      tag_137\n      jump\t// in\n    tag_325:\n        /* \"#utility.yul\":19150:19152   */\n      0x20\n        /* \"#utility.yul\":19145:19148   */\n      dup3\n        /* \"#utility.yul\":19141:19153   */\n      add\n        /* \"#utility.yul\":19134:19153   */\n      swap1\n      pop\n        /* \"#utility.yul\":18793:19159   */\n      swap2\n      swap1\n      pop\n      jump\t// out\n        /* \"#utility.yul\":19165:19584   */\n    tag_80:\n        /* \"#utility.yul\":19331:19335   */\n      0x00\n        /* \"#utility.yul\":19369:19371   */\n      0x20\n        /* \"#utility.yul\":19358:19367   */\n      dup3\n        /* \"#utility.yul\":19354:19372   */\n      add\n        /* \"#utility.yul\":19346:19372   */\n      swap1\n      pop\n        /* \"#utility.yul\":19418:19427   */\n      dup2\n        /* \"#utility.yul\":19412:19416   */\n      dup2\n        /* \"#utility.yul\":19408:19428   */\n      sub\n        /* \"#utility.yul\":19404:19405   */\n      0x00\n        /* \"#utility.yul\":19393:19402   */\n      dup4\n        /* \"#utility.yul\":19389:19406   */\n      add\n        /* \"#utility.yul\":19382:19429   */\n      mstore\n        /* \"#utility.yul\":19446:19577   */\n      tag_327\n        /* \"#utility.yul\":19572:19576   */\n      dup2\n        /* \"#utility.yul\":19446:19577   */\n      tag_138\n      jump\t// in\n    tag_327:\n        /* \"#utility.yul\":19438:19577   */\n      swap1\n      pop\n        /* \"#utility.yul\":19165:19584   */\n      swap2\n      swap1\n      pop\n      jump\t// out\n\n    auxdata: 0xa2646970667358221220b2539c759d7dda191ba3ddb8a466c0758d4305c2cdf020fa75555b74a80ab14464736f6c634300081a0033\n}\n",
				"bytecode": {
					"linkReferences": {},
					"object": "6080604052348015600e575f80fd5b5060015f819055505f6002819055506111078061002a5f395ff3fe608060405234801561000f575f80fd5b5060043610610055575f3560e01c806329507f73146100595780637acc0b201461007557806382367b2d146100a85780638c96091b146100c4578063e0f6ef87146100e0575b5f80fd5b610073600480360381019061006e919061072c565b6100fe565b005b61008f600480360381019061008a919061076a565b610255565b60405161009f9493929190610823565b60405180910390f35b6100c260048036038101906100bd919061086d565b610326565b005b6100de60048036038101906100d991906109d7565b610486565b005b6100e8610632565b6040516100f59190610a31565b60405180910390f35b610106610638565b5f8211801561011757506002548211155b610156576040517f08c379a000000000000000000000000000000000000000000000000000000000815260040161014d90610a94565b60405180910390fd5b3373ffffffffffffffffffffffffffffffffffffffff1660015f8481526020019081526020015f206003015f9054906101000a900473ffffffffffffffffffffffffffffffffffffffff1673ffffffffffffffffffffffffffffffffffffffff16146101f7576040517f08c379a00000000000000000000000000000000000000000000000000000000081526004016101ee90610b22565b60405180910390fd5b8060015f8481526020019081526020015f206003015f6101000a81548173ffffffffffffffffffffffffffffffffffffffff021916908373ffffffffffffffffffffffffffffffffffffffff160217905550610251610685565b5050565b6001602052805f5260405f205f91509050805f01549080600101805461027a90610b6d565b80601f01602080910402602001604051908101604052809291908181526020018280546102a690610b6d565b80156102f15780601f106102c8576101008083540402835291602001916102f1565b820191905f5260205f20905b8154815290600101906020018083116102d457829003601f168201915b505050505090806002015490806003015f9054906101000a900473ffffffffffffffffffffffffffffffffffffffff16905084565b61032e610638565b5f8211801561033f57506002548211155b61037e576040517f08c379a000000000000000000000000000000000000000000000000000000000815260040161037590610a94565b60405180910390fd5b3373ffffffffffffffffffffffffffffffffffffffff1660015f8481526020019081526020015f206003015f9054906101000a900473ffffffffffffffffffffffffffffffffffffffff1673ffffffffffffffffffffffffffffffffffffffff161461041f576040517f08c379a000000000000000000000000000000000000000000000000000000000815260040161041690610c0d565b60405180910390fd5b5f8111610461576040517f08c379a000000000000000000000000000000000000000000000000000000000815260040161045890610c75565b60405180910390fd5b8060015f8481526020019081526020015f2060020181905550610482610685565b5050565b61048e610638565b5f8251116104d1576040517f08c379a00000000000000000000000000000000000000000000000000000000081526004016104c890610cdd565b60405180910390fd5b5f8111610513576040517f08c379a000000000000000000000000000000000000000000000000000000000815260040161050a90610d6b565b60405180910390fd5b60025f81548092919061052590610db6565b9190505550604051806080016040528060025481526020018381526020018281526020013373ffffffffffffffffffffffffffffffffffffffff1681525060015f60025481526020019081526020015f205f820151815f015560208201518160010190816105939190610f9a565b50604082015181600201556060820151816003015f6101000a81548173ffffffffffffffffffffffffffffffffffffffff021916908373ffffffffffffffffffffffffffffffffffffffff1602179055509050507f1a8bfa80b90d0a150d945c6b1acf7d4253e76b8cc6ace1ac1793351fa2d50b8d60025483833360405161061e9493929190610823565b60405180910390a161062e610685565b5050565b60025481565b60025f540361067c576040517f08c379a0000000000000000000000000000000000000000000000000000000008152600401610673906110b3565b60405180910390fd5b60025f81905550565b60015f81905550565b5f604051905090565b5f80fd5b5f80fd5b5f819050919050565b6106b18161069f565b81146106bb575f80fd5b50565b5f813590506106cc816106a8565b92915050565b5f73ffffffffffffffffffffffffffffffffffffffff82169050919050565b5f6106fb826106d2565b9050919050565b61070b816106f1565b8114610715575f80fd5b50565b5f8135905061072681610702565b92915050565b5f806040838503121561074257610741610697565b5b5f61074f858286016106be565b925050602061076085828601610718565b9150509250929050565b5f6020828403121561077f5761077e610697565b5b5f61078c848285016106be565b91505092915050565b61079e8161069f565b82525050565b5f81519050919050565b5f82825260208201905092915050565b8281835e5f83830152505050565b5f601f19601f8301169050919050565b5f6107e6826107a4565b6107f081856107ae565b93506108008185602086016107be565b610809816107cc565b840191505092915050565b61081d816106f1565b82525050565b5f6080820190506108365f830187610795565b818103602083015261084881866107dc565b90506108576040830185610795565b6108646060830184610814565b95945050505050565b5f806040838503121561088357610882610697565b5b5f610890858286016106be565b92505060206108a1858286016106be565b9150509250929050565b5f80fd5b5f80fd5b7f4e487b71000000000000000000000000000000000000000000000000000000005f52604160045260245ffd5b6108e9826107cc565b810181811067ffffffffffffffff82111715610908576109076108b3565b5b80604052505050565b5f61091a61068e565b905061092682826108e0565b919050565b5f67ffffffffffffffff821115610945576109446108b3565b5b61094e826107cc565b9050602081019050919050565b828183375f83830152505050565b5f61097b6109768461092b565b610911565b905082815260208101848484011115610997576109966108af565b5b6109a284828561095b565b509392505050565b5f82601f8301126109be576109bd6108ab565b5b81356109ce848260208601610969565b91505092915050565b5f80604083850312156109ed576109ec610697565b5b5f83013567ffffffffffffffff811115610a0a57610a0961069b565b5b610a16858286016109aa565b9250506020610a27858286016106be565b9150509250929050565b5f602082019050610a445f830184610795565b92915050565b7f50726f6475637420646f6573206e6f74206578697374000000000000000000005f82015250565b5f610a7e6016836107ae565b9150610a8982610a4a565b602082019050919050565b5f6020820190508181035f830152610aab81610a72565b9050919050565b7f4f6e6c7920746865206f776e65722063616e207472616e73666572206f776e655f8201527f7273686970000000000000000000000000000000000000000000000000000000602082015250565b5f610b0c6025836107ae565b9150610b1782610ab2565b604082019050919050565b5f6020820190508181035f830152610b3981610b00565b9050919050565b7f4e487b71000000000000000000000000000000000000000000000000000000005f52602260045260245ffd5b5f6002820490506001821680610b8457607f821691505b602082108103610b9757610b96610b40565b5b50919050565b7f4f6e6c7920746865206f776e65722063616e20757064617465207468652070725f8201527f6963650000000000000000000000000000000000000000000000000000000000602082015250565b5f610bf76023836107ae565b9150610c0282610b9d565b604082019050919050565b5f6020820190508181035f830152610c2481610beb565b9050919050565b7f5072696365206d7573742062652067726561746572207468616e207a65726f005f82015250565b5f610c5f601f836107ae565b9150610c6a82610c2b565b602082019050919050565b5f6020820190508181035f830152610c8c81610c53565b9050919050565b7f50726f64756374206e616d652063616e6e6f7420626520656d707479000000005f82015250565b5f610cc7601c836107ae565b9150610cd282610c93565b602082019050919050565b5f6020820190508181035f830152610cf481610cbb565b9050919050565b7f50726f64756374207072696365206d75737420626520677265617465722074685f8201527f616e207a65726f00000000000000000000000000000000000000000000000000602082015250565b5f610d556027836107ae565b9150610d6082610cfb565b604082019050919050565b5f6020820190508181035f830152610d8281610d49565b9050919050565b7f4e487b71000000000000000000000000000000000000000000000000000000005f52601160045260245ffd5b5f610dc08261069f565b91507fffffffffffffffffffffffffffffffffffffffffffffffffffffffffffffffff8203610df257610df1610d89565b5b600182019050919050565b5f819050815f5260205f209050919050565b5f6020601f8301049050919050565b5f82821b905092915050565b5f60088302610e597fffffffffffffffffffffffffffffffffffffffffffffffffffffffffffffffff82610e1e565b610e638683610e1e565b95508019841693508086168417925050509392505050565b5f819050919050565b5f610e9e610e99610e948461069f565b610e7b565b61069f565b9050919050565b5f819050919050565b610eb783610e84565b610ecb610ec382610ea5565b848454610e2a565b825550505050565b5f90565b610edf610ed3565b610eea818484610eae565b505050565b5b81811015610f0d57610f025f82610ed7565b600181019050610ef0565b5050565b601f821115610f5257610f2381610dfd565b610f2c84610e0f565b81016020851015610f3b578190505b610f4f610f4785610e0f565b830182610eef565b50505b505050565b5f82821c905092915050565b5f610f725f1984600802610f57565b1980831691505092915050565b5f610f8a8383610f63565b9150826002028217905092915050565b610fa3826107a4565b67ffffffffffffffff811115610fbc57610fbb6108b3565b5b610fc68254610b6d565b610fd1828285610f11565b5f60209050601f831160018114611002575f8415610ff0578287015190505b610ffa8582610f7f565b865550611061565b601f19841661101086610dfd565b5f5b8281101561103757848901518255600182019150602085019450602081019050611012565b868310156110545784890151611050601f891682610f63565b8355505b6001600288020188555050505b505050505050565b7f5265656e7472616e637947756172643a207265656e7472616e742063616c6c005f82015250565b5f61109d601f836107ae565b91506110a882611069565b602082019050919050565b5f6020820190508181035f8301526110ca81611091565b905091905056fea2646970667358221220b2539c759d7dda191ba3ddb8a466c0758d4305c2cdf020fa75555b74a80ab14464736f6c634300081a0033",
					"opcodes": "PUSH1 0x80 PUSH1 0x40 MSTORE CALLVALUE DUP1 ISZERO PUSH1 0xE JUMPI PUSH0 DUP1 REVERT JUMPDEST POP PUSH1 0x1 PUSH0 DUP2 SWAP1 SSTORE POP PUSH0 PUSH1 0x2 DUP2 SWAP1 SSTORE POP PUSH2 0x1107 DUP1 PUSH2 0x2A PUSH0 CODECOPY PUSH0 RETURN INVALID PUSH1 0x80 PUSH1 0x40 MSTORE CALLVALUE DUP1 ISZERO PUSH2 0xF JUMPI PUSH0 DUP1 REVERT JUMPDEST POP PUSH1 0x4 CALLDATASIZE LT PUSH2 0x55 JUMPI PUSH0 CALLDATALOAD PUSH1 0xE0 SHR DUP1 PUSH4 0x29507F73 EQ PUSH2 0x59 JUMPI DUP1 PUSH4 0x7ACC0B20 EQ PUSH2 0x75 JUMPI DUP1 PUSH4 0x82367B2D EQ PUSH2 0xA8 JUMPI DUP1 PUSH4 0x8C96091B EQ PUSH2 0xC4 JUMPI DUP1 PUSH4 0xE0F6EF87 EQ PUSH2 0xE0 JUMPI JUMPDEST PUSH0 DUP1 REVERT JUMPDEST PUSH2 0x73 PUSH1 0x4 DUP1 CALLDATASIZE SUB DUP2 ADD SWAP1 PUSH2 0x6E SWAP2 SWAP1 PUSH2 0x72C JUMP JUMPDEST PUSH2 0xFE JUMP JUMPDEST STOP JUMPDEST PUSH2 0x8F PUSH1 0x4 DUP1 CALLDATASIZE SUB DUP2 ADD SWAP1 PUSH2 0x8A SWAP2 SWAP1 PUSH2 0x76A JUMP JUMPDEST PUSH2 0x255 JUMP JUMPDEST PUSH1 0x40 MLOAD PUSH2 0x9F SWAP5 SWAP4 SWAP3 SWAP2 SWAP1 PUSH2 0x823 JUMP JUMPDEST PUSH1 0x40 MLOAD DUP1 SWAP2 SUB SWAP1 RETURN JUMPDEST PUSH2 0xC2 PUSH1 0x4 DUP1 CALLDATASIZE SUB DUP2 ADD SWAP1 PUSH2 0xBD SWAP2 SWAP1 PUSH2 0x86D JUMP JUMPDEST PUSH2 0x326 JUMP JUMPDEST STOP JUMPDEST PUSH2 0xDE PUSH1 0x4 DUP1 CALLDATASIZE SUB DUP2 ADD SWAP1 PUSH2 0xD9 SWAP2 SWAP1 PUSH2 0x9D7 JUMP JUMPDEST PUSH2 0x486 JUMP JUMPDEST STOP JUMPDEST PUSH2 0xE8 PUSH2 0x632 JUMP JUMPDEST PUSH1 0x40 MLOAD PUSH2 0xF5 SWAP2 SWAP1 PUSH2 0xA31 JUMP JUMPDEST PUSH1 0x40 MLOAD DUP1 SWAP2 SUB SWAP1 RETURN JUMPDEST PUSH2 0x106 PUSH2 0x638 JUMP JUMPDEST PUSH0 DUP3 GT DUP1 ISZERO PUSH2 0x117 JUMPI POP PUSH1 0x2 SLOAD DUP3 GT ISZERO JUMPDEST PUSH2 0x156 JUMPI PUSH1 0x40 MLOAD PUSH32 0x8C379A000000000000000000000000000000000000000000000000000000000 DUP2 MSTORE PUSH1 0x4 ADD PUSH2 0x14D SWAP1 PUSH2 0xA94 JUMP JUMPDEST PUSH1 0x40 MLOAD DUP1 SWAP2 SUB SWAP1 REVERT JUMPDEST CALLER PUSH20 0xFFFFFFFFFFFFFFFFFFFFFFFFFFFFFFFFFFFFFFFF AND PUSH1 0x1 PUSH0 DUP5 DUP2 MSTORE PUSH1 0x20 ADD SWAP1 DUP2 MSTORE PUSH1 0x20 ADD PUSH0 KECCAK256 PUSH1 0x3 ADD PUSH0 SWAP1 SLOAD SWAP1 PUSH2 0x100 EXP SWAP1 DIV PUSH20 0xFFFFFFFFFFFFFFFFFFFFFFFFFFFFFFFFFFFFFFFF AND PUSH20 0xFFFFFFFFFFFFFFFFFFFFFFFFFFFFFFFFFFFFFFFF AND EQ PUSH2 0x1F7 JUMPI PUSH1 0x40 MLOAD PUSH32 0x8C379A000000000000000000000000000000000000000000000000000000000 DUP2 MSTORE PUSH1 0x4 ADD PUSH2 0x1EE SWAP1 PUSH2 0xB22 JUMP JUMPDEST PUSH1 0x40 MLOAD DUP1 SWAP2 SUB SWAP1 REVERT JUMPDEST DUP1 PUSH1 0x1 PUSH0 DUP5 DUP2 MSTORE PUSH1 0x20 ADD SWAP1 DUP2 MSTORE PUSH1 0x20 ADD PUSH0 KECCAK256 PUSH1 0x3 ADD PUSH0 PUSH2 0x100 EXP DUP2 SLOAD DUP2 PUSH20 0xFFFFFFFFFFFFFFFFFFFFFFFFFFFFFFFFFFFFFFFF MUL NOT AND SWAP1 DUP4 PUSH20 0xFFFFFFFFFFFFFFFFFFFFFFFFFFFFFFFFFFFFFFFF AND MUL OR SWAP1 SSTORE POP PUSH2 0x251 PUSH2 0x685 JUMP JUMPDEST POP POP JUMP JUMPDEST PUSH1 0x1 PUSH1 0x20 MSTORE DUP1 PUSH0 MSTORE PUSH1 0x40 PUSH0 KECCAK256 PUSH0 SWAP2 POP SWAP1 POP DUP1 PUSH0 ADD SLOAD SWAP1 DUP1 PUSH1 0x1 ADD DUP1 SLOAD PUSH2 0x27A SWAP1 PUSH2 0xB6D JUMP JUMPDEST DUP1 PUSH1 0x1F ADD PUSH1 0x20 DUP1 SWAP2 DIV MUL PUSH1 0x20 ADD PUSH1 0x40 MLOAD SWAP1 DUP2 ADD PUSH1 0x40 MSTORE DUP1 SWAP3 SWAP2 SWAP1 DUP2 DUP2 MSTORE PUSH1 0x20 ADD DUP3 DUP1 SLOAD PUSH2 0x2A6 SWAP1 PUSH2 0xB6D JUMP JUMPDEST DUP1 ISZERO PUSH2 0x2F1 JUMPI DUP1 PUSH1 0x1F LT PUSH2 0x2C8 JUMPI PUSH2 0x100 DUP1 DUP4 SLOAD DIV MUL DUP4 MSTORE SWAP2 PUSH1 0x20 ADD SWAP2 PUSH2 0x2F1 JUMP JUMPDEST DUP3 ADD SWAP2 SWAP1 PUSH0 MSTORE PUSH1 0x20 PUSH0 KECCAK256 SWAP1 JUMPDEST DUP2 SLOAD DUP2 MSTORE SWAP1 PUSH1 0x1 ADD SWAP1 PUSH1 0x20 ADD DUP1 DUP4 GT PUSH2 0x2D4 JUMPI DUP3 SWAP1 SUB PUSH1 0x1F AND DUP3 ADD SWAP2 JUMPDEST POP POP POP POP POP SWAP1 DUP1 PUSH1 0x2 ADD SLOAD SWAP1 DUP1 PUSH1 0x3 ADD PUSH0 SWAP1 SLOAD SWAP1 PUSH2 0x100 EXP SWAP1 DIV PUSH20 0xFFFFFFFFFFFFFFFFFFFFFFFFFFFFFFFFFFFFFFFF AND SWAP1 POP DUP5 JUMP JUMPDEST PUSH2 0x32E PUSH2 0x638 JUMP JUMPDEST PUSH0 DUP3 GT DUP1 ISZERO PUSH2 0x33F JUMPI POP PUSH1 0x2 SLOAD DUP3 GT ISZERO JUMPDEST PUSH2 0x37E JUMPI PUSH1 0x40 MLOAD PUSH32 0x8C379A000000000000000000000000000000000000000000000000000000000 DUP2 MSTORE PUSH1 0x4 ADD PUSH2 0x375 SWAP1 PUSH2 0xA94 JUMP JUMPDEST PUSH1 0x40 MLOAD DUP1 SWAP2 SUB SWAP1 REVERT JUMPDEST CALLER PUSH20 0xFFFFFFFFFFFFFFFFFFFFFFFFFFFFFFFFFFFFFFFF AND PUSH1 0x1 PUSH0 DUP5 DUP2 MSTORE PUSH1 0x20 ADD SWAP1 DUP2 MSTORE PUSH1 0x20 ADD PUSH0 KECCAK256 PUSH1 0x3 ADD PUSH0 SWAP1 SLOAD SWAP1 PUSH2 0x100 EXP SWAP1 DIV PUSH20 0xFFFFFFFFFFFFFFFFFFFFFFFFFFFFFFFFFFFFFFFF AND PUSH20 0xFFFFFFFFFFFFFFFFFFFFFFFFFFFFFFFFFFFFFFFF AND EQ PUSH2 0x41F JUMPI PUSH1 0x40 MLOAD PUSH32 0x8C379A000000000000000000000000000000000000000000000000000000000 DUP2 MSTORE PUSH1 0x4 ADD PUSH2 0x416 SWAP1 PUSH2 0xC0D JUMP JUMPDEST PUSH1 0x40 MLOAD DUP1 SWAP2 SUB SWAP1 REVERT JUMPDEST PUSH0 DUP2 GT PUSH2 0x461 JUMPI PUSH1 0x40 MLOAD PUSH32 0x8C379A000000000000000000000000000000000000000000000000000000000 DUP2 MSTORE PUSH1 0x4 ADD PUSH2 0x458 SWAP1 PUSH2 0xC75 JUMP JUMPDEST PUSH1 0x40 MLOAD DUP1 SWAP2 SUB SWAP1 REVERT JUMPDEST DUP1 PUSH1 0x1 PUSH0 DUP5 DUP2 MSTORE PUSH1 0x20 ADD SWAP1 DUP2 MSTORE PUSH1 0x20 ADD PUSH0 KECCAK256 PUSH1 0x2 ADD DUP2 SWAP1 SSTORE POP PUSH2 0x482 PUSH2 0x685 JUMP JUMPDEST POP POP JUMP JUMPDEST PUSH2 0x48E PUSH2 0x638 JUMP JUMPDEST PUSH0 DUP3 MLOAD GT PUSH2 0x4D1 JUMPI PUSH1 0x40 MLOAD PUSH32 0x8C379A000000000000000000000000000000000000000000000000000000000 DUP2 MSTORE PUSH1 0x4 ADD PUSH2 0x4C8 SWAP1 PUSH2 0xCDD JUMP JUMPDEST PUSH1 0x40 MLOAD DUP1 SWAP2 SUB SWAP1 REVERT JUMPDEST PUSH0 DUP2 GT PUSH2 0x513 JUMPI PUSH1 0x40 MLOAD PUSH32 0x8C379A000000000000000000000000000000000000000000000000000000000 DUP2 MSTORE PUSH1 0x4 ADD PUSH2 0x50A SWAP1 PUSH2 0xD6B JUMP JUMPDEST PUSH1 0x40 MLOAD DUP1 SWAP2 SUB SWAP1 REVERT JUMPDEST PUSH1 0x2 PUSH0 DUP2 SLOAD DUP1 SWAP3 SWAP2 SWAP1 PUSH2 0x525 SWAP1 PUSH2 0xDB6 JUMP JUMPDEST SWAP2 SWAP1 POP SSTORE POP PUSH1 0x40 MLOAD DUP1 PUSH1 0x80 ADD PUSH1 0x40 MSTORE DUP1 PUSH1 0x2 SLOAD DUP2 MSTORE PUSH1 0x20 ADD DUP4 DUP2 MSTORE PUSH1 0x20 ADD DUP3 DUP2 MSTORE PUSH1 0x20 ADD CALLER PUSH20 0xFFFFFFFFFFFFFFFFFFFFFFFFFFFFFFFFFFFFFFFF AND DUP2 MSTORE POP PUSH1 0x1 PUSH0 PUSH1 0x2 SLOAD DUP2 MSTORE PUSH1 0x20 ADD SWAP1 DUP2 MSTORE PUSH1 0x20 ADD PUSH0 KECCAK256 PUSH0 DUP3 ADD MLOAD DUP2 PUSH0 ADD SSTORE PUSH1 0x20 DUP3 ADD MLOAD DUP2 PUSH1 0x1 ADD SWAP1 DUP2 PUSH2 0x593 SWAP2 SWAP1 PUSH2 0xF9A JUMP JUMPDEST POP PUSH1 0x40 DUP3 ADD MLOAD DUP2 PUSH1 0x2 ADD SSTORE PUSH1 0x60 DUP3 ADD MLOAD DUP2 PUSH1 0x3 ADD PUSH0 PUSH2 0x100 EXP DUP2 SLOAD DUP2 PUSH20 0xFFFFFFFFFFFFFFFFFFFFFFFFFFFFFFFFFFFFFFFF MUL NOT AND SWAP1 DUP4 PUSH20 0xFFFFFFFFFFFFFFFFFFFFFFFFFFFFFFFFFFFFFFFF AND MUL OR SWAP1 SSTORE POP SWAP1 POP POP PUSH32 0x1A8BFA80B90D0A150D945C6B1ACF7D4253E76B8CC6ACE1AC1793351FA2D50B8D PUSH1 0x2 SLOAD DUP4 DUP4 CALLER PUSH1 0x40 MLOAD PUSH2 0x61E SWAP5 SWAP4 SWAP3 SWAP2 SWAP1 PUSH2 0x823 JUMP JUMPDEST PUSH1 0x40 MLOAD DUP1 SWAP2 SUB SWAP1 LOG1 PUSH2 0x62E PUSH2 0x685 JUMP JUMPDEST POP POP JUMP JUMPDEST PUSH1 0x2 SLOAD DUP2 JUMP JUMPDEST PUSH1 0x2 PUSH0 SLOAD SUB PUSH2 0x67C JUMPI PUSH1 0x40 MLOAD PUSH32 0x8C379A000000000000000000000000000000000000000000000000000000000 DUP2 MSTORE PUSH1 0x4 ADD PUSH2 0x673 SWAP1 PUSH2 0x10B3 JUMP JUMPDEST PUSH1 0x40 MLOAD DUP1 SWAP2 SUB SWAP1 REVERT JUMPDEST PUSH1 0x2 PUSH0 DUP2 SWAP1 SSTORE POP JUMP JUMPDEST PUSH1 0x1 PUSH0 DUP2 SWAP1 SSTORE POP JUMP JUMPDEST PUSH0 PUSH1 0x40 MLOAD SWAP1 POP SWAP1 JUMP JUMPDEST PUSH0 DUP1 REVERT JUMPDEST PUSH0 DUP1 REVERT JUMPDEST PUSH0 DUP2 SWAP1 POP SWAP2 SWAP1 POP JUMP JUMPDEST PUSH2 0x6B1 DUP2 PUSH2 0x69F JUMP JUMPDEST DUP2 EQ PUSH2 0x6BB JUMPI PUSH0 DUP1 REVERT JUMPDEST POP JUMP JUMPDEST PUSH0 DUP2 CALLDATALOAD SWAP1 POP PUSH2 0x6CC DUP2 PUSH2 0x6A8 JUMP JUMPDEST SWAP3 SWAP2 POP POP JUMP JUMPDEST PUSH0 PUSH20 0xFFFFFFFFFFFFFFFFFFFFFFFFFFFFFFFFFFFFFFFF DUP3 AND SWAP1 POP SWAP2 SWAP1 POP JUMP JUMPDEST PUSH0 PUSH2 0x6FB DUP3 PUSH2 0x6D2 JUMP JUMPDEST SWAP1 POP SWAP2 SWAP1 POP JUMP JUMPDEST PUSH2 0x70B DUP2 PUSH2 0x6F1 JUMP JUMPDEST DUP2 EQ PUSH2 0x715 JUMPI PUSH0 DUP1 REVERT JUMPDEST POP JUMP JUMPDEST PUSH0 DUP2 CALLDATALOAD SWAP1 POP PUSH2 0x726 DUP2 PUSH2 0x702 JUMP JUMPDEST SWAP3 SWAP2 POP POP JUMP JUMPDEST PUSH0 DUP1 PUSH1 0x40 DUP4 DUP6 SUB SLT ISZERO PUSH2 0x742 JUMPI PUSH2 0x741 PUSH2 0x697 JUMP JUMPDEST JUMPDEST PUSH0 PUSH2 0x74F DUP6 DUP3 DUP7 ADD PUSH2 0x6BE JUMP JUMPDEST SWAP3 POP POP PUSH1 0x20 PUSH2 0x760 DUP6 DUP3 DUP7 ADD PUSH2 0x718 JUMP JUMPDEST SWAP2 POP POP SWAP3 POP SWAP3 SWAP1 POP JUMP JUMPDEST PUSH0 PUSH1 0x20 DUP3 DUP5 SUB SLT ISZERO PUSH2 0x77F JUMPI PUSH2 0x77E PUSH2 0x697 JUMP JUMPDEST JUMPDEST PUSH0 PUSH2 0x78C DUP5 DUP3 DUP6 ADD PUSH2 0x6BE JUMP JUMPDEST SWAP2 POP POP SWAP3 SWAP2 POP POP JUMP JUMPDEST PUSH2 0x79E DUP2 PUSH2 0x69F JUMP JUMPDEST DUP3 MSTORE POP POP JUMP JUMPDEST PUSH0 DUP2 MLOAD SWAP1 POP SWAP2 SWAP1 POP JUMP JUMPDEST PUSH0 DUP3 DUP3 MSTORE PUSH1 0x20 DUP3 ADD SWAP1 POP SWAP3 SWAP2 POP POP JUMP JUMPDEST DUP3 DUP2 DUP4 MCOPY PUSH0 DUP4 DUP4 ADD MSTORE POP POP POP JUMP JUMPDEST PUSH0 PUSH1 0x1F NOT PUSH1 0x1F DUP4 ADD AND SWAP1 POP SWAP2 SWAP1 POP JUMP JUMPDEST PUSH0 PUSH2 0x7E6 DUP3 PUSH2 0x7A4 JUMP JUMPDEST PUSH2 0x7F0 DUP2 DUP6 PUSH2 0x7AE JUMP JUMPDEST SWAP4 POP PUSH2 0x800 DUP2 DUP6 PUSH1 0x20 DUP7 ADD PUSH2 0x7BE JUMP JUMPDEST PUSH2 0x809 DUP2 PUSH2 0x7CC JUMP JUMPDEST DUP5 ADD SWAP2 POP POP SWAP3 SWAP2 POP POP JUMP JUMPDEST PUSH2 0x81D DUP2 PUSH2 0x6F1 JUMP JUMPDEST DUP3 MSTORE POP POP JUMP JUMPDEST PUSH0 PUSH1 0x80 DUP3 ADD SWAP1 POP PUSH2 0x836 PUSH0 DUP4 ADD DUP8 PUSH2 0x795 JUMP JUMPDEST DUP2 DUP2 SUB PUSH1 0x20 DUP4 ADD MSTORE PUSH2 0x848 DUP2 DUP7 PUSH2 0x7DC JUMP JUMPDEST SWAP1 POP PUSH2 0x857 PUSH1 0x40 DUP4 ADD DUP6 PUSH2 0x795 JUMP JUMPDEST PUSH2 0x864 PUSH1 0x60 DUP4 ADD DUP5 PUSH2 0x814 JUMP JUMPDEST SWAP6 SWAP5 POP POP POP POP POP JUMP JUMPDEST PUSH0 DUP1 PUSH1 0x40 DUP4 DUP6 SUB SLT ISZERO PUSH2 0x883 JUMPI PUSH2 0x882 PUSH2 0x697 JUMP JUMPDEST JUMPDEST PUSH0 PUSH2 0x890 DUP6 DUP3 DUP7 ADD PUSH2 0x6BE JUMP JUMPDEST SWAP3 POP POP PUSH1 0x20 PUSH2 0x8A1 DUP6 DUP3 DUP7 ADD PUSH2 0x6BE JUMP JUMPDEST SWAP2 POP POP SWAP3 POP SWAP3 SWAP1 POP JUMP JUMPDEST PUSH0 DUP1 REVERT JUMPDEST PUSH0 DUP1 REVERT JUMPDEST PUSH32 0x4E487B7100000000000000000000000000000000000000000000000000000000 PUSH0 MSTORE PUSH1 0x41 PUSH1 0x4 MSTORE PUSH1 0x24 PUSH0 REVERT JUMPDEST PUSH2 0x8E9 DUP3 PUSH2 0x7CC JUMP JUMPDEST DUP2 ADD DUP2 DUP2 LT PUSH8 0xFFFFFFFFFFFFFFFF DUP3 GT OR ISZERO PUSH2 0x908 JUMPI PUSH2 0x907 PUSH2 0x8B3 JUMP JUMPDEST JUMPDEST DUP1 PUSH1 0x40 MSTORE POP POP POP JUMP JUMPDEST PUSH0 PUSH2 0x91A PUSH2 0x68E JUMP JUMPDEST SWAP1 POP PUSH2 0x926 DUP3 DUP3 PUSH2 0x8E0 JUMP JUMPDEST SWAP2 SWAP1 POP JUMP JUMPDEST PUSH0 PUSH8 0xFFFFFFFFFFFFFFFF DUP3 GT ISZERO PUSH2 0x945 JUMPI PUSH2 0x944 PUSH2 0x8B3 JUMP JUMPDEST JUMPDEST PUSH2 0x94E DUP3 PUSH2 0x7CC JUMP JUMPDEST SWAP1 POP PUSH1 0x20 DUP2 ADD SWAP1 POP SWAP2 SWAP1 POP JUMP JUMPDEST DUP3 DUP2 DUP4 CALLDATACOPY PUSH0 DUP4 DUP4 ADD MSTORE POP POP POP JUMP JUMPDEST PUSH0 PUSH2 0x97B PUSH2 0x976 DUP5 PUSH2 0x92B JUMP JUMPDEST PUSH2 0x911 JUMP JUMPDEST SWAP1 POP DUP3 DUP2 MSTORE PUSH1 0x20 DUP2 ADD DUP5 DUP5 DUP5 ADD GT ISZERO PUSH2 0x997 JUMPI PUSH2 0x996 PUSH2 0x8AF JUMP JUMPDEST JUMPDEST PUSH2 0x9A2 DUP5 DUP3 DUP6 PUSH2 0x95B JUMP JUMPDEST POP SWAP4 SWAP3 POP POP POP JUMP JUMPDEST PUSH0 DUP3 PUSH1 0x1F DUP4 ADD SLT PUSH2 0x9BE JUMPI PUSH2 0x9BD PUSH2 0x8AB JUMP JUMPDEST JUMPDEST DUP2 CALLDATALOAD PUSH2 0x9CE DUP5 DUP3 PUSH1 0x20 DUP7 ADD PUSH2 0x969 JUMP JUMPDEST SWAP2 POP POP SWAP3 SWAP2 POP POP JUMP JUMPDEST PUSH0 DUP1 PUSH1 0x40 DUP4 DUP6 SUB SLT ISZERO PUSH2 0x9ED JUMPI PUSH2 0x9EC PUSH2 0x697 JUMP JUMPDEST JUMPDEST PUSH0 DUP4 ADD CALLDATALOAD PUSH8 0xFFFFFFFFFFFFFFFF DUP2 GT ISZERO PUSH2 0xA0A JUMPI PUSH2 0xA09 PUSH2 0x69B JUMP JUMPDEST JUMPDEST PUSH2 0xA16 DUP6 DUP3 DUP7 ADD PUSH2 0x9AA JUMP JUMPDEST SWAP3 POP POP PUSH1 0x20 PUSH2 0xA27 DUP6 DUP3 DUP7 ADD PUSH2 0x6BE JUMP JUMPDEST SWAP2 POP POP SWAP3 POP SWAP3 SWAP1 POP JUMP JUMPDEST PUSH0 PUSH1 0x20 DUP3 ADD SWAP1 POP PUSH2 0xA44 PUSH0 DUP4 ADD DUP5 PUSH2 0x795 JUMP JUMPDEST SWAP3 SWAP2 POP POP JUMP JUMPDEST PUSH32 0x50726F6475637420646F6573206E6F7420657869737400000000000000000000 PUSH0 DUP3 ADD MSTORE POP JUMP JUMPDEST PUSH0 PUSH2 0xA7E PUSH1 0x16 DUP4 PUSH2 0x7AE JUMP JUMPDEST SWAP2 POP PUSH2 0xA89 DUP3 PUSH2 0xA4A JUMP JUMPDEST PUSH1 0x20 DUP3 ADD SWAP1 POP SWAP2 SWAP1 POP JUMP JUMPDEST PUSH0 PUSH1 0x20 DUP3 ADD SWAP1 POP DUP2 DUP2 SUB PUSH0 DUP4 ADD MSTORE PUSH2 0xAAB DUP2 PUSH2 0xA72 JUMP JUMPDEST SWAP1 POP SWAP2 SWAP1 POP JUMP JUMPDEST PUSH32 0x4F6E6C7920746865206F776E65722063616E207472616E73666572206F776E65 PUSH0 DUP3 ADD MSTORE PUSH32 0x7273686970000000000000000000000000000000000000000000000000000000 PUSH1 0x20 DUP3 ADD MSTORE POP JUMP JUMPDEST PUSH0 PUSH2 0xB0C PUSH1 0x25 DUP4 PUSH2 0x7AE JUMP JUMPDEST SWAP2 POP PUSH2 0xB17 DUP3 PUSH2 0xAB2 JUMP JUMPDEST PUSH1 0x40 DUP3 ADD SWAP1 POP SWAP2 SWAP1 POP JUMP JUMPDEST PUSH0 PUSH1 0x20 DUP3 ADD SWAP1 POP DUP2 DUP2 SUB PUSH0 DUP4 ADD MSTORE PUSH2 0xB39 DUP2 PUSH2 0xB00 JUMP JUMPDEST SWAP1 POP SWAP2 SWAP1 POP JUMP JUMPDEST PUSH32 0x4E487B7100000000000000000000000000000000000000000000000000000000 PUSH0 MSTORE PUSH1 0x22 PUSH1 0x4 MSTORE PUSH1 0x24 PUSH0 REVERT JUMPDEST PUSH0 PUSH1 0x2 DUP3 DIV SWAP1 POP PUSH1 0x1 DUP3 AND DUP1 PUSH2 0xB84 JUMPI PUSH1 0x7F DUP3 AND SWAP2 POP JUMPDEST PUSH1 0x20 DUP3 LT DUP2 SUB PUSH2 0xB97 JUMPI PUSH2 0xB96 PUSH2 0xB40 JUMP JUMPDEST JUMPDEST POP SWAP2 SWAP1 POP JUMP JUMPDEST PUSH32 0x4F6E6C7920746865206F776E65722063616E2075706461746520746865207072 PUSH0 DUP3 ADD MSTORE PUSH32 0x6963650000000000000000000000000000000000000000000000000000000000 PUSH1 0x20 DUP3 ADD MSTORE POP JUMP JUMPDEST PUSH0 PUSH2 0xBF7 PUSH1 0x23 DUP4 PUSH2 0x7AE JUMP JUMPDEST SWAP2 POP PUSH2 0xC02 DUP3 PUSH2 0xB9D JUMP JUMPDEST PUSH1 0x40 DUP3 ADD SWAP1 POP SWAP2 SWAP1 POP JUMP JUMPDEST PUSH0 PUSH1 0x20 DUP3 ADD SWAP1 POP DUP2 DUP2 SUB PUSH0 DUP4 ADD MSTORE PUSH2 0xC24 DUP2 PUSH2 0xBEB JUMP JUMPDEST SWAP1 POP SWAP2 SWAP1 POP JUMP JUMPDEST PUSH32 0x5072696365206D7573742062652067726561746572207468616E207A65726F00 PUSH0 DUP3 ADD MSTORE POP JUMP JUMPDEST PUSH0 PUSH2 0xC5F PUSH1 0x1F DUP4 PUSH2 0x7AE JUMP JUMPDEST SWAP2 POP PUSH2 0xC6A DUP3 PUSH2 0xC2B JUMP JUMPDEST PUSH1 0x20 DUP3 ADD SWAP1 POP SWAP2 SWAP1 POP JUMP JUMPDEST PUSH0 PUSH1 0x20 DUP3 ADD SWAP1 POP DUP2 DUP2 SUB PUSH0 DUP4 ADD MSTORE PUSH2 0xC8C DUP2 PUSH2 0xC53 JUMP JUMPDEST SWAP1 POP SWAP2 SWAP1 POP JUMP JUMPDEST PUSH32 0x50726F64756374206E616D652063616E6E6F7420626520656D70747900000000 PUSH0 DUP3 ADD MSTORE POP JUMP JUMPDEST PUSH0 PUSH2 0xCC7 PUSH1 0x1C DUP4 PUSH2 0x7AE JUMP JUMPDEST SWAP2 POP PUSH2 0xCD2 DUP3 PUSH2 0xC93 JUMP JUMPDEST PUSH1 0x20 DUP3 ADD SWAP1 POP SWAP2 SWAP1 POP JUMP JUMPDEST PUSH0 PUSH1 0x20 DUP3 ADD SWAP1 POP DUP2 DUP2 SUB PUSH0 DUP4 ADD MSTORE PUSH2 0xCF4 DUP2 PUSH2 0xCBB JUMP JUMPDEST SWAP1 POP SWAP2 SWAP1 POP JUMP JUMPDEST PUSH32 0x50726F64756374207072696365206D7573742062652067726561746572207468 PUSH0 DUP3 ADD MSTORE PUSH32 0x616E207A65726F00000000000000000000000000000000000000000000000000 PUSH1 0x20 DUP3 ADD MSTORE POP JUMP JUMPDEST PUSH0 PUSH2 0xD55 PUSH1 0x27 DUP4 PUSH2 0x7AE JUMP JUMPDEST SWAP2 POP PUSH2 0xD60 DUP3 PUSH2 0xCFB JUMP JUMPDEST PUSH1 0x40 DUP3 ADD SWAP1 POP SWAP2 SWAP1 POP JUMP JUMPDEST PUSH0 PUSH1 0x20 DUP3 ADD SWAP1 POP DUP2 DUP2 SUB PUSH0 DUP4 ADD MSTORE PUSH2 0xD82 DUP2 PUSH2 0xD49 JUMP JUMPDEST SWAP1 POP SWAP2 SWAP1 POP JUMP JUMPDEST PUSH32 0x4E487B7100000000000000000000000000000000000000000000000000000000 PUSH0 MSTORE PUSH1 0x11 PUSH1 0x4 MSTORE PUSH1 0x24 PUSH0 REVERT JUMPDEST PUSH0 PUSH2 0xDC0 DUP3 PUSH2 0x69F JUMP JUMPDEST SWAP2 POP PUSH32 0xFFFFFFFFFFFFFFFFFFFFFFFFFFFFFFFFFFFFFFFFFFFFFFFFFFFFFFFFFFFFFFFF DUP3 SUB PUSH2 0xDF2 JUMPI PUSH2 0xDF1 PUSH2 0xD89 JUMP JUMPDEST JUMPDEST PUSH1 0x1 DUP3 ADD SWAP1 POP SWAP2 SWAP1 POP JUMP JUMPDEST PUSH0 DUP2 SWAP1 POP DUP2 PUSH0 MSTORE PUSH1 0x20 PUSH0 KECCAK256 SWAP1 POP SWAP2 SWAP1 POP JUMP JUMPDEST PUSH0 PUSH1 0x20 PUSH1 0x1F DUP4 ADD DIV SWAP1 POP SWAP2 SWAP1 POP JUMP JUMPDEST PUSH0 DUP3 DUP3 SHL SWAP1 POP SWAP3 SWAP2 POP POP JUMP JUMPDEST PUSH0 PUSH1 0x8 DUP4 MUL PUSH2 0xE59 PUSH32 0xFFFFFFFFFFFFFFFFFFFFFFFFFFFFFFFFFFFFFFFFFFFFFFFFFFFFFFFFFFFFFFFF DUP3 PUSH2 0xE1E JUMP JUMPDEST PUSH2 0xE63 DUP7 DUP4 PUSH2 0xE1E JUMP JUMPDEST SWAP6 POP DUP1 NOT DUP5 AND SWAP4 POP DUP1 DUP7 AND DUP5 OR SWAP3 POP POP POP SWAP4 SWAP3 POP POP POP JUMP JUMPDEST PUSH0 DUP2 SWAP1 POP SWAP2 SWAP1 POP JUMP JUMPDEST PUSH0 PUSH2 0xE9E PUSH2 0xE99 PUSH2 0xE94 DUP5 PUSH2 0x69F JUMP JUMPDEST PUSH2 0xE7B JUMP JUMPDEST PUSH2 0x69F JUMP JUMPDEST SWAP1 POP SWAP2 SWAP1 POP JUMP JUMPDEST PUSH0 DUP2 SWAP1 POP SWAP2 SWAP1 POP JUMP JUMPDEST PUSH2 0xEB7 DUP4 PUSH2 0xE84 JUMP JUMPDEST PUSH2 0xECB PUSH2 0xEC3 DUP3 PUSH2 0xEA5 JUMP JUMPDEST DUP5 DUP5 SLOAD PUSH2 0xE2A JUMP JUMPDEST DUP3 SSTORE POP POP POP POP JUMP JUMPDEST PUSH0 SWAP1 JUMP JUMPDEST PUSH2 0xEDF PUSH2 0xED3 JUMP JUMPDEST PUSH2 0xEEA DUP2 DUP5 DUP5 PUSH2 0xEAE JUMP JUMPDEST POP POP POP JUMP JUMPDEST JUMPDEST DUP2 DUP2 LT ISZERO PUSH2 0xF0D JUMPI PUSH2 0xF02 PUSH0 DUP3 PUSH2 0xED7 JUMP JUMPDEST PUSH1 0x1 DUP2 ADD SWAP1 POP PUSH2 0xEF0 JUMP JUMPDEST POP POP JUMP JUMPDEST PUSH1 0x1F DUP3 GT ISZERO PUSH2 0xF52 JUMPI PUSH2 0xF23 DUP2 PUSH2 0xDFD JUMP JUMPDEST PUSH2 0xF2C DUP5 PUSH2 0xE0F JUMP JUMPDEST DUP2 ADD PUSH1 0x20 DUP6 LT ISZERO PUSH2 0xF3B JUMPI DUP2 SWAP1 POP JUMPDEST PUSH2 0xF4F PUSH2 0xF47 DUP6 PUSH2 0xE0F JUMP JUMPDEST DUP4 ADD DUP3 PUSH2 0xEEF JUMP JUMPDEST POP POP JUMPDEST POP POP POP JUMP JUMPDEST PUSH0 DUP3 DUP3 SHR SWAP1 POP SWAP3 SWAP2 POP POP JUMP JUMPDEST PUSH0 PUSH2 0xF72 PUSH0 NOT DUP5 PUSH1 0x8 MUL PUSH2 0xF57 JUMP JUMPDEST NOT DUP1 DUP4 AND SWAP2 POP POP SWAP3 SWAP2 POP POP JUMP JUMPDEST PUSH0 PUSH2 0xF8A DUP4 DUP4 PUSH2 0xF63 JUMP JUMPDEST SWAP2 POP DUP3 PUSH1 0x2 MUL DUP3 OR SWAP1 POP SWAP3 SWAP2 POP POP JUMP JUMPDEST PUSH2 0xFA3 DUP3 PUSH2 0x7A4 JUMP JUMPDEST PUSH8 0xFFFFFFFFFFFFFFFF DUP2 GT ISZERO PUSH2 0xFBC JUMPI PUSH2 0xFBB PUSH2 0x8B3 JUMP JUMPDEST JUMPDEST PUSH2 0xFC6 DUP3 SLOAD PUSH2 0xB6D JUMP JUMPDEST PUSH2 0xFD1 DUP3 DUP3 DUP6 PUSH2 0xF11 JUMP JUMPDEST PUSH0 PUSH1 0x20 SWAP1 POP PUSH1 0x1F DUP4 GT PUSH1 0x1 DUP2 EQ PUSH2 0x1002 JUMPI PUSH0 DUP5 ISZERO PUSH2 0xFF0 JUMPI DUP3 DUP8 ADD MLOAD SWAP1 POP JUMPDEST PUSH2 0xFFA DUP6 DUP3 PUSH2 0xF7F JUMP JUMPDEST DUP7 SSTORE POP PUSH2 0x1061 JUMP JUMPDEST PUSH1 0x1F NOT DUP5 AND PUSH2 0x1010 DUP7 PUSH2 0xDFD JUMP JUMPDEST PUSH0 JUMPDEST DUP3 DUP2 LT ISZERO PUSH2 0x1037 JUMPI DUP5 DUP10 ADD MLOAD DUP3 SSTORE PUSH1 0x1 DUP3 ADD SWAP2 POP PUSH1 0x20 DUP6 ADD SWAP5 POP PUSH1 0x20 DUP2 ADD SWAP1 POP PUSH2 0x1012 JUMP JUMPDEST DUP7 DUP4 LT ISZERO PUSH2 0x1054 JUMPI DUP5 DUP10 ADD MLOAD PUSH2 0x1050 PUSH1 0x1F DUP10 AND DUP3 PUSH2 0xF63 JUMP JUMPDEST DUP4 SSTORE POP JUMPDEST PUSH1 0x1 PUSH1 0x2 DUP9 MUL ADD DUP9 SSTORE POP POP POP JUMPDEST POP POP POP POP POP POP JUMP JUMPDEST PUSH32 0x5265656E7472616E637947756172643A207265656E7472616E742063616C6C00 PUSH0 DUP3 ADD MSTORE POP JUMP JUMPDEST PUSH0 PUSH2 0x109D PUSH1 0x1F DUP4 PUSH2 0x7AE JUMP JUMPDEST SWAP2 POP PUSH2 0x10A8 DUP3 PUSH2 0x1069 JUMP JUMPDEST PUSH1 0x20 DUP3 ADD SWAP1 POP SWAP2 SWAP1 POP JUMP JUMPDEST PUSH0 PUSH1 0x20 DUP3 ADD SWAP1 POP DUP2 DUP2 SUB PUSH0 DUP4 ADD MSTORE PUSH2 0x10CA DUP2 PUSH2 0x1091 JUMP JUMPDEST SWAP1 POP SWAP2 SWAP1 POP JUMP INVALID LOG2 PUSH5 0x6970667358 0x22 SLT KECCAK256 0xB2 MSTORE8 SWAP13 PUSH22 0x9D7DDA191BA3DDB8A466C0758D4305C2CDF020FA7555 JUMPDEST PUSH21 0xA80AB14464736F6C634300081A0033000000000000 "
				},
				"gasEstimates": {
					"creation": {
						"codeDepositCost": "871800",
						"executionCost": "28033",
						"totalCost": "899833"
					},
					"external": {
						"productCount()": "2491",
						"products(uint256)": "infinite",
						"registerProduct(string,uint256)": "infinite",
						"transferOwnership(uint256,address)": "75749",
						"updatePrice(uint256,uint256)": "infinite"
					}
				},
				"methodIdentifiers": {
					"productCount()": "e0f6ef87",
					"products(uint256)": "7acc0b20",
					"registerProduct(string,uint256)": "8c96091b",
					"transferOwnership(uint256,address)": "29507f73",
					"updatePrice(uint256,uint256)": "82367b2d"
				}
			},
			"storageLayout": {
				"storage": [
					{
						"astId": 10,
						"contract": "contracts/SupplyChain.sol:ProductRegistry",
						"label": "_status",
						"offset": 0,
						"slot": "0",
						"type": "t_uint256"
					},
					{
						"astId": 83,
						"contract": "contracts/SupplyChain.sol:ProductRegistry",
						"label": "products",
						"offset": 0,
						"slot": "1",
						"type": "t_mapping(t_uint256,t_struct(Product)78_storage)"
					},
					{
						"astId": 85,
						"contract": "contracts/SupplyChain.sol:ProductRegistry",
						"label": "productCount",
						"offset": 0,
						"slot": "2",
						"type": "t_uint256"
					}
				],
				"types": {
					"t_address": {
						"encoding": "inplace",
						"label": "address",
						"numberOfBytes": "20"
					},
					"t_mapping(t_uint256,t_struct(Product)78_storage)": {
						"encoding": "mapping",
						"key": "t_uint256",
						"label": "mapping(uint256 => struct ProductRegistry.Product)",
						"numberOfBytes": "32",
						"value": "t_struct(Product)78_storage"
					},
					"t_string_storage": {
						"encoding": "bytes",
						"label": "string",
						"numberOfBytes": "32"
					},
					"t_struct(Product)78_storage": {
						"encoding": "inplace",
						"label": "struct ProductRegistry.Product",
						"members": [
							{
								"astId": 71,
								"contract": "contracts/SupplyChain.sol:ProductRegistry",
								"label": "id",
								"offset": 0,
								"slot": "0",
								"type": "t_uint256"
							},
							{
								"astId": 73,
								"contract": "contracts/SupplyChain.sol:ProductRegistry",
								"label": "name",
								"offset": 0,
								"slot": "1",
								"type": "t_string_storage"
							},
							{
								"astId": 75,
								"contract": "contracts/SupplyChain.sol:ProductRegistry",
								"label": "price",
								"offset": 0,
								"slot": "2",
								"type": "t_uint256"
							},
							{
								"astId": 77,
								"contract": "contracts/SupplyChain.sol:ProductRegistry",
								"label": "owner",
								"offset": 0,
								"slot": "3",
								"type": "t_address"
							}
						],
						"numberOfBytes": "128"
					},
					"t_uint256": {
						"encoding": "inplace",
						"label": "uint256",
						"numberOfBytes": "32"
					}
				}
			},
			"userdoc": {
				"kind": "user",
				"methods": {},
				"version": 1
			}
		}
	}
}