{
	"contracts/ProductRegistry.sol": {
		"SimpleSupplyChain": {
			"abi": [
				{
					"inputs": [],
					"stateMutability": "nonpayable",
					"type": "constructor"
				},
				{
					"inputs": [
						{
							"internalType": "address",
							"name": "owner",
							"type": "address"
						}
					],
					"name": "OwnableInvalidOwner",
					"type": "error"
				},
				{
					"inputs": [
						{
							"internalType": "address",
							"name": "account",
							"type": "address"
						}
					],
					"name": "OwnableUnauthorizedAccount",
					"type": "error"
				},
				{
					"anonymous": false,
					"inputs": [
						{
							"indexed": true,
							"internalType": "address",
							"name": "previousOwner",
							"type": "address"
						},
						{
							"indexed": true,
							"internalType": "address",
							"name": "newOwner",
							"type": "address"
						}
					],
					"name": "OwnershipTransferred",
					"type": "event"
				},
				{
					"anonymous": false,
					"inputs": [
						{
							"indexed": false,
							"internalType": "uint256",
							"name": "productId",
							"type": "uint256"
						},
						{
							"indexed": false,
							"internalType": "string",
							"name": "name",
							"type": "string"
						},
						{
							"indexed": true,
							"internalType": "address",
							"name": "owner",
							"type": "address"
						},
						{
							"indexed": false,
							"internalType": "uint256",
							"name": "price",
							"type": "uint256"
						}
					],
					"name": "ProductRegistered",
					"type": "event"
				},
				{
					"anonymous": false,
					"inputs": [
						{
							"indexed": false,
							"internalType": "uint256",
							"name": "productId",
							"type": "uint256"
						},
						{
							"indexed": true,
							"internalType": "address",
							"name": "from",
							"type": "address"
						},
						{
							"indexed": true,
							"internalType": "address",
							"name": "to",
							"type": "address"
						}
					],
					"name": "ProductTransferred",
					"type": "event"
				},
				{
					"inputs": [
						{
							"internalType": "uint256",
							"name": "productId",
							"type": "uint256"
						}
					],
					"name": "getProduct",
					"outputs": [
						{
							"components": [
								{
									"internalType": "uint256",
									"name": "id",
									"type": "uint256"
								},
								{
									"internalType": "string",
									"name": "name",
									"type": "string"
								},
								{
									"internalType": "address",
									"name": "currentOwner",
									"type": "address"
								},
								{
									"internalType": "uint256",
									"name": "price",
									"type": "uint256"
								},
								{
									"internalType": "bool",
									"name": "verified",
									"type": "bool"
								}
							],
							"internalType": "struct SimpleSupplyChain.Product",
							"name": "",
							"type": "tuple"
						}
					],
					"stateMutability": "view",
					"type": "function"
				},
				{
					"inputs": [],
					"name": "nextProductId",
					"outputs": [
						{
							"internalType": "uint256",
							"name": "",
							"type": "uint256"
						}
					],
					"stateMutability": "view",
					"type": "function"
				},
				{
					"inputs": [],
					"name": "owner",
					"outputs": [
						{
							"internalType": "address",
							"name": "",
							"type": "address"
						}
					],
					"stateMutability": "view",
					"type": "function"
				},
				{
					"inputs": [
						{
							"internalType": "uint256",
							"name": "",
							"type": "uint256"
						}
					],
					"name": "products",
					"outputs": [
						{
							"internalType": "uint256",
							"name": "id",
							"type": "uint256"
						},
						{
							"internalType": "string",
							"name": "name",
							"type": "string"
						},
						{
							"internalType": "address",
							"name": "currentOwner",
							"type": "address"
						},
						{
							"internalType": "uint256",
							"name": "price",
							"type": "uint256"
						},
						{
							"internalType": "bool",
							"name": "verified",
							"type": "bool"
						}
					],
					"stateMutability": "view",
					"type": "function"
				},
				{
					"inputs": [
						{
							"internalType": "string",
							"name": "name",
							"type": "string"
						},
						{
							"internalType": "uint256",
							"name": "price",
							"type": "uint256"
						}
					],
					"name": "registerProduct",
					"outputs": [],
					"stateMutability": "nonpayable",
					"type": "function"
				},
				{
					"inputs": [],
					"name": "renounceOwnership",
					"outputs": [],
					"stateMutability": "nonpayable",
					"type": "function"
				},
				{
					"inputs": [
						{
							"internalType": "address",
							"name": "newOwner",
							"type": "address"
						}
					],
					"name": "transferOwnership",
					"outputs": [],
					"stateMutability": "nonpayable",
					"type": "function"
				},
				{
					"inputs": [
						{
							"internalType": "uint256",
							"name": "productId",
							"type": "uint256"
						},
						{
							"internalType": "address",
							"name": "to",
							"type": "address"
						}
					],
					"name": "transferProduct",
					"outputs": [],
					"stateMutability": "nonpayable",
					"type": "function"
				},
				{
					"inputs": [
						{
							"internalType": "uint256",
							"name": "productId",
							"type": "uint256"
						}
					],
					"name": "verifyProduct",
					"outputs": [],
					"stateMutability": "nonpayable",
					"type": "function"
				}
			],
			"devdoc": {
				"errors": {
					"OwnableInvalidOwner(address)": [
						{
							"details": "The owner is not a valid owner account. (eg. `address(0)`)"
						}
					],
					"OwnableUnauthorizedAccount(address)": [
						{
							"details": "The caller account is not authorized to perform an operation."
						}
					]
				},
				"kind": "dev",
				"methods": {
					"owner()": {
						"details": "Returns the address of the current owner."
					},
					"renounceOwnership()": {
						"details": "Leaves the contract without owner. It will not be possible to call `onlyOwner` functions. Can only be called by the current owner. NOTE: Renouncing ownership will leave the contract without an owner, thereby disabling any functionality that is only available to the owner."
					},
					"transferOwnership(address)": {
						"details": "Transfers ownership of the contract to a new account (`newOwner`). Can only be called by the current owner."
					}
				},
				"version": 1
			},
			"evm": {
				"assembly": "    /* \"contracts/ProductRegistry.sol\":174:2235  contract SimpleSupplyChain is Ownable, ReentrancyGuard {... */\n  mstore(0x40, 0x80)\n    /* \"contracts/ProductRegistry.sol\":774:828  constructor() Ownable(msg.sender) ReentrancyGuard() {} */\n  callvalue\n  dup1\n  iszero\n  tag_1\n  jumpi\n  0x00\n  dup1\n  revert\ntag_1:\n  pop\n    /* \"contracts/ProductRegistry.sol\":796:806  msg.sender */\n  caller\n    /* \"@openzeppelin/contracts/access/Ownable.sol\":1297:1298  0 */\n  0x00\n    /* \"@openzeppelin/contracts/access/Ownable.sol\":1273:1299  initialOwner == address(0) */\n  0xffffffffffffffffffffffffffffffffffffffff\n  and\n    /* \"@openzeppelin/contracts/access/Ownable.sol\":1273:1285  initialOwner */\n  dup2\n    /* \"@openzeppelin/contracts/access/Ownable.sol\":1273:1299  initialOwner == address(0) */\n  0xffffffffffffffffffffffffffffffffffffffff\n  and\n  sub\n    /* \"@openzeppelin/contracts/access/Ownable.sol\":1269:1364  if (initialOwner == address(0)) {... */\n  tag_6\n  jumpi\n    /* \"@openzeppelin/contracts/access/Ownable.sol\":1350:1351  0 */\n  0x00\n    /* \"@openzeppelin/contracts/access/Ownable.sol\":1322:1353  OwnableInvalidOwner(address(0)) */\n  mload(0x40)\n  0x1e4fbdf700000000000000000000000000000000000000000000000000000000\n  dup2\n  mstore\n  0x04\n  add\n  tag_7\n  swap2\n  swap1\n  tag_8\n  jump\t// in\ntag_7:\n  mload(0x40)\n  dup1\n  swap2\n  sub\n  swap1\n  revert\n    /* \"@openzeppelin/contracts/access/Ownable.sol\":1269:1364  if (initialOwner == address(0)) {... */\ntag_6:\n    /* \"@openzeppelin/contracts/access/Ownable.sol\":1373:1405  _transferOwnership(initialOwner) */\n  tag_9\n    /* \"@openzeppelin/contracts/access/Ownable.sol\":1392:1404  initialOwner */\n  dup2\n    /* \"@openzeppelin/contracts/access/Ownable.sol\":1373:1391  _transferOwnership */\n  shl(0x20, tag_10)\n    /* \"@openzeppelin/contracts/access/Ownable.sol\":1373:1405  _transferOwnership(initialOwner) */\n  0x20\n  shr\n  jump\t// in\ntag_9:\n    /* \"@openzeppelin/contracts/access/Ownable.sol\":1225:1412  constructor(address initialOwner) {... */\n  pop\n    /* \"@openzeppelin/contracts/security/ReentrancyGuard.sol\":1716:1717  1 */\n  0x01\n    /* \"@openzeppelin/contracts/security/ReentrancyGuard.sol\":1821:1828  _status */\n  dup1\n    /* \"@openzeppelin/contracts/security/ReentrancyGuard.sol\":1821:1843  _status = _NOT_ENTERED */\n  dup2\n  swap1\n  sstore\n  pop\n    /* \"contracts/ProductRegistry.sol\":174:2235  contract SimpleSupplyChain is Ownable, ReentrancyGuard {... */\n  jump(tag_13)\n    /* \"@openzeppelin/contracts/access/Ownable.sol\":2912:3099  function _transferOwnership(address newOwner) internal virtual {... */\ntag_10:\n    /* \"@openzeppelin/contracts/access/Ownable.sol\":2985:3001  address oldOwner */\n  0x00\n    /* \"@openzeppelin/contracts/access/Ownable.sol\":3004:3010  _owner */\n  dup1\n  0x00\n  swap1\n  sload\n  swap1\n  0x0100\n  exp\n  swap1\n  div\n  0xffffffffffffffffffffffffffffffffffffffff\n  and\n    /* \"@openzeppelin/contracts/access/Ownable.sol\":2985:3010  address oldOwner = _owner */\n  swap1\n  pop\n    /* \"@openzeppelin/contracts/access/Ownable.sol\":3029:3037  newOwner */\n  dup2\n    /* \"@openzeppelin/contracts/access/Ownable.sol\":3020:3026  _owner */\n  0x00\n  dup1\n    /* \"@openzeppelin/contracts/access/Ownable.sol\":3020:3037  _owner = newOwner */\n  0x0100\n  exp\n  dup2\n  sload\n  dup2\n  0xffffffffffffffffffffffffffffffffffffffff\n  mul\n  not\n  and\n  swap1\n  dup4\n  0xffffffffffffffffffffffffffffffffffffffff\n  and\n  mul\n  or\n  swap1\n  sstore\n  pop\n    /* \"@openzeppelin/contracts/access/Ownable.sol\":3083:3091  newOwner */\n  dup2\n    /* \"@openzeppelin/contracts/access/Ownable.sol\":3052:3092  OwnershipTransferred(oldOwner, newOwner) */\n  0xffffffffffffffffffffffffffffffffffffffff\n  and\n    /* \"@openzeppelin/contracts/access/Ownable.sol\":3073:3081  oldOwner */\n  dup2\n    /* \"@openzeppelin/contracts/access/Ownable.sol\":3052:3092  OwnershipTransferred(oldOwner, newOwner) */\n  0xffffffffffffffffffffffffffffffffffffffff\n  and\n  0x8be0079c531659141344cd1fd0a4f28419497f9722a3daafe3b4186f6b6457e0\n  mload(0x40)\n  mload(0x40)\n  dup1\n  swap2\n  sub\n  swap1\n  log3\n    /* \"@openzeppelin/contracts/access/Ownable.sol\":2975:3099  {... */\n  pop\n    /* \"@openzeppelin/contracts/access/Ownable.sol\":2912:3099  function _transferOwnership(address newOwner) internal virtual {... */\n  pop\n  jump\t// out\n    /* \"#utility.yul\":7:133   */\ntag_15:\n    /* \"#utility.yul\":44:51   */\n  0x00\n    /* \"#utility.yul\":84:126   */\n  0xffffffffffffffffffffffffffffffffffffffff\n    /* \"#utility.yul\":77:82   */\n  dup3\n    /* \"#utility.yul\":73:127   */\n  and\n    /* \"#utility.yul\":62:127   */\n  swap1\n  pop\n    /* \"#utility.yul\":7:133   */\n  swap2\n  swap1\n  pop\n  jump\t// out\n    /* \"#utility.yul\":139:235   */\ntag_16:\n    /* \"#utility.yul\":176:183   */\n  0x00\n    /* \"#utility.yul\":205:229   */\n  tag_21\n    /* \"#utility.yul\":223:228   */\n  dup3\n    /* \"#utility.yul\":205:229   */\n  tag_15\n  jump\t// in\ntag_21:\n    /* \"#utility.yul\":194:229   */\n  swap1\n  pop\n    /* \"#utility.yul\":139:235   */\n  swap2\n  swap1\n  pop\n  jump\t// out\n    /* \"#utility.yul\":241:359   */\ntag_17:\n    /* \"#utility.yul\":328:352   */\n  tag_23\n    /* \"#utility.yul\":346:351   */\n  dup2\n    /* \"#utility.yul\":328:352   */\n  tag_16\n  jump\t// in\ntag_23:\n    /* \"#utility.yul\":323:326   */\n  dup3\n    /* \"#utility.yul\":316:353   */\n  mstore\n    /* \"#utility.yul\":241:359   */\n  pop\n  pop\n  jump\t// out\n    /* \"#utility.yul\":365:587   */\ntag_8:\n    /* \"#utility.yul\":458:462   */\n  0x00\n    /* \"#utility.yul\":496:498   */\n  0x20\n    /* \"#utility.yul\":485:494   */\n  dup3\n    /* \"#utility.yul\":481:499   */\n  add\n    /* \"#utility.yul\":473:499   */\n  swap1\n  pop\n    /* \"#utility.yul\":509:580   */\n  tag_25\n    /* \"#utility.yul\":577:578   */\n  0x00\n    /* \"#utility.yul\":566:575   */\n  dup4\n    /* \"#utility.yul\":562:579   */\n  add\n    /* \"#utility.yul\":553:559   */\n  dup5\n    /* \"#utility.yul\":509:580   */\n  tag_17\n  jump\t// in\ntag_25:\n    /* \"#utility.yul\":365:587   */\n  swap3\n  swap2\n  pop\n  pop\n  jump\t// out\n    /* \"contracts/ProductRegistry.sol\":174:2235  contract SimpleSupplyChain is Ownable, ReentrancyGuard {... */\ntag_13:\n  dataSize(sub_0)\n  dup1\n  dataOffset(sub_0)\n  0x00\n  codecopy\n  0x00\n  return\nstop\n\nsub_0: assembly {\n        /* \"contracts/ProductRegistry.sol\":174:2235  contract SimpleSupplyChain is Ownable, ReentrancyGuard {... */\n      mstore(0x40, 0x80)\n      callvalue\n      dup1\n      iszero\n      tag_1\n      jumpi\n      0x00\n      dup1\n      revert\n    tag_1:\n      pop\n      jumpi(tag_2, lt(calldatasize, 0x04))\n      shr(0xe0, calldataload(0x00))\n      dup1\n      0x8c96091b\n      gt\n      tag_12\n      jumpi\n      dup1\n      0x8c96091b\n      eq\n      tag_7\n      jumpi\n      dup1\n      0x8da5cb5b\n      eq\n      tag_8\n      jumpi\n      dup1\n      0xb9db15b4\n      eq\n      tag_9\n      jumpi\n      dup1\n      0xe43059e5\n      eq\n      tag_10\n      jumpi\n      dup1\n      0xf2fde38b\n      eq\n      tag_11\n      jumpi\n      jump(tag_2)\n    tag_12:\n      dup1\n      0x4de91a63\n      eq\n      tag_3\n      jumpi\n      dup1\n      0x524e8462\n      eq\n      tag_4\n      jumpi\n      dup1\n      0x715018a6\n      eq\n      tag_5\n      jumpi\n      dup1\n      0x7acc0b20\n      eq\n      tag_6\n      jumpi\n    tag_2:\n      0x00\n      dup1\n      revert\n        /* \"contracts/ProductRegistry.sol\":487:515  uint256 public nextProductId */\n    tag_3:\n      tag_13\n      tag_14\n      jump\t// in\n    tag_13:\n      mload(0x40)\n      tag_15\n      swap2\n      swap1\n      tag_16\n      jump\t// in\n    tag_15:\n      mload(0x40)\n      dup1\n      swap2\n      sub\n      swap1\n      return\n        /* \"contracts/ProductRegistry.sol\":1868:2081  function verifyProduct(uint256 productId) public {... */\n    tag_4:\n      tag_17\n      0x04\n      dup1\n      calldatasize\n      sub\n      dup2\n      add\n      swap1\n      tag_18\n      swap2\n      swap1\n      tag_19\n      jump\t// in\n    tag_18:\n      tag_20\n      jump\t// in\n    tag_17:\n      stop\n        /* \"@openzeppelin/contracts/access/Ownable.sol\":2293:2394  function renounceOwnership() public virtual onlyOwner {... */\n    tag_5:\n      tag_21\n      tag_22\n      jump\t// in\n    tag_21:\n      stop\n        /* \"contracts/ProductRegistry.sol\":438:481  mapping(uint256 => Product) public products */\n    tag_6:\n      tag_23\n      0x04\n      dup1\n      calldatasize\n      sub\n      dup2\n      add\n      swap1\n      tag_24\n      swap2\n      swap1\n      tag_19\n      jump\t// in\n    tag_24:\n      tag_25\n      jump\t// in\n    tag_23:\n      mload(0x40)\n      tag_26\n      swap6\n      swap5\n      swap4\n      swap3\n      swap2\n      swap1\n      tag_27\n      jump\t// in\n    tag_26:\n      mload(0x40)\n      dup1\n      swap2\n      sub\n      swap1\n      return\n        /* \"contracts/ProductRegistry.sol\":889:1313  function registerProduct(string memory name, uint256 price) public onlyOwner {... */\n    tag_7:\n      tag_28\n      0x04\n      dup1\n      calldatasize\n      sub\n      dup2\n      add\n      swap1\n      tag_29\n      swap2\n      swap1\n      tag_30\n      jump\t// in\n    tag_29:\n      tag_31\n      jump\t// in\n    tag_28:\n      stop\n        /* \"@openzeppelin/contracts/access/Ownable.sol\":1638:1723  function owner() public view virtual returns (address) {... */\n    tag_8:\n      tag_32\n      tag_33\n      jump\t// in\n    tag_32:\n      mload(0x40)\n      tag_34\n      swap2\n      swap1\n      tag_35\n      jump\t// in\n    tag_34:\n      mload(0x40)\n      dup1\n      swap2\n      sub\n      swap1\n      return\n        /* \"contracts/ProductRegistry.sol\":2114:2233  function getProduct(uint256 productId) public view returns (Product memory) {... */\n    tag_9:\n      tag_36\n      0x04\n      dup1\n      calldatasize\n      sub\n      dup2\n      add\n      swap1\n      tag_37\n      swap2\n      swap1\n      tag_19\n      jump\t// in\n    tag_37:\n      tag_38\n      jump\t// in\n    tag_36:\n      mload(0x40)\n      tag_39\n      swap2\n      swap1\n      tag_40\n      jump\t// in\n    tag_39:\n      mload(0x40)\n      dup1\n      swap2\n      sub\n      swap1\n      return\n        /* \"contracts/ProductRegistry.sol\":1396:1817  function transferProduct(uint256 productId, address to) public nonReentrant {... */\n    tag_10:\n      tag_41\n      0x04\n      dup1\n      calldatasize\n      sub\n      dup2\n      add\n      swap1\n      tag_42\n      swap2\n      swap1\n      tag_43\n      jump\t// in\n    tag_42:\n      tag_44\n      jump\t// in\n    tag_41:\n      stop\n        /* \"@openzeppelin/contracts/access/Ownable.sol\":2543:2758  function transferOwnership(address newOwner) public virtual onlyOwner {... */\n    tag_11:\n      tag_45\n      0x04\n      dup1\n      calldatasize\n      sub\n      dup2\n      add\n      swap1\n      tag_46\n      swap2\n      swap1\n      tag_47\n      jump\t// in\n    tag_46:\n      tag_48\n      jump\t// in\n    tag_45:\n      stop\n        /* \"contracts/ProductRegistry.sol\":487:515  uint256 public nextProductId */\n    tag_14:\n      sload(0x03)\n      dup2\n      jump\t// out\n        /* \"contracts/ProductRegistry.sol\":1868:2081  function verifyProduct(uint256 productId) public {... */\n    tag_20:\n        /* \"contracts/ProductRegistry.sol\":1971:1981  msg.sender */\n      caller\n        /* \"contracts/ProductRegistry.sol\":1935:1981  products[productId].currentOwner == msg.sender */\n      0xffffffffffffffffffffffffffffffffffffffff\n      and\n        /* \"contracts/ProductRegistry.sol\":1935:1943  products */\n      0x02\n        /* \"contracts/ProductRegistry.sol\":1935:1954  products[productId] */\n      0x00\n        /* \"contracts/ProductRegistry.sol\":1944:1953  productId */\n      dup4\n        /* \"contracts/ProductRegistry.sol\":1935:1954  products[productId] */\n      dup2\n      mstore\n      0x20\n      add\n      swap1\n      dup2\n      mstore\n      0x20\n      add\n      0x00\n      keccak256\n        /* \"contracts/ProductRegistry.sol\":1935:1967  products[productId].currentOwner */\n      0x02\n      add\n      0x00\n      swap1\n      sload\n      swap1\n      0x0100\n      exp\n      swap1\n      div\n      0xffffffffffffffffffffffffffffffffffffffff\n      and\n        /* \"contracts/ProductRegistry.sol\":1935:1981  products[productId].currentOwner == msg.sender */\n      0xffffffffffffffffffffffffffffffffffffffff\n      and\n      eq\n        /* \"contracts/ProductRegistry.sol\":1927:2029  require(products[productId].currentOwner == msg.sender, \"You must be the owner to verify the product\") */\n      tag_50\n      jumpi\n      mload(0x40)\n      0x08c379a000000000000000000000000000000000000000000000000000000000\n      dup2\n      mstore\n      0x04\n      add\n      tag_51\n      swap1\n      tag_52\n      jump\t// in\n    tag_51:\n      mload(0x40)\n      dup1\n      swap2\n      sub\n      swap1\n      revert\n    tag_50:\n        /* \"contracts/ProductRegistry.sol\":2070:2074  true */\n      0x01\n        /* \"contracts/ProductRegistry.sol\":2039:2047  products */\n      0x02\n        /* \"contracts/ProductRegistry.sol\":2039:2058  products[productId] */\n      0x00\n        /* \"contracts/ProductRegistry.sol\":2048:2057  productId */\n      dup4\n        /* \"contracts/ProductRegistry.sol\":2039:2058  products[productId] */\n      dup2\n      mstore\n      0x20\n      add\n      swap1\n      dup2\n      mstore\n      0x20\n      add\n      0x00\n      keccak256\n        /* \"contracts/ProductRegistry.sol\":2039:2067  products[productId].verified */\n      0x04\n      add\n      0x00\n        /* \"contracts/ProductRegistry.sol\":2039:2074  products[productId].verified = true */\n      0x0100\n      exp\n      dup2\n      sload\n      dup2\n      0xff\n      mul\n      not\n      and\n      swap1\n      dup4\n      iszero\n      iszero\n      mul\n      or\n      swap1\n      sstore\n      pop\n        /* \"contracts/ProductRegistry.sol\":1868:2081  function verifyProduct(uint256 productId) public {... */\n      pop\n      jump\t// out\n        /* \"@openzeppelin/contracts/access/Ownable.sol\":2293:2394  function renounceOwnership() public virtual onlyOwner {... */\n    tag_22:\n        /* \"@openzeppelin/contracts/access/Ownable.sol\":1531:1544  _checkOwner() */\n      tag_54\n        /* \"@openzeppelin/contracts/access/Ownable.sol\":1531:1542  _checkOwner */\n      tag_55\n        /* \"@openzeppelin/contracts/access/Ownable.sol\":1531:1544  _checkOwner() */\n      jump\t// in\n    tag_54:\n        /* \"@openzeppelin/contracts/access/Ownable.sol\":2357:2387  _transferOwnership(address(0)) */\n      tag_57\n        /* \"@openzeppelin/contracts/access/Ownable.sol\":2384:2385  0 */\n      0x00\n        /* \"@openzeppelin/contracts/access/Ownable.sol\":2357:2375  _transferOwnership */\n      tag_58\n        /* \"@openzeppelin/contracts/access/Ownable.sol\":2357:2387  _transferOwnership(address(0)) */\n      jump\t// in\n    tag_57:\n        /* \"@openzeppelin/contracts/access/Ownable.sol\":2293:2394  function renounceOwnership() public virtual onlyOwner {... */\n      jump\t// out\n        /* \"contracts/ProductRegistry.sol\":438:481  mapping(uint256 => Product) public products */\n    tag_25:\n      mstore(0x20, 0x02)\n      dup1\n      0x00\n      mstore\n      keccak256(0x00, 0x40)\n      0x00\n      swap2\n      pop\n      swap1\n      pop\n      dup1\n      0x00\n      add\n      sload\n      swap1\n      dup1\n      0x01\n      add\n      dup1\n      sload\n      tag_59\n      swap1\n      tag_60\n      jump\t// in\n    tag_59:\n      dup1\n      0x1f\n      add\n      0x20\n      dup1\n      swap2\n      div\n      mul\n      0x20\n      add\n      mload(0x40)\n      swap1\n      dup2\n      add\n      0x40\n      mstore\n      dup1\n      swap3\n      swap2\n      swap1\n      dup2\n      dup2\n      mstore\n      0x20\n      add\n      dup3\n      dup1\n      sload\n      tag_61\n      swap1\n      tag_60\n      jump\t// in\n    tag_61:\n      dup1\n      iszero\n      tag_62\n      jumpi\n      dup1\n      0x1f\n      lt\n      tag_63\n      jumpi\n      0x0100\n      dup1\n      dup4\n      sload\n      div\n      mul\n      dup4\n      mstore\n      swap2\n      0x20\n      add\n      swap2\n      jump(tag_62)\n    tag_63:\n      dup3\n      add\n      swap2\n      swap1\n      0x00\n      mstore\n      keccak256(0x00, 0x20)\n      swap1\n    tag_64:\n      dup2\n      sload\n      dup2\n      mstore\n      swap1\n      0x01\n      add\n      swap1\n      0x20\n      add\n      dup1\n      dup4\n      gt\n      tag_64\n      jumpi\n      dup3\n      swap1\n      sub\n      0x1f\n      and\n      dup3\n      add\n      swap2\n    tag_62:\n      pop\n      pop\n      pop\n      pop\n      pop\n      swap1\n      dup1\n      0x02\n      add\n      0x00\n      swap1\n      sload\n      swap1\n      0x0100\n      exp\n      swap1\n      div\n      0xffffffffffffffffffffffffffffffffffffffff\n      and\n      swap1\n      dup1\n      0x03\n      add\n      sload\n      swap1\n      dup1\n      0x04\n      add\n      0x00\n      swap1\n      sload\n      swap1\n      0x0100\n      exp\n      swap1\n      div\n      0xff\n      and\n      swap1\n      pop\n      dup6\n      jump\t// out\n        /* \"contracts/ProductRegistry.sol\":889:1313  function registerProduct(string memory name, uint256 price) public onlyOwner {... */\n    tag_31:\n        /* \"@openzeppelin/contracts/access/Ownable.sol\":1531:1544  _checkOwner() */\n      tag_66\n        /* \"@openzeppelin/contracts/access/Ownable.sol\":1531:1542  _checkOwner */\n      tag_55\n        /* \"@openzeppelin/contracts/access/Ownable.sol\":1531:1544  _checkOwner() */\n      jump\t// in\n    tag_66:\n        /* \"contracts/ProductRegistry.sol\":976:993  uint256 productId */\n      0x00\n        /* \"contracts/ProductRegistry.sol\":996:1009  nextProductId */\n      sload(0x03)\n        /* \"contracts/ProductRegistry.sol\":976:1009  uint256 productId = nextProductId */\n      swap1\n      pop\n        /* \"contracts/ProductRegistry.sol\":1041:1204  Product({... */\n      mload(0x40)\n      dup1\n      0xa0\n      add\n      0x40\n      mstore\n      dup1\n        /* \"contracts/ProductRegistry.sol\":1067:1076  productId */\n      dup3\n        /* \"contracts/ProductRegistry.sol\":1041:1204  Product({... */\n      dup2\n      mstore\n      0x20\n      add\n        /* \"contracts/ProductRegistry.sol\":1096:1100  name */\n      dup5\n        /* \"contracts/ProductRegistry.sol\":1041:1204  Product({... */\n      dup2\n      mstore\n      0x20\n      add\n        /* \"contracts/ProductRegistry.sol\":1128:1138  msg.sender */\n      caller\n        /* \"contracts/ProductRegistry.sol\":1041:1204  Product({... */\n      0xffffffffffffffffffffffffffffffffffffffff\n      and\n      dup2\n      mstore\n      0x20\n      add\n        /* \"contracts/ProductRegistry.sol\":1159:1164  price */\n      dup4\n        /* \"contracts/ProductRegistry.sol\":1041:1204  Product({... */\n      dup2\n      mstore\n      0x20\n      add\n        /* \"contracts/ProductRegistry.sol\":1188:1193  false */\n      0x00\n        /* \"contracts/ProductRegistry.sol\":1041:1204  Product({... */\n      iszero\n      iszero\n      dup2\n      mstore\n      pop\n        /* \"contracts/ProductRegistry.sol\":1019:1027  products */\n      0x02\n        /* \"contracts/ProductRegistry.sol\":1019:1038  products[productId] */\n      0x00\n        /* \"contracts/ProductRegistry.sol\":1028:1037  productId */\n      dup4\n        /* \"contracts/ProductRegistry.sol\":1019:1038  products[productId] */\n      dup2\n      mstore\n      0x20\n      add\n      swap1\n      dup2\n      mstore\n      0x20\n      add\n      0x00\n      keccak256\n        /* \"contracts/ProductRegistry.sol\":1019:1204  products[productId] = Product({... */\n      0x00\n      dup3\n      add\n      mload\n      dup2\n      0x00\n      add\n      sstore\n      0x20\n      dup3\n      add\n      mload\n      dup2\n      0x01\n      add\n      swap1\n      dup2\n      tag_68\n      swap2\n      swap1\n      tag_69\n      jump\t// in\n    tag_68:\n      pop\n      0x40\n      dup3\n      add\n      mload\n      dup2\n      0x02\n      add\n      exp(0x0100, 0x00)\n      dup2\n      sload\n      dup2\n      0xffffffffffffffffffffffffffffffffffffffff\n      mul\n      not\n      and\n      swap1\n      dup4\n      0xffffffffffffffffffffffffffffffffffffffff\n      and\n      mul\n      or\n      swap1\n      sstore\n      pop\n      0x60\n      dup3\n      add\n      mload\n      dup2\n      0x03\n      add\n      sstore\n      0x80\n      dup3\n      add\n      mload\n      dup2\n      0x04\n      add\n      exp(0x0100, 0x00)\n      dup2\n      sload\n      dup2\n      0xff\n      mul\n      not\n      and\n      swap1\n      dup4\n      iszero\n      iszero\n      mul\n      or\n      swap1\n      sstore\n      pop\n      swap1\n      pop\n      pop\n        /* \"contracts/ProductRegistry.sol\":1214:1227  nextProductId */\n      0x03\n      0x00\n        /* \"contracts/ProductRegistry.sol\":1214:1229  nextProductId++ */\n      dup2\n      sload\n      dup1\n      swap3\n      swap2\n      swap1\n      tag_70\n      swap1\n      tag_71\n      jump\t// in\n    tag_70:\n      swap2\n      swap1\n      pop\n      sstore\n      pop\n        /* \"contracts/ProductRegistry.sol\":1288:1298  msg.sender */\n      caller\n        /* \"contracts/ProductRegistry.sol\":1253:1306  ProductRegistered(productId, name, msg.sender, price) */\n      0xffffffffffffffffffffffffffffffffffffffff\n      and\n      0x5b750c34ff65e7500b4250ef0db18cf3a3f0d4ce3131ef7e64d457b0bea7236f\n        /* \"contracts/ProductRegistry.sol\":1271:1280  productId */\n      dup3\n        /* \"contracts/ProductRegistry.sol\":1282:1286  name */\n      dup6\n        /* \"contracts/ProductRegistry.sol\":1300:1305  price */\n      dup6\n        /* \"contracts/ProductRegistry.sol\":1253:1306  ProductRegistered(productId, name, msg.sender, price) */\n      mload(0x40)\n      tag_72\n      swap4\n      swap3\n      swap2\n      swap1\n      tag_73\n      jump\t// in\n    tag_72:\n      mload(0x40)\n      dup1\n      swap2\n      sub\n      swap1\n      log2\n        /* \"contracts/ProductRegistry.sol\":966:1313  {... */\n      pop\n        /* \"contracts/ProductRegistry.sol\":889:1313  function registerProduct(string memory name, uint256 price) public onlyOwner {... */\n      pop\n      pop\n      jump\t// out\n        /* \"@openzeppelin/contracts/access/Ownable.sol\":1638:1723  function owner() public view virtual returns (address) {... */\n    tag_33:\n        /* \"@openzeppelin/contracts/access/Ownable.sol\":1684:1691  address */\n      0x00\n        /* \"@openzeppelin/contracts/access/Ownable.sol\":1710:1716  _owner */\n      dup1\n      0x00\n      swap1\n      sload\n      swap1\n      0x0100\n      exp\n      swap1\n      div\n      0xffffffffffffffffffffffffffffffffffffffff\n      and\n        /* \"@openzeppelin/contracts/access/Ownable.sol\":1703:1716  return _owner */\n      swap1\n      pop\n        /* \"@openzeppelin/contracts/access/Ownable.sol\":1638:1723  function owner() public view virtual returns (address) {... */\n      swap1\n      jump\t// out\n        /* \"contracts/ProductRegistry.sol\":2114:2233  function getProduct(uint256 productId) public view returns (Product memory) {... */\n    tag_38:\n        /* \"contracts/ProductRegistry.sol\":2174:2188  Product memory */\n      tag_75\n      tag_76\n      jump\t// in\n    tag_75:\n        /* \"contracts/ProductRegistry.sol\":2207:2215  products */\n      0x02\n        /* \"contracts/ProductRegistry.sol\":2207:2226  products[productId] */\n      0x00\n        /* \"contracts/ProductRegistry.sol\":2216:2225  productId */\n      dup4\n        /* \"contracts/ProductRegistry.sol\":2207:2226  products[productId] */\n      dup2\n      mstore\n      0x20\n      add\n      swap1\n      dup2\n      mstore\n      0x20\n      add\n      0x00\n      keccak256\n        /* \"contracts/ProductRegistry.sol\":2200:2226  return products[productId] */\n      mload(0x40)\n      dup1\n      0xa0\n      add\n      0x40\n      mstore\n      swap1\n      dup2\n      0x00\n      dup3\n      add\n      sload\n      dup2\n      mstore\n      0x20\n      add\n      0x01\n      dup3\n      add\n      dup1\n      sload\n      tag_78\n      swap1\n      tag_60\n      jump\t// in\n    tag_78:\n      dup1\n      0x1f\n      add\n      0x20\n      dup1\n      swap2\n      div\n      mul\n      0x20\n      add\n      mload(0x40)\n      swap1\n      dup2\n      add\n      0x40\n      mstore\n      dup1\n      swap3\n      swap2\n      swap1\n      dup2\n      dup2\n      mstore\n      0x20\n      add\n      dup3\n      dup1\n      sload\n      tag_79\n      swap1\n      tag_60\n      jump\t// in\n    tag_79:\n      dup1\n      iszero\n      tag_80\n      jumpi\n      dup1\n      0x1f\n      lt\n      tag_81\n      jumpi\n      0x0100\n      dup1\n      dup4\n      sload\n      div\n      mul\n      dup4\n      mstore\n      swap2\n      0x20\n      add\n      swap2\n      jump(tag_80)\n    tag_81:\n      dup3\n      add\n      swap2\n      swap1\n      0x00\n      mstore\n      keccak256(0x00, 0x20)\n      swap1\n    tag_82:\n      dup2\n      sload\n      dup2\n      mstore\n      swap1\n      0x01\n      add\n      swap1\n      0x20\n      add\n      dup1\n      dup4\n      gt\n      tag_82\n      jumpi\n      dup3\n      swap1\n      sub\n      0x1f\n      and\n      dup3\n      add\n      swap2\n    tag_80:\n      pop\n      pop\n      pop\n      pop\n      pop\n      dup2\n      mstore\n      0x20\n      add\n      0x02\n      dup3\n      add\n      0x00\n      swap1\n      sload\n      swap1\n      0x0100\n      exp\n      swap1\n      div\n      0xffffffffffffffffffffffffffffffffffffffff\n      and\n      0xffffffffffffffffffffffffffffffffffffffff\n      and\n      0xffffffffffffffffffffffffffffffffffffffff\n      and\n      dup2\n      mstore\n      0x20\n      add\n      0x03\n      dup3\n      add\n      sload\n      dup2\n      mstore\n      0x20\n      add\n      0x04\n      dup3\n      add\n      0x00\n      swap1\n      sload\n      swap1\n      0x0100\n      exp\n      swap1\n      div\n      0xff\n      and\n      iszero\n      iszero\n      iszero\n      iszero\n      dup2\n      mstore\n      pop\n      pop\n      swap1\n      pop\n        /* \"contracts/ProductRegistry.sol\":2114:2233  function getProduct(uint256 productId) public view returns (Product memory) {... */\n      swap2\n      swap1\n      pop\n      jump\t// out\n        /* \"contracts/ProductRegistry.sol\":1396:1817  function transferProduct(uint256 productId, address to) public nonReentrant {... */\n    tag_44:\n        /* \"@openzeppelin/contracts/security/ReentrancyGuard.sol\":2261:2282  _nonReentrantBefore() */\n      tag_84\n        /* \"@openzeppelin/contracts/security/ReentrancyGuard.sol\":2261:2280  _nonReentrantBefore */\n      tag_85\n        /* \"@openzeppelin/contracts/security/ReentrancyGuard.sol\":2261:2282  _nonReentrantBefore() */\n      jump\t// in\n    tag_84:\n        /* \"contracts/ProductRegistry.sol\":1526:1536  msg.sender */\n      caller\n        /* \"contracts/ProductRegistry.sol\":1490:1536  products[productId].currentOwner == msg.sender */\n      0xffffffffffffffffffffffffffffffffffffffff\n      and\n        /* \"contracts/ProductRegistry.sol\":1490:1498  products */\n      0x02\n        /* \"contracts/ProductRegistry.sol\":1490:1509  products[productId] */\n      0x00\n        /* \"contracts/ProductRegistry.sol\":1499:1508  productId */\n      dup5\n        /* \"contracts/ProductRegistry.sol\":1490:1509  products[productId] */\n      dup2\n      mstore\n      0x20\n      add\n      swap1\n      dup2\n      mstore\n      0x20\n      add\n      0x00\n      keccak256\n        /* \"contracts/ProductRegistry.sol\":1490:1522  products[productId].currentOwner */\n      0x02\n      add\n      0x00\n      swap1\n      sload\n      swap1\n      0x0100\n      exp\n      swap1\n      div\n      0xffffffffffffffffffffffffffffffffffffffff\n      and\n        /* \"contracts/ProductRegistry.sol\":1490:1536  products[productId].currentOwner == msg.sender */\n      0xffffffffffffffffffffffffffffffffffffffff\n      and\n      eq\n        /* \"contracts/ProductRegistry.sol\":1482:1578  require(products[productId].currentOwner == msg.sender, \"You are not the owner of this product\") */\n      tag_87\n      jumpi\n      mload(0x40)\n      0x08c379a000000000000000000000000000000000000000000000000000000000\n      dup2\n      mstore\n      0x04\n      add\n      tag_88\n      swap1\n      tag_89\n      jump\t// in\n    tag_88:\n      mload(0x40)\n      dup1\n      swap2\n      sub\n      swap1\n      revert\n    tag_87:\n        /* \"contracts/ProductRegistry.sol\":1610:1611  0 */\n      0x00\n        /* \"contracts/ProductRegistry.sol\":1596:1612  to != address(0) */\n      0xffffffffffffffffffffffffffffffffffffffff\n      and\n        /* \"contracts/ProductRegistry.sol\":1596:1598  to */\n      dup2\n        /* \"contracts/ProductRegistry.sol\":1596:1612  to != address(0) */\n      0xffffffffffffffffffffffffffffffffffffffff\n      and\n      sub\n        /* \"contracts/ProductRegistry.sol\":1588:1632  require(to != address(0), \"Invalid address\") */\n      tag_90\n      jumpi\n      mload(0x40)\n      0x08c379a000000000000000000000000000000000000000000000000000000000\n      dup2\n      mstore\n      0x04\n      add\n      tag_91\n      swap1\n      tag_92\n      jump\t// in\n    tag_91:\n      mload(0x40)\n      dup1\n      swap2\n      sub\n      swap1\n      revert\n    tag_90:\n        /* \"contracts/ProductRegistry.sol\":1643:1664  address previousOwner */\n      0x00\n        /* \"contracts/ProductRegistry.sol\":1667:1675  products */\n      0x02\n        /* \"contracts/ProductRegistry.sol\":1667:1686  products[productId] */\n      0x00\n        /* \"contracts/ProductRegistry.sol\":1676:1685  productId */\n      dup5\n        /* \"contracts/ProductRegistry.sol\":1667:1686  products[productId] */\n      dup2\n      mstore\n      0x20\n      add\n      swap1\n      dup2\n      mstore\n      0x20\n      add\n      0x00\n      keccak256\n        /* \"contracts/ProductRegistry.sol\":1667:1699  products[productId].currentOwner */\n      0x02\n      add\n      0x00\n      swap1\n      sload\n      swap1\n      0x0100\n      exp\n      swap1\n      div\n      0xffffffffffffffffffffffffffffffffffffffff\n      and\n        /* \"contracts/ProductRegistry.sol\":1643:1699  address previousOwner = products[productId].currentOwner */\n      swap1\n      pop\n        /* \"contracts/ProductRegistry.sol\":1744:1746  to */\n      dup2\n        /* \"contracts/ProductRegistry.sol\":1709:1717  products */\n      0x02\n        /* \"contracts/ProductRegistry.sol\":1709:1728  products[productId] */\n      0x00\n        /* \"contracts/ProductRegistry.sol\":1718:1727  productId */\n      dup6\n        /* \"contracts/ProductRegistry.sol\":1709:1728  products[productId] */\n      dup2\n      mstore\n      0x20\n      add\n      swap1\n      dup2\n      mstore\n      0x20\n      add\n      0x00\n      keccak256\n        /* \"contracts/ProductRegistry.sol\":1709:1741  products[productId].currentOwner */\n      0x02\n      add\n      0x00\n        /* \"contracts/ProductRegistry.sol\":1709:1746  products[productId].currentOwner = to */\n      0x0100\n      exp\n      dup2\n      sload\n      dup2\n      0xffffffffffffffffffffffffffffffffffffffff\n      mul\n      not\n      and\n      swap1\n      dup4\n      0xffffffffffffffffffffffffffffffffffffffff\n      and\n      mul\n      or\n      swap1\n      sstore\n      pop\n        /* \"contracts/ProductRegistry.sol\":1807:1809  to */\n      dup2\n        /* \"contracts/ProductRegistry.sol\":1762:1810  ProductTransferred(productId, previousOwner, to) */\n      0xffffffffffffffffffffffffffffffffffffffff\n      and\n        /* \"contracts/ProductRegistry.sol\":1792:1805  previousOwner */\n      dup2\n        /* \"contracts/ProductRegistry.sol\":1762:1810  ProductTransferred(productId, previousOwner, to) */\n      0xffffffffffffffffffffffffffffffffffffffff\n      and\n      0xcef86d37ba3dc1d682967cde44d8050488734bf53166725b220b4d2e515e9e93\n        /* \"contracts/ProductRegistry.sol\":1781:1790  productId */\n      dup6\n        /* \"contracts/ProductRegistry.sol\":1762:1810  ProductTransferred(productId, previousOwner, to) */\n      mload(0x40)\n      tag_93\n      swap2\n      swap1\n      tag_16\n      jump\t// in\n    tag_93:\n      mload(0x40)\n      dup1\n      swap2\n      sub\n      swap1\n      log3\n        /* \"contracts/ProductRegistry.sol\":1472:1817  {... */\n      pop\n        /* \"@openzeppelin/contracts/security/ReentrancyGuard.sol\":2303:2323  _nonReentrantAfter() */\n      tag_94\n        /* \"@openzeppelin/contracts/security/ReentrancyGuard.sol\":2303:2321  _nonReentrantAfter */\n      tag_95\n        /* \"@openzeppelin/contracts/security/ReentrancyGuard.sol\":2303:2323  _nonReentrantAfter() */\n      jump\t// in\n    tag_94:\n        /* \"contracts/ProductRegistry.sol\":1396:1817  function transferProduct(uint256 productId, address to) public nonReentrant {... */\n      pop\n      pop\n      jump\t// out\n        /* \"@openzeppelin/contracts/access/Ownable.sol\":2543:2758  function transferOwnership(address newOwner) public virtual onlyOwner {... */\n    tag_48:\n        /* \"@openzeppelin/contracts/access/Ownable.sol\":1531:1544  _checkOwner() */\n      tag_97\n        /* \"@openzeppelin/contracts/access/Ownable.sol\":1531:1542  _checkOwner */\n      tag_55\n        /* \"@openzeppelin/contracts/access/Ownable.sol\":1531:1544  _checkOwner() */\n      jump\t// in\n    tag_97:\n        /* \"@openzeppelin/contracts/access/Ownable.sol\":2647:2648  0 */\n      0x00\n        /* \"@openzeppelin/contracts/access/Ownable.sol\":2627:2649  newOwner == address(0) */\n      0xffffffffffffffffffffffffffffffffffffffff\n      and\n        /* \"@openzeppelin/contracts/access/Ownable.sol\":2627:2635  newOwner */\n      dup2\n        /* \"@openzeppelin/contracts/access/Ownable.sol\":2627:2649  newOwner == address(0) */\n      0xffffffffffffffffffffffffffffffffffffffff\n      and\n      sub\n        /* \"@openzeppelin/contracts/access/Ownable.sol\":2623:2714  if (newOwner == address(0)) {... */\n      tag_99\n      jumpi\n        /* \"@openzeppelin/contracts/access/Ownable.sol\":2700:2701  0 */\n      0x00\n        /* \"@openzeppelin/contracts/access/Ownable.sol\":2672:2703  OwnableInvalidOwner(address(0)) */\n      mload(0x40)\n      0x1e4fbdf700000000000000000000000000000000000000000000000000000000\n      dup2\n      mstore\n      0x04\n      add\n      tag_100\n      swap2\n      swap1\n      tag_35\n      jump\t// in\n    tag_100:\n      mload(0x40)\n      dup1\n      swap2\n      sub\n      swap1\n      revert\n        /* \"@openzeppelin/contracts/access/Ownable.sol\":2623:2714  if (newOwner == address(0)) {... */\n    tag_99:\n        /* \"@openzeppelin/contracts/access/Ownable.sol\":2723:2751  _transferOwnership(newOwner) */\n      tag_101\n        /* \"@openzeppelin/contracts/access/Ownable.sol\":2742:2750  newOwner */\n      dup2\n        /* \"@openzeppelin/contracts/access/Ownable.sol\":2723:2741  _transferOwnership */\n      tag_58\n        /* \"@openzeppelin/contracts/access/Ownable.sol\":2723:2751  _transferOwnership(newOwner) */\n      jump\t// in\n    tag_101:\n        /* \"@openzeppelin/contracts/access/Ownable.sol\":2543:2758  function transferOwnership(address newOwner) public virtual onlyOwner {... */\n      pop\n      jump\t// out\n        /* \"@openzeppelin/contracts/access/Ownable.sol\":1796:1958  function _checkOwner() internal view virtual {... */\n    tag_55:\n        /* \"@openzeppelin/contracts/access/Ownable.sol\":1866:1878  _msgSender() */\n      tag_103\n        /* \"@openzeppelin/contracts/access/Ownable.sol\":1866:1876  _msgSender */\n      tag_104\n        /* \"@openzeppelin/contracts/access/Ownable.sol\":1866:1878  _msgSender() */\n      jump\t// in\n    tag_103:\n        /* \"@openzeppelin/contracts/access/Ownable.sol\":1855:1878  owner() != _msgSender() */\n      0xffffffffffffffffffffffffffffffffffffffff\n      and\n        /* \"@openzeppelin/contracts/access/Ownable.sol\":1855:1862  owner() */\n      tag_105\n        /* \"@openzeppelin/contracts/access/Ownable.sol\":1855:1860  owner */\n      tag_33\n        /* \"@openzeppelin/contracts/access/Ownable.sol\":1855:1862  owner() */\n      jump\t// in\n    tag_105:\n        /* \"@openzeppelin/contracts/access/Ownable.sol\":1855:1878  owner() != _msgSender() */\n      0xffffffffffffffffffffffffffffffffffffffff\n      and\n      eq\n        /* \"@openzeppelin/contracts/access/Ownable.sol\":1851:1952  if (owner() != _msgSender()) {... */\n      tag_106\n      jumpi\n        /* \"@openzeppelin/contracts/access/Ownable.sol\":1928:1940  _msgSender() */\n      tag_107\n        /* \"@openzeppelin/contracts/access/Ownable.sol\":1928:1938  _msgSender */\n      tag_104\n        /* \"@openzeppelin/contracts/access/Ownable.sol\":1928:1940  _msgSender() */\n      jump\t// in\n    tag_107:\n        /* \"@openzeppelin/contracts/access/Ownable.sol\":1901:1941  OwnableUnauthorizedAccount(_msgSender()) */\n      mload(0x40)\n      0x118cdaa700000000000000000000000000000000000000000000000000000000\n      dup2\n      mstore\n      0x04\n      add\n      tag_108\n      swap2\n      swap1\n      tag_35\n      jump\t// in\n    tag_108:\n      mload(0x40)\n      dup1\n      swap2\n      sub\n      swap1\n      revert\n        /* \"@openzeppelin/contracts/access/Ownable.sol\":1851:1952  if (owner() != _msgSender()) {... */\n    tag_106:\n        /* \"@openzeppelin/contracts/access/Ownable.sol\":1796:1958  function _checkOwner() internal view virtual {... */\n      jump\t// out\n        /* \"@openzeppelin/contracts/access/Ownable.sol\":2912:3099  function _transferOwnership(address newOwner) internal virtual {... */\n    tag_58:\n        /* \"@openzeppelin/contracts/access/Ownable.sol\":2985:3001  address oldOwner */\n      0x00\n        /* \"@openzeppelin/contracts/access/Ownable.sol\":3004:3010  _owner */\n      dup1\n      0x00\n      swap1\n      sload\n      swap1\n      0x0100\n      exp\n      swap1\n      div\n      0xffffffffffffffffffffffffffffffffffffffff\n      and\n        /* \"@openzeppelin/contracts/access/Ownable.sol\":2985:3010  address oldOwner = _owner */\n      swap1\n      pop\n        /* \"@openzeppelin/contracts/access/Ownable.sol\":3029:3037  newOwner */\n      dup2\n        /* \"@openzeppelin/contracts/access/Ownable.sol\":3020:3026  _owner */\n      0x00\n      dup1\n        /* \"@openzeppelin/contracts/access/Ownable.sol\":3020:3037  _owner = newOwner */\n      0x0100\n      exp\n      dup2\n      sload\n      dup2\n      0xffffffffffffffffffffffffffffffffffffffff\n      mul\n      not\n      and\n      swap1\n      dup4\n      0xffffffffffffffffffffffffffffffffffffffff\n      and\n      mul\n      or\n      swap1\n      sstore\n      pop\n        /* \"@openzeppelin/contracts/access/Ownable.sol\":3083:3091  newOwner */\n      dup2\n        /* \"@openzeppelin/contracts/access/Ownable.sol\":3052:3092  OwnershipTransferred(oldOwner, newOwner) */\n      0xffffffffffffffffffffffffffffffffffffffff\n      and\n        /* \"@openzeppelin/contracts/access/Ownable.sol\":3073:3081  oldOwner */\n      dup2\n        /* \"@openzeppelin/contracts/access/Ownable.sol\":3052:3092  OwnershipTransferred(oldOwner, newOwner) */\n      0xffffffffffffffffffffffffffffffffffffffff\n      and\n      0x8be0079c531659141344cd1fd0a4f28419497f9722a3daafe3b4186f6b6457e0\n      mload(0x40)\n      mload(0x40)\n      dup1\n      swap2\n      sub\n      swap1\n      log3\n        /* \"@openzeppelin/contracts/access/Ownable.sol\":2975:3099  {... */\n      pop\n        /* \"@openzeppelin/contracts/access/Ownable.sol\":2912:3099  function _transferOwnership(address newOwner) internal virtual {... */\n      pop\n      jump\t// out\n        /* \"@openzeppelin/contracts/security/ReentrancyGuard.sol\":2336:2623  function _nonReentrantBefore() private {... */\n    tag_85:\n        /* \"@openzeppelin/contracts/security/ReentrancyGuard.sol\":1759:1760  2 */\n      0x02\n        /* \"@openzeppelin/contracts/security/ReentrancyGuard.sol\":2468:2475  _status */\n      sload(0x01)\n        /* \"@openzeppelin/contracts/security/ReentrancyGuard.sol\":2468:2487  _status != _ENTERED */\n      sub\n        /* \"@openzeppelin/contracts/security/ReentrancyGuard.sol\":2460:2523  require(_status != _ENTERED, \"ReentrancyGuard: reentrant call\") */\n      tag_111\n      jumpi\n      mload(0x40)\n      0x08c379a000000000000000000000000000000000000000000000000000000000\n      dup2\n      mstore\n      0x04\n      add\n      tag_112\n      swap1\n      tag_113\n      jump\t// in\n    tag_112:\n      mload(0x40)\n      dup1\n      swap2\n      sub\n      swap1\n      revert\n    tag_111:\n        /* \"@openzeppelin/contracts/security/ReentrancyGuard.sol\":1759:1760  2 */\n      0x02\n        /* \"@openzeppelin/contracts/security/ReentrancyGuard.sol\":2598:2605  _status */\n      0x01\n        /* \"@openzeppelin/contracts/security/ReentrancyGuard.sol\":2598:2616  _status = _ENTERED */\n      dup2\n      swap1\n      sstore\n      pop\n        /* \"@openzeppelin/contracts/security/ReentrancyGuard.sol\":2336:2623  function _nonReentrantBefore() private {... */\n      jump\t// out\n        /* \"@openzeppelin/contracts/security/ReentrancyGuard.sol\":2629:2838  function _nonReentrantAfter() private {... */\n    tag_95:\n        /* \"@openzeppelin/contracts/security/ReentrancyGuard.sol\":1716:1717  1 */\n      0x01\n        /* \"@openzeppelin/contracts/security/ReentrancyGuard.sol\":2809:2816  _status */\n      dup1\n        /* \"@openzeppelin/contracts/security/ReentrancyGuard.sol\":2809:2831  _status = _NOT_ENTERED */\n      dup2\n      swap1\n      sstore\n      pop\n        /* \"@openzeppelin/contracts/security/ReentrancyGuard.sol\":2629:2838  function _nonReentrantAfter() private {... */\n      jump\t// out\n        /* \"@openzeppelin/contracts/utils/Context.sol\":656:752  function _msgSender() internal view virtual returns (address) {... */\n    tag_104:\n        /* \"@openzeppelin/contracts/utils/Context.sol\":709:716  address */\n      0x00\n        /* \"@openzeppelin/contracts/utils/Context.sol\":735:745  msg.sender */\n      caller\n        /* \"@openzeppelin/contracts/utils/Context.sol\":728:745  return msg.sender */\n      swap1\n      pop\n        /* \"@openzeppelin/contracts/utils/Context.sol\":656:752  function _msgSender() internal view virtual returns (address) {... */\n      swap1\n      jump\t// out\n    tag_76:\n      mload(0x40)\n      dup1\n      0xa0\n      add\n      0x40\n      mstore\n      dup1\n      0x00\n      dup2\n      mstore\n      0x20\n      add\n      0x60\n      dup2\n      mstore\n      0x20\n      add\n      and(0xffffffffffffffffffffffffffffffffffffffff, 0x00)\n      dup2\n      mstore\n      0x20\n      add\n      0x00\n      dup2\n      mstore\n      0x20\n      add\n      iszero(iszero(0x00))\n      dup2\n      mstore\n      pop\n      swap1\n      jump\t// out\n        /* \"#utility.yul\":7:84   */\n    tag_116:\n        /* \"#utility.yul\":44:51   */\n      0x00\n        /* \"#utility.yul\":73:78   */\n      dup2\n        /* \"#utility.yul\":62:78   */\n      swap1\n      pop\n        /* \"#utility.yul\":7:84   */\n      swap2\n      swap1\n      pop\n      jump\t// out\n        /* \"#utility.yul\":90:208   */\n    tag_117:\n        /* \"#utility.yul\":177:201   */\n      tag_178\n        /* \"#utility.yul\":195:200   */\n      dup2\n        /* \"#utility.yul\":177:201   */\n      tag_116\n      jump\t// in\n    tag_178:\n        /* \"#utility.yul\":172:175   */\n      dup3\n        /* \"#utility.yul\":165:202   */\n      mstore\n        /* \"#utility.yul\":90:208   */\n      pop\n      pop\n      jump\t// out\n        /* \"#utility.yul\":214:436   */\n    tag_16:\n        /* \"#utility.yul\":307:311   */\n      0x00\n        /* \"#utility.yul\":345:347   */\n      0x20\n        /* \"#utility.yul\":334:343   */\n      dup3\n        /* \"#utility.yul\":330:348   */\n      add\n        /* \"#utility.yul\":322:348   */\n      swap1\n      pop\n        /* \"#utility.yul\":358:429   */\n      tag_180\n        /* \"#utility.yul\":426:427   */\n      0x00\n        /* \"#utility.yul\":415:424   */\n      dup4\n        /* \"#utility.yul\":411:428   */\n      add\n        /* \"#utility.yul\":402:408   */\n      dup5\n        /* \"#utility.yul\":358:429   */\n      tag_117\n      jump\t// in\n    tag_180:\n        /* \"#utility.yul\":214:436   */\n      swap3\n      swap2\n      pop\n      pop\n      jump\t// out\n        /* \"#utility.yul\":442:517   */\n    tag_118:\n        /* \"#utility.yul\":475:481   */\n      0x00\n        /* \"#utility.yul\":508:510   */\n      0x40\n        /* \"#utility.yul\":502:511   */\n      mload\n        /* \"#utility.yul\":492:511   */\n      swap1\n      pop\n        /* \"#utility.yul\":442:517   */\n      swap1\n      jump\t// out\n        /* \"#utility.yul\":523:640   */\n    tag_119:\n        /* \"#utility.yul\":632:633   */\n      0x00\n        /* \"#utility.yul\":629:630   */\n      dup1\n        /* \"#utility.yul\":622:634   */\n      revert\n        /* \"#utility.yul\":646:763   */\n    tag_120:\n        /* \"#utility.yul\":755:756   */\n      0x00\n        /* \"#utility.yul\":752:753   */\n      dup1\n        /* \"#utility.yul\":745:757   */\n      revert\n        /* \"#utility.yul\":769:891   */\n    tag_121:\n        /* \"#utility.yul\":842:866   */\n      tag_185\n        /* \"#utility.yul\":860:865   */\n      dup2\n        /* \"#utility.yul\":842:866   */\n      tag_116\n      jump\t// in\n    tag_185:\n        /* \"#utility.yul\":835:840   */\n      dup2\n        /* \"#utility.yul\":832:867   */\n      eq\n        /* \"#utility.yul\":822:885   */\n      tag_186\n      jumpi\n        /* \"#utility.yul\":881:882   */\n      0x00\n        /* \"#utility.yul\":878:879   */\n      dup1\n        /* \"#utility.yul\":871:883   */\n      revert\n        /* \"#utility.yul\":822:885   */\n    tag_186:\n        /* \"#utility.yul\":769:891   */\n      pop\n      jump\t// out\n        /* \"#utility.yul\":897:1036   */\n    tag_122:\n        /* \"#utility.yul\":943:948   */\n      0x00\n        /* \"#utility.yul\":981:987   */\n      dup2\n        /* \"#utility.yul\":968:988   */\n      calldataload\n        /* \"#utility.yul\":959:988   */\n      swap1\n      pop\n        /* \"#utility.yul\":997:1030   */\n      tag_188\n        /* \"#utility.yul\":1024:1029   */\n      dup2\n        /* \"#utility.yul\":997:1030   */\n      tag_121\n      jump\t// in\n    tag_188:\n        /* \"#utility.yul\":897:1036   */\n      swap3\n      swap2\n      pop\n      pop\n      jump\t// out\n        /* \"#utility.yul\":1042:1371   */\n    tag_19:\n        /* \"#utility.yul\":1101:1107   */\n      0x00\n        /* \"#utility.yul\":1150:1152   */\n      0x20\n        /* \"#utility.yul\":1138:1147   */\n      dup3\n        /* \"#utility.yul\":1129:1136   */\n      dup5\n        /* \"#utility.yul\":1125:1148   */\n      sub\n        /* \"#utility.yul\":1121:1153   */\n      slt\n        /* \"#utility.yul\":1118:1237   */\n      iszero\n      tag_190\n      jumpi\n        /* \"#utility.yul\":1156:1235   */\n      tag_191\n      tag_119\n      jump\t// in\n    tag_191:\n        /* \"#utility.yul\":1118:1237   */\n    tag_190:\n        /* \"#utility.yul\":1276:1277   */\n      0x00\n        /* \"#utility.yul\":1301:1354   */\n      tag_192\n        /* \"#utility.yul\":1346:1353   */\n      dup5\n        /* \"#utility.yul\":1337:1343   */\n      dup3\n        /* \"#utility.yul\":1326:1335   */\n      dup6\n        /* \"#utility.yul\":1322:1344   */\n      add\n        /* \"#utility.yul\":1301:1354   */\n      tag_122\n      jump\t// in\n    tag_192:\n        /* \"#utility.yul\":1291:1354   */\n      swap2\n      pop\n        /* \"#utility.yul\":1247:1364   */\n      pop\n        /* \"#utility.yul\":1042:1371   */\n      swap3\n      swap2\n      pop\n      pop\n      jump\t// out\n        /* \"#utility.yul\":1377:1476   */\n    tag_123:\n        /* \"#utility.yul\":1429:1435   */\n      0x00\n        /* \"#utility.yul\":1463:1468   */\n      dup2\n        /* \"#utility.yul\":1457:1469   */\n      mload\n        /* \"#utility.yul\":1447:1469   */\n      swap1\n      pop\n        /* \"#utility.yul\":1377:1476   */\n      swap2\n      swap1\n      pop\n      jump\t// out\n        /* \"#utility.yul\":1482:1651   */\n    tag_124:\n        /* \"#utility.yul\":1566:1577   */\n      0x00\n        /* \"#utility.yul\":1600:1606   */\n      dup3\n        /* \"#utility.yul\":1595:1598   */\n      dup3\n        /* \"#utility.yul\":1588:1607   */\n      mstore\n        /* \"#utility.yul\":1640:1644   */\n      0x20\n        /* \"#utility.yul\":1635:1638   */\n      dup3\n        /* \"#utility.yul\":1631:1645   */\n      add\n        /* \"#utility.yul\":1616:1645   */\n      swap1\n      pop\n        /* \"#utility.yul\":1482:1651   */\n      swap3\n      swap2\n      pop\n      pop\n      jump\t// out\n        /* \"#utility.yul\":1657:1796   */\n    tag_125:\n        /* \"#utility.yul\":1746:1752   */\n      dup3\n        /* \"#utility.yul\":1741:1744   */\n      dup2\n        /* \"#utility.yul\":1736:1739   */\n      dup4\n        /* \"#utility.yul\":1730:1753   */\n      mcopy\n        /* \"#utility.yul\":1787:1788   */\n      0x00\n        /* \"#utility.yul\":1778:1784   */\n      dup4\n        /* \"#utility.yul\":1773:1776   */\n      dup4\n        /* \"#utility.yul\":1769:1785   */\n      add\n        /* \"#utility.yul\":1762:1789   */\n      mstore\n        /* \"#utility.yul\":1657:1796   */\n      pop\n      pop\n      pop\n      jump\t// out\n        /* \"#utility.yul\":1802:1904   */\n    tag_126:\n        /* \"#utility.yul\":1843:1849   */\n      0x00\n        /* \"#utility.yul\":1894:1896   */\n      0x1f\n        /* \"#utility.yul\":1890:1897   */\n      not\n        /* \"#utility.yul\":1885:1887   */\n      0x1f\n        /* \"#utility.yul\":1878:1883   */\n      dup4\n        /* \"#utility.yul\":1874:1888   */\n      add\n        /* \"#utility.yul\":1870:1898   */\n      and\n        /* \"#utility.yul\":1860:1898   */\n      swap1\n      pop\n        /* \"#utility.yul\":1802:1904   */\n      swap2\n      swap1\n      pop\n      jump\t// out\n        /* \"#utility.yul\":1910:2287   */\n    tag_127:\n        /* \"#utility.yul\":1998:2001   */\n      0x00\n        /* \"#utility.yul\":2026:2065   */\n      tag_198\n        /* \"#utility.yul\":2059:2064   */\n      dup3\n        /* \"#utility.yul\":2026:2065   */\n      tag_123\n      jump\t// in\n    tag_198:\n        /* \"#utility.yul\":2081:2152   */\n      tag_199\n        /* \"#utility.yul\":2145:2151   */\n      dup2\n        /* \"#utility.yul\":2140:2143   */\n      dup6\n        /* \"#utility.yul\":2081:2152   */\n      tag_124\n      jump\t// in\n    tag_199:\n        /* \"#utility.yul\":2074:2152   */\n      swap4\n      pop\n        /* \"#utility.yul\":2161:2226   */\n      tag_200\n        /* \"#utility.yul\":2219:2225   */\n      dup2\n        /* \"#utility.yul\":2214:2217   */\n      dup6\n        /* \"#utility.yul\":2207:2211   */\n      0x20\n        /* \"#utility.yul\":2200:2205   */\n      dup7\n        /* \"#utility.yul\":2196:2212   */\n      add\n        /* \"#utility.yul\":2161:2226   */\n      tag_125\n      jump\t// in\n    tag_200:\n        /* \"#utility.yul\":2251:2280   */\n      tag_201\n        /* \"#utility.yul\":2273:2279   */\n      dup2\n        /* \"#utility.yul\":2251:2280   */\n      tag_126\n      jump\t// in\n    tag_201:\n        /* \"#utility.yul\":2246:2249   */\n      dup5\n        /* \"#utility.yul\":2242:2281   */\n      add\n        /* \"#utility.yul\":2235:2281   */\n      swap2\n      pop\n        /* \"#utility.yul\":2002:2287   */\n      pop\n        /* \"#utility.yul\":1910:2287   */\n      swap3\n      swap2\n      pop\n      pop\n      jump\t// out\n        /* \"#utility.yul\":2293:2419   */\n    tag_128:\n        /* \"#utility.yul\":2330:2337   */\n      0x00\n        /* \"#utility.yul\":2370:2412   */\n      0xffffffffffffffffffffffffffffffffffffffff\n        /* \"#utility.yul\":2363:2368   */\n      dup3\n        /* \"#utility.yul\":2359:2413   */\n      and\n        /* \"#utility.yul\":2348:2413   */\n      swap1\n      pop\n        /* \"#utility.yul\":2293:2419   */\n      swap2\n      swap1\n      pop\n      jump\t// out\n        /* \"#utility.yul\":2425:2521   */\n    tag_129:\n        /* \"#utility.yul\":2462:2469   */\n      0x00\n        /* \"#utility.yul\":2491:2515   */\n      tag_204\n        /* \"#utility.yul\":2509:2514   */\n      dup3\n        /* \"#utility.yul\":2491:2515   */\n      tag_128\n      jump\t// in\n    tag_204:\n        /* \"#utility.yul\":2480:2515   */\n      swap1\n      pop\n        /* \"#utility.yul\":2425:2521   */\n      swap2\n      swap1\n      pop\n      jump\t// out\n        /* \"#utility.yul\":2527:2645   */\n    tag_130:\n        /* \"#utility.yul\":2614:2638   */\n      tag_206\n        /* \"#utility.yul\":2632:2637   */\n      dup2\n        /* \"#utility.yul\":2614:2638   */\n      tag_129\n      jump\t// in\n    tag_206:\n        /* \"#utility.yul\":2609:2612   */\n      dup3\n        /* \"#utility.yul\":2602:2639   */\n      mstore\n        /* \"#utility.yul\":2527:2645   */\n      pop\n      pop\n      jump\t// out\n        /* \"#utility.yul\":2651:2741   */\n    tag_131:\n        /* \"#utility.yul\":2685:2692   */\n      0x00\n        /* \"#utility.yul\":2728:2733   */\n      dup2\n        /* \"#utility.yul\":2721:2734   */\n      iszero\n        /* \"#utility.yul\":2714:2735   */\n      iszero\n        /* \"#utility.yul\":2703:2735   */\n      swap1\n      pop\n        /* \"#utility.yul\":2651:2741   */\n      swap2\n      swap1\n      pop\n      jump\t// out\n        /* \"#utility.yul\":2747:2856   */\n    tag_132:\n        /* \"#utility.yul\":2828:2849   */\n      tag_209\n        /* \"#utility.yul\":2843:2848   */\n      dup2\n        /* \"#utility.yul\":2828:2849   */\n      tag_131\n      jump\t// in\n    tag_209:\n        /* \"#utility.yul\":2823:2826   */\n      dup3\n        /* \"#utility.yul\":2816:2850   */\n      mstore\n        /* \"#utility.yul\":2747:2856   */\n      pop\n      pop\n      jump\t// out\n        /* \"#utility.yul\":2862:3605   */\n    tag_27:\n        /* \"#utility.yul\":3081:3085   */\n      0x00\n        /* \"#utility.yul\":3119:3122   */\n      0xa0\n        /* \"#utility.yul\":3108:3117   */\n      dup3\n        /* \"#utility.yul\":3104:3123   */\n      add\n        /* \"#utility.yul\":3096:3123   */\n      swap1\n      pop\n        /* \"#utility.yul\":3133:3204   */\n      tag_211\n        /* \"#utility.yul\":3201:3202   */\n      0x00\n        /* \"#utility.yul\":3190:3199   */\n      dup4\n        /* \"#utility.yul\":3186:3203   */\n      add\n        /* \"#utility.yul\":3177:3183   */\n      dup9\n        /* \"#utility.yul\":3133:3204   */\n      tag_117\n      jump\t// in\n    tag_211:\n        /* \"#utility.yul\":3251:3260   */\n      dup2\n        /* \"#utility.yul\":3245:3249   */\n      dup2\n        /* \"#utility.yul\":3241:3261   */\n      sub\n        /* \"#utility.yul\":3236:3238   */\n      0x20\n        /* \"#utility.yul\":3225:3234   */\n      dup4\n        /* \"#utility.yul\":3221:3239   */\n      add\n        /* \"#utility.yul\":3214:3262   */\n      mstore\n        /* \"#utility.yul\":3279:3357   */\n      tag_212\n        /* \"#utility.yul\":3352:3356   */\n      dup2\n        /* \"#utility.yul\":3343:3349   */\n      dup8\n        /* \"#utility.yul\":3279:3357   */\n      tag_127\n      jump\t// in\n    tag_212:\n        /* \"#utility.yul\":3271:3357   */\n      swap1\n      pop\n        /* \"#utility.yul\":3367:3439   */\n      tag_213\n        /* \"#utility.yul\":3435:3437   */\n      0x40\n        /* \"#utility.yul\":3424:3433   */\n      dup4\n        /* \"#utility.yul\":3420:3438   */\n      add\n        /* \"#utility.yul\":3411:3417   */\n      dup7\n        /* \"#utility.yul\":3367:3439   */\n      tag_130\n      jump\t// in\n    tag_213:\n        /* \"#utility.yul\":3449:3521   */\n      tag_214\n        /* \"#utility.yul\":3517:3519   */\n      0x60\n        /* \"#utility.yul\":3506:3515   */\n      dup4\n        /* \"#utility.yul\":3502:3520   */\n      add\n        /* \"#utility.yul\":3493:3499   */\n      dup6\n        /* \"#utility.yul\":3449:3521   */\n      tag_117\n      jump\t// in\n    tag_214:\n        /* \"#utility.yul\":3531:3598   */\n      tag_215\n        /* \"#utility.yul\":3593:3596   */\n      0x80\n        /* \"#utility.yul\":3582:3591   */\n      dup4\n        /* \"#utility.yul\":3578:3597   */\n      add\n        /* \"#utility.yul\":3569:3575   */\n      dup5\n        /* \"#utility.yul\":3531:3598   */\n      tag_132\n      jump\t// in\n    tag_215:\n        /* \"#utility.yul\":2862:3605   */\n      swap7\n      swap6\n      pop\n      pop\n      pop\n      pop\n      pop\n      pop\n      jump\t// out\n        /* \"#utility.yul\":3611:3728   */\n    tag_133:\n        /* \"#utility.yul\":3720:3721   */\n      0x00\n        /* \"#utility.yul\":3717:3718   */\n      dup1\n        /* \"#utility.yul\":3710:3722   */\n      revert\n        /* \"#utility.yul\":3734:3851   */\n    tag_134:\n        /* \"#utility.yul\":3843:3844   */\n      0x00\n        /* \"#utility.yul\":3840:3841   */\n      dup1\n        /* \"#utility.yul\":3833:3845   */\n      revert\n        /* \"#utility.yul\":3857:4037   */\n    tag_135:\n        /* \"#utility.yul\":3905:3982   */\n      0x4e487b7100000000000000000000000000000000000000000000000000000000\n        /* \"#utility.yul\":3902:3903   */\n      0x00\n        /* \"#utility.yul\":3895:3983   */\n      mstore\n        /* \"#utility.yul\":4002:4006   */\n      0x41\n        /* \"#utility.yul\":3999:4000   */\n      0x04\n        /* \"#utility.yul\":3992:4007   */\n      mstore\n        /* \"#utility.yul\":4026:4030   */\n      0x24\n        /* \"#utility.yul\":4023:4024   */\n      0x00\n        /* \"#utility.yul\":4016:4031   */\n      revert\n        /* \"#utility.yul\":4043:4324   */\n    tag_136:\n        /* \"#utility.yul\":4126:4153   */\n      tag_220\n        /* \"#utility.yul\":4148:4152   */\n      dup3\n        /* \"#utility.yul\":4126:4153   */\n      tag_126\n      jump\t// in\n    tag_220:\n        /* \"#utility.yul\":4118:4124   */\n      dup2\n        /* \"#utility.yul\":4114:4154   */\n      add\n        /* \"#utility.yul\":4256:4262   */\n      dup2\n        /* \"#utility.yul\":4244:4254   */\n      dup2\n        /* \"#utility.yul\":4241:4263   */\n      lt\n        /* \"#utility.yul\":4220:4238   */\n      0xffffffffffffffff\n        /* \"#utility.yul\":4208:4218   */\n      dup3\n        /* \"#utility.yul\":4205:4239   */\n      gt\n        /* \"#utility.yul\":4202:4264   */\n      or\n        /* \"#utility.yul\":4199:4287   */\n      iszero\n      tag_221\n      jumpi\n        /* \"#utility.yul\":4267:4285   */\n      tag_222\n      tag_135\n      jump\t// in\n    tag_222:\n        /* \"#utility.yul\":4199:4287   */\n    tag_221:\n        /* \"#utility.yul\":4307:4317   */\n      dup1\n        /* \"#utility.yul\":4303:4305   */\n      0x40\n        /* \"#utility.yul\":4296:4318   */\n      mstore\n        /* \"#utility.yul\":4086:4324   */\n      pop\n        /* \"#utility.yul\":4043:4324   */\n      pop\n      pop\n      jump\t// out\n        /* \"#utility.yul\":4330:4459   */\n    tag_137:\n        /* \"#utility.yul\":4364:4370   */\n      0x00\n        /* \"#utility.yul\":4391:4411   */\n      tag_224\n      tag_118\n      jump\t// in\n    tag_224:\n        /* \"#utility.yul\":4381:4411   */\n      swap1\n      pop\n        /* \"#utility.yul\":4420:4453   */\n      tag_225\n        /* \"#utility.yul\":4448:4452   */\n      dup3\n        /* \"#utility.yul\":4440:4446   */\n      dup3\n        /* \"#utility.yul\":4420:4453   */\n      tag_136\n      jump\t// in\n    tag_225:\n        /* \"#utility.yul\":4330:4459   */\n      swap2\n      swap1\n      pop\n      jump\t// out\n        /* \"#utility.yul\":4465:4773   */\n    tag_138:\n        /* \"#utility.yul\":4527:4531   */\n      0x00\n        /* \"#utility.yul\":4617:4635   */\n      0xffffffffffffffff\n        /* \"#utility.yul\":4609:4615   */\n      dup3\n        /* \"#utility.yul\":4606:4636   */\n      gt\n        /* \"#utility.yul\":4603:4659   */\n      iszero\n      tag_227\n      jumpi\n        /* \"#utility.yul\":4639:4657   */\n      tag_228\n      tag_135\n      jump\t// in\n    tag_228:\n        /* \"#utility.yul\":4603:4659   */\n    tag_227:\n        /* \"#utility.yul\":4677:4706   */\n      tag_229\n        /* \"#utility.yul\":4699:4705   */\n      dup3\n        /* \"#utility.yul\":4677:4706   */\n      tag_126\n      jump\t// in\n    tag_229:\n        /* \"#utility.yul\":4669:4706   */\n      swap1\n      pop\n        /* \"#utility.yul\":4761:4765   */\n      0x20\n        /* \"#utility.yul\":4755:4759   */\n      dup2\n        /* \"#utility.yul\":4751:4766   */\n      add\n        /* \"#utility.yul\":4743:4766   */\n      swap1\n      pop\n        /* \"#utility.yul\":4465:4773   */\n      swap2\n      swap1\n      pop\n      jump\t// out\n        /* \"#utility.yul\":4779:4927   */\n    tag_139:\n        /* \"#utility.yul\":4877:4883   */\n      dup3\n        /* \"#utility.yul\":4872:4875   */\n      dup2\n        /* \"#utility.yul\":4867:4870   */\n      dup4\n        /* \"#utility.yul\":4854:4884   */\n      calldatacopy\n        /* \"#utility.yul\":4918:4919   */\n      0x00\n        /* \"#utility.yul\":4909:4915   */\n      dup4\n        /* \"#utility.yul\":4904:4907   */\n      dup4\n        /* \"#utility.yul\":4900:4916   */\n      add\n        /* \"#utility.yul\":4893:4920   */\n      mstore\n        /* \"#utility.yul\":4779:4927   */\n      pop\n      pop\n      pop\n      jump\t// out\n        /* \"#utility.yul\":4933:5358   */\n    tag_140:\n        /* \"#utility.yul\":5011:5016   */\n      0x00\n        /* \"#utility.yul\":5036:5102   */\n      tag_232\n        /* \"#utility.yul\":5052:5101   */\n      tag_233\n        /* \"#utility.yul\":5094:5100   */\n      dup5\n        /* \"#utility.yul\":5052:5101   */\n      tag_138\n      jump\t// in\n    tag_233:\n        /* \"#utility.yul\":5036:5102   */\n      tag_137\n      jump\t// in\n    tag_232:\n        /* \"#utility.yul\":5027:5102   */\n      swap1\n      pop\n        /* \"#utility.yul\":5125:5131   */\n      dup3\n        /* \"#utility.yul\":5118:5123   */\n      dup2\n        /* \"#utility.yul\":5111:5132   */\n      mstore\n        /* \"#utility.yul\":5163:5167   */\n      0x20\n        /* \"#utility.yul\":5156:5161   */\n      dup2\n        /* \"#utility.yul\":5152:5168   */\n      add\n        /* \"#utility.yul\":5201:5204   */\n      dup5\n        /* \"#utility.yul\":5192:5198   */\n      dup5\n        /* \"#utility.yul\":5187:5190   */\n      dup5\n        /* \"#utility.yul\":5183:5199   */\n      add\n        /* \"#utility.yul\":5180:5205   */\n      gt\n        /* \"#utility.yul\":5177:5289   */\n      iszero\n      tag_234\n      jumpi\n        /* \"#utility.yul\":5208:5287   */\n      tag_235\n      tag_134\n      jump\t// in\n    tag_235:\n        /* \"#utility.yul\":5177:5289   */\n    tag_234:\n        /* \"#utility.yul\":5298:5352   */\n      tag_236\n        /* \"#utility.yul\":5345:5351   */\n      dup5\n        /* \"#utility.yul\":5340:5343   */\n      dup3\n        /* \"#utility.yul\":5335:5338   */\n      dup6\n        /* \"#utility.yul\":5298:5352   */\n      tag_139\n      jump\t// in\n    tag_236:\n        /* \"#utility.yul\":5017:5358   */\n      pop\n        /* \"#utility.yul\":4933:5358   */\n      swap4\n      swap3\n      pop\n      pop\n      pop\n      jump\t// out\n        /* \"#utility.yul\":5378:5718   */\n    tag_141:\n        /* \"#utility.yul\":5434:5439   */\n      0x00\n        /* \"#utility.yul\":5483:5486   */\n      dup3\n        /* \"#utility.yul\":5476:5480   */\n      0x1f\n        /* \"#utility.yul\":5468:5474   */\n      dup4\n        /* \"#utility.yul\":5464:5481   */\n      add\n        /* \"#utility.yul\":5460:5487   */\n      slt\n        /* \"#utility.yul\":5450:5572   */\n      tag_238\n      jumpi\n        /* \"#utility.yul\":5491:5570   */\n      tag_239\n      tag_133\n      jump\t// in\n    tag_239:\n        /* \"#utility.yul\":5450:5572   */\n    tag_238:\n        /* \"#utility.yul\":5608:5614   */\n      dup2\n        /* \"#utility.yul\":5595:5615   */\n      calldataload\n        /* \"#utility.yul\":5633:5712   */\n      tag_240\n        /* \"#utility.yul\":5708:5711   */\n      dup5\n        /* \"#utility.yul\":5700:5706   */\n      dup3\n        /* \"#utility.yul\":5693:5697   */\n      0x20\n        /* \"#utility.yul\":5685:5691   */\n      dup7\n        /* \"#utility.yul\":5681:5698   */\n      add\n        /* \"#utility.yul\":5633:5712   */\n      tag_140\n      jump\t// in\n    tag_240:\n        /* \"#utility.yul\":5624:5712   */\n      swap2\n      pop\n        /* \"#utility.yul\":5440:5718   */\n      pop\n        /* \"#utility.yul\":5378:5718   */\n      swap3\n      swap2\n      pop\n      pop\n      jump\t// out\n        /* \"#utility.yul\":5724:6378   */\n    tag_30:\n        /* \"#utility.yul\":5802:5808   */\n      0x00\n        /* \"#utility.yul\":5810:5816   */\n      dup1\n        /* \"#utility.yul\":5859:5861   */\n      0x40\n        /* \"#utility.yul\":5847:5856   */\n      dup4\n        /* \"#utility.yul\":5838:5845   */\n      dup6\n        /* \"#utility.yul\":5834:5857   */\n      sub\n        /* \"#utility.yul\":5830:5862   */\n      slt\n        /* \"#utility.yul\":5827:5946   */\n      iszero\n      tag_242\n      jumpi\n        /* \"#utility.yul\":5865:5944   */\n      tag_243\n      tag_119\n      jump\t// in\n    tag_243:\n        /* \"#utility.yul\":5827:5946   */\n    tag_242:\n        /* \"#utility.yul\":6013:6014   */\n      0x00\n        /* \"#utility.yul\":6002:6011   */\n      dup4\n        /* \"#utility.yul\":5998:6015   */\n      add\n        /* \"#utility.yul\":5985:6016   */\n      calldataload\n        /* \"#utility.yul\":6043:6061   */\n      0xffffffffffffffff\n        /* \"#utility.yul\":6035:6041   */\n      dup2\n        /* \"#utility.yul\":6032:6062   */\n      gt\n        /* \"#utility.yul\":6029:6146   */\n      iszero\n      tag_244\n      jumpi\n        /* \"#utility.yul\":6065:6144   */\n      tag_245\n      tag_120\n      jump\t// in\n    tag_245:\n        /* \"#utility.yul\":6029:6146   */\n    tag_244:\n        /* \"#utility.yul\":6170:6233   */\n      tag_246\n        /* \"#utility.yul\":6225:6232   */\n      dup6\n        /* \"#utility.yul\":6216:6222   */\n      dup3\n        /* \"#utility.yul\":6205:6214   */\n      dup7\n        /* \"#utility.yul\":6201:6223   */\n      add\n        /* \"#utility.yul\":6170:6233   */\n      tag_141\n      jump\t// in\n    tag_246:\n        /* \"#utility.yul\":6160:6233   */\n      swap3\n      pop\n        /* \"#utility.yul\":5956:6243   */\n      pop\n        /* \"#utility.yul\":6282:6284   */\n      0x20\n        /* \"#utility.yul\":6308:6361   */\n      tag_247\n        /* \"#utility.yul\":6353:6360   */\n      dup6\n        /* \"#utility.yul\":6344:6350   */\n      dup3\n        /* \"#utility.yul\":6333:6342   */\n      dup7\n        /* \"#utility.yul\":6329:6351   */\n      add\n        /* \"#utility.yul\":6308:6361   */\n      tag_122\n      jump\t// in\n    tag_247:\n        /* \"#utility.yul\":6298:6361   */\n      swap2\n      pop\n        /* \"#utility.yul\":6253:6371   */\n      pop\n        /* \"#utility.yul\":5724:6378   */\n      swap3\n      pop\n      swap3\n      swap1\n      pop\n      jump\t// out\n        /* \"#utility.yul\":6384:6606   */\n    tag_35:\n        /* \"#utility.yul\":6477:6481   */\n      0x00\n        /* \"#utility.yul\":6515:6517   */\n      0x20\n        /* \"#utility.yul\":6504:6513   */\n      dup3\n        /* \"#utility.yul\":6500:6518   */\n      add\n        /* \"#utility.yul\":6492:6518   */\n      swap1\n      pop\n        /* \"#utility.yul\":6528:6599   */\n      tag_249\n        /* \"#utility.yul\":6596:6597   */\n      0x00\n        /* \"#utility.yul\":6585:6594   */\n      dup4\n        /* \"#utility.yul\":6581:6598   */\n      add\n        /* \"#utility.yul\":6572:6578   */\n      dup5\n        /* \"#utility.yul\":6528:6599   */\n      tag_130\n      jump\t// in\n    tag_249:\n        /* \"#utility.yul\":6384:6606   */\n      swap3\n      swap2\n      pop\n      pop\n      jump\t// out\n        /* \"#utility.yul\":6612:6720   */\n    tag_142:\n        /* \"#utility.yul\":6689:6713   */\n      tag_251\n        /* \"#utility.yul\":6707:6712   */\n      dup2\n        /* \"#utility.yul\":6689:6713   */\n      tag_116\n      jump\t// in\n    tag_251:\n        /* \"#utility.yul\":6684:6687   */\n      dup3\n        /* \"#utility.yul\":6677:6714   */\n      mstore\n        /* \"#utility.yul\":6612:6720   */\n      pop\n      pop\n      jump\t// out\n        /* \"#utility.yul\":6726:6885   */\n    tag_143:\n        /* \"#utility.yul\":6800:6811   */\n      0x00\n        /* \"#utility.yul\":6834:6840   */\n      dup3\n        /* \"#utility.yul\":6829:6832   */\n      dup3\n        /* \"#utility.yul\":6822:6841   */\n      mstore\n        /* \"#utility.yul\":6874:6878   */\n      0x20\n        /* \"#utility.yul\":6869:6872   */\n      dup3\n        /* \"#utility.yul\":6865:6879   */\n      add\n        /* \"#utility.yul\":6850:6879   */\n      swap1\n      pop\n        /* \"#utility.yul\":6726:6885   */\n      swap3\n      swap2\n      pop\n      pop\n      jump\t// out\n        /* \"#utility.yul\":6891:7248   */\n    tag_144:\n        /* \"#utility.yul\":6969:6972   */\n      0x00\n        /* \"#utility.yul\":6997:7036   */\n      tag_254\n        /* \"#utility.yul\":7030:7035   */\n      dup3\n        /* \"#utility.yul\":6997:7036   */\n      tag_123\n      jump\t// in\n    tag_254:\n        /* \"#utility.yul\":7052:7113   */\n      tag_255\n        /* \"#utility.yul\":7106:7112   */\n      dup2\n        /* \"#utility.yul\":7101:7104   */\n      dup6\n        /* \"#utility.yul\":7052:7113   */\n      tag_143\n      jump\t// in\n    tag_255:\n        /* \"#utility.yul\":7045:7113   */\n      swap4\n      pop\n        /* \"#utility.yul\":7122:7187   */\n      tag_256\n        /* \"#utility.yul\":7180:7186   */\n      dup2\n        /* \"#utility.yul\":7175:7178   */\n      dup6\n        /* \"#utility.yul\":7168:7172   */\n      0x20\n        /* \"#utility.yul\":7161:7166   */\n      dup7\n        /* \"#utility.yul\":7157:7173   */\n      add\n        /* \"#utility.yul\":7122:7187   */\n      tag_125\n      jump\t// in\n    tag_256:\n        /* \"#utility.yul\":7212:7241   */\n      tag_257\n        /* \"#utility.yul\":7234:7240   */\n      dup2\n        /* \"#utility.yul\":7212:7241   */\n      tag_126\n      jump\t// in\n    tag_257:\n        /* \"#utility.yul\":7207:7210   */\n      dup5\n        /* \"#utility.yul\":7203:7242   */\n      add\n        /* \"#utility.yul\":7196:7242   */\n      swap2\n      pop\n        /* \"#utility.yul\":6973:7248   */\n      pop\n        /* \"#utility.yul\":6891:7248   */\n      swap3\n      swap2\n      pop\n      pop\n      jump\t// out\n        /* \"#utility.yul\":7254:7362   */\n    tag_145:\n        /* \"#utility.yul\":7331:7355   */\n      tag_259\n        /* \"#utility.yul\":7349:7354   */\n      dup2\n        /* \"#utility.yul\":7331:7355   */\n      tag_129\n      jump\t// in\n    tag_259:\n        /* \"#utility.yul\":7326:7329   */\n      dup3\n        /* \"#utility.yul\":7319:7356   */\n      mstore\n        /* \"#utility.yul\":7254:7362   */\n      pop\n      pop\n      jump\t// out\n        /* \"#utility.yul\":7368:7467   */\n    tag_146:\n        /* \"#utility.yul\":7439:7460   */\n      tag_261\n        /* \"#utility.yul\":7454:7459   */\n      dup2\n        /* \"#utility.yul\":7439:7460   */\n      tag_131\n      jump\t// in\n    tag_261:\n        /* \"#utility.yul\":7434:7437   */\n      dup3\n        /* \"#utility.yul\":7427:7461   */\n      mstore\n        /* \"#utility.yul\":7368:7467   */\n      pop\n      pop\n      jump\t// out\n        /* \"#utility.yul\":7549:8680   */\n    tag_147:\n        /* \"#utility.yul\":7666:7669   */\n      0x00\n        /* \"#utility.yul\":7702:7706   */\n      0xa0\n        /* \"#utility.yul\":7697:7700   */\n      dup4\n        /* \"#utility.yul\":7693:7707   */\n      add\n        /* \"#utility.yul\":7787:7791   */\n      0x00\n        /* \"#utility.yul\":7780:7785   */\n      dup4\n        /* \"#utility.yul\":7776:7792   */\n      add\n        /* \"#utility.yul\":7770:7793   */\n      mload\n        /* \"#utility.yul\":7806:7869   */\n      tag_263\n        /* \"#utility.yul\":7863:7867   */\n      0x00\n        /* \"#utility.yul\":7858:7861   */\n      dup7\n        /* \"#utility.yul\":7854:7868   */\n      add\n        /* \"#utility.yul\":7840:7852   */\n      dup3\n        /* \"#utility.yul\":7806:7869   */\n      tag_142\n      jump\t// in\n    tag_263:\n        /* \"#utility.yul\":7717:7879   */\n      pop\n        /* \"#utility.yul\":7961:7965   */\n      0x20\n        /* \"#utility.yul\":7954:7959   */\n      dup4\n        /* \"#utility.yul\":7950:7966   */\n      add\n        /* \"#utility.yul\":7944:7967   */\n      mload\n        /* \"#utility.yul\":8014:8017   */\n      dup5\n        /* \"#utility.yul\":8008:8012   */\n      dup3\n        /* \"#utility.yul\":8004:8018   */\n      sub\n        /* \"#utility.yul\":7997:8001   */\n      0x20\n        /* \"#utility.yul\":7992:7995   */\n      dup7\n        /* \"#utility.yul\":7988:8002   */\n      add\n        /* \"#utility.yul\":7981:8019   */\n      mstore\n        /* \"#utility.yul\":8040:8113   */\n      tag_264\n        /* \"#utility.yul\":8108:8112   */\n      dup3\n        /* \"#utility.yul\":8094:8106   */\n      dup3\n        /* \"#utility.yul\":8040:8113   */\n      tag_144\n      jump\t// in\n    tag_264:\n        /* \"#utility.yul\":8032:8113   */\n      swap2\n      pop\n        /* \"#utility.yul\":7889:8124   */\n      pop\n        /* \"#utility.yul\":8214:8218   */\n      0x40\n        /* \"#utility.yul\":8207:8212   */\n      dup4\n        /* \"#utility.yul\":8203:8219   */\n      add\n        /* \"#utility.yul\":8197:8220   */\n      mload\n        /* \"#utility.yul\":8233:8296   */\n      tag_265\n        /* \"#utility.yul\":8290:8294   */\n      0x40\n        /* \"#utility.yul\":8285:8288   */\n      dup7\n        /* \"#utility.yul\":8281:8295   */\n      add\n        /* \"#utility.yul\":8267:8279   */\n      dup3\n        /* \"#utility.yul\":8233:8296   */\n      tag_145\n      jump\t// in\n    tag_265:\n        /* \"#utility.yul\":8134:8306   */\n      pop\n        /* \"#utility.yul\":8389:8393   */\n      0x60\n        /* \"#utility.yul\":8382:8387   */\n      dup4\n        /* \"#utility.yul\":8378:8394   */\n      add\n        /* \"#utility.yul\":8372:8395   */\n      mload\n        /* \"#utility.yul\":8408:8471   */\n      tag_266\n        /* \"#utility.yul\":8465:8469   */\n      0x60\n        /* \"#utility.yul\":8460:8463   */\n      dup7\n        /* \"#utility.yul\":8456:8470   */\n      add\n        /* \"#utility.yul\":8442:8454   */\n      dup3\n        /* \"#utility.yul\":8408:8471   */\n      tag_142\n      jump\t// in\n    tag_266:\n        /* \"#utility.yul\":8316:8481   */\n      pop\n        /* \"#utility.yul\":8567:8571   */\n      0x80\n        /* \"#utility.yul\":8560:8565   */\n      dup4\n        /* \"#utility.yul\":8556:8572   */\n      add\n        /* \"#utility.yul\":8550:8573   */\n      mload\n        /* \"#utility.yul\":8586:8643   */\n      tag_267\n        /* \"#utility.yul\":8637:8641   */\n      0x80\n        /* \"#utility.yul\":8632:8635   */\n      dup7\n        /* \"#utility.yul\":8628:8642   */\n      add\n        /* \"#utility.yul\":8614:8626   */\n      dup3\n        /* \"#utility.yul\":8586:8643   */\n      tag_146\n      jump\t// in\n    tag_267:\n        /* \"#utility.yul\":8491:8653   */\n      pop\n        /* \"#utility.yul\":8670:8674   */\n      dup1\n        /* \"#utility.yul\":8663:8674   */\n      swap2\n      pop\n        /* \"#utility.yul\":7671:8680   */\n      pop\n        /* \"#utility.yul\":7549:8680   */\n      swap3\n      swap2\n      pop\n      pop\n      jump\t// out\n        /* \"#utility.yul\":8686:9055   */\n    tag_40:\n        /* \"#utility.yul\":8827:8831   */\n      0x00\n        /* \"#utility.yul\":8865:8867   */\n      0x20\n        /* \"#utility.yul\":8854:8863   */\n      dup3\n        /* \"#utility.yul\":8850:8868   */\n      add\n        /* \"#utility.yul\":8842:8868   */\n      swap1\n      pop\n        /* \"#utility.yul\":8914:8923   */\n      dup2\n        /* \"#utility.yul\":8908:8912   */\n      dup2\n        /* \"#utility.yul\":8904:8924   */\n      sub\n        /* \"#utility.yul\":8900:8901   */\n      0x00\n        /* \"#utility.yul\":8889:8898   */\n      dup4\n        /* \"#utility.yul\":8885:8902   */\n      add\n        /* \"#utility.yul\":8878:8925   */\n      mstore\n        /* \"#utility.yul\":8942:9048   */\n      tag_269\n        /* \"#utility.yul\":9043:9047   */\n      dup2\n        /* \"#utility.yul\":9034:9040   */\n      dup5\n        /* \"#utility.yul\":8942:9048   */\n      tag_147\n      jump\t// in\n    tag_269:\n        /* \"#utility.yul\":8934:9048   */\n      swap1\n      pop\n        /* \"#utility.yul\":8686:9055   */\n      swap3\n      swap2\n      pop\n      pop\n      jump\t// out\n        /* \"#utility.yul\":9061:9183   */\n    tag_148:\n        /* \"#utility.yul\":9134:9158   */\n      tag_271\n        /* \"#utility.yul\":9152:9157   */\n      dup2\n        /* \"#utility.yul\":9134:9158   */\n      tag_129\n      jump\t// in\n    tag_271:\n        /* \"#utility.yul\":9127:9132   */\n      dup2\n        /* \"#utility.yul\":9124:9159   */\n      eq\n        /* \"#utility.yul\":9114:9177   */\n      tag_272\n      jumpi\n        /* \"#utility.yul\":9173:9174   */\n      0x00\n        /* \"#utility.yul\":9170:9171   */\n      dup1\n        /* \"#utility.yul\":9163:9175   */\n      revert\n        /* \"#utility.yul\":9114:9177   */\n    tag_272:\n        /* \"#utility.yul\":9061:9183   */\n      pop\n      jump\t// out\n        /* \"#utility.yul\":9189:9328   */\n    tag_149:\n        /* \"#utility.yul\":9235:9240   */\n      0x00\n        /* \"#utility.yul\":9273:9279   */\n      dup2\n        /* \"#utility.yul\":9260:9280   */\n      calldataload\n        /* \"#utility.yul\":9251:9280   */\n      swap1\n      pop\n        /* \"#utility.yul\":9289:9322   */\n      tag_274\n        /* \"#utility.yul\":9316:9321   */\n      dup2\n        /* \"#utility.yul\":9289:9322   */\n      tag_148\n      jump\t// in\n    tag_274:\n        /* \"#utility.yul\":9189:9328   */\n      swap3\n      swap2\n      pop\n      pop\n      jump\t// out\n        /* \"#utility.yul\":9334:9808   */\n    tag_43:\n        /* \"#utility.yul\":9402:9408   */\n      0x00\n        /* \"#utility.yul\":9410:9416   */\n      dup1\n        /* \"#utility.yul\":9459:9461   */\n      0x40\n        /* \"#utility.yul\":9447:9456   */\n      dup4\n        /* \"#utility.yul\":9438:9445   */\n      dup6\n        /* \"#utility.yul\":9434:9457   */\n      sub\n        /* \"#utility.yul\":9430:9462   */\n      slt\n        /* \"#utility.yul\":9427:9546   */\n      iszero\n      tag_276\n      jumpi\n        /* \"#utility.yul\":9465:9544   */\n      tag_277\n      tag_119\n      jump\t// in\n    tag_277:\n        /* \"#utility.yul\":9427:9546   */\n    tag_276:\n        /* \"#utility.yul\":9585:9586   */\n      0x00\n        /* \"#utility.yul\":9610:9663   */\n      tag_278\n        /* \"#utility.yul\":9655:9662   */\n      dup6\n        /* \"#utility.yul\":9646:9652   */\n      dup3\n        /* \"#utility.yul\":9635:9644   */\n      dup7\n        /* \"#utility.yul\":9631:9653   */\n      add\n        /* \"#utility.yul\":9610:9663   */\n      tag_122\n      jump\t// in\n    tag_278:\n        /* \"#utility.yul\":9600:9663   */\n      swap3\n      pop\n        /* \"#utility.yul\":9556:9673   */\n      pop\n        /* \"#utility.yul\":9712:9714   */\n      0x20\n        /* \"#utility.yul\":9738:9791   */\n      tag_279\n        /* \"#utility.yul\":9783:9790   */\n      dup6\n        /* \"#utility.yul\":9774:9780   */\n      dup3\n        /* \"#utility.yul\":9763:9772   */\n      dup7\n        /* \"#utility.yul\":9759:9781   */\n      add\n        /* \"#utility.yul\":9738:9791   */\n      tag_149\n      jump\t// in\n    tag_279:\n        /* \"#utility.yul\":9728:9791   */\n      swap2\n      pop\n        /* \"#utility.yul\":9683:9801   */\n      pop\n        /* \"#utility.yul\":9334:9808   */\n      swap3\n      pop\n      swap3\n      swap1\n      pop\n      jump\t// out\n        /* \"#utility.yul\":9814:10143   */\n    tag_47:\n        /* \"#utility.yul\":9873:9879   */\n      0x00\n        /* \"#utility.yul\":9922:9924   */\n      0x20\n        /* \"#utility.yul\":9910:9919   */\n      dup3\n        /* \"#utility.yul\":9901:9908   */\n      dup5\n        /* \"#utility.yul\":9897:9920   */\n      sub\n        /* \"#utility.yul\":9893:9925   */\n      slt\n        /* \"#utility.yul\":9890:10009   */\n      iszero\n      tag_281\n      jumpi\n        /* \"#utility.yul\":9928:10007   */\n      tag_282\n      tag_119\n      jump\t// in\n    tag_282:\n        /* \"#utility.yul\":9890:10009   */\n    tag_281:\n        /* \"#utility.yul\":10048:10049   */\n      0x00\n        /* \"#utility.yul\":10073:10126   */\n      tag_283\n        /* \"#utility.yul\":10118:10125   */\n      dup5\n        /* \"#utility.yul\":10109:10115   */\n      dup3\n        /* \"#utility.yul\":10098:10107   */\n      dup6\n        /* \"#utility.yul\":10094:10116   */\n      add\n        /* \"#utility.yul\":10073:10126   */\n      tag_149\n      jump\t// in\n    tag_283:\n        /* \"#utility.yul\":10063:10126   */\n      swap2\n      pop\n        /* \"#utility.yul\":10019:10136   */\n      pop\n        /* \"#utility.yul\":9814:10143   */\n      swap3\n      swap2\n      pop\n      pop\n      jump\t// out\n        /* \"#utility.yul\":10149:10379   */\n    tag_150:\n        /* \"#utility.yul\":10289:10323   */\n      0x596f75206d75737420626520746865206f776e657220746f2076657269667920\n        /* \"#utility.yul\":10285:10286   */\n      0x00\n        /* \"#utility.yul\":10277:10283   */\n      dup3\n        /* \"#utility.yul\":10273:10287   */\n      add\n        /* \"#utility.yul\":10266:10324   */\n      mstore\n        /* \"#utility.yul\":10358:10371   */\n      0x7468652070726f64756374000000000000000000000000000000000000000000\n        /* \"#utility.yul\":10353:10355   */\n      0x20\n        /* \"#utility.yul\":10345:10351   */\n      dup3\n        /* \"#utility.yul\":10341:10356   */\n      add\n        /* \"#utility.yul\":10334:10372   */\n      mstore\n        /* \"#utility.yul\":10149:10379   */\n      pop\n      jump\t// out\n        /* \"#utility.yul\":10385:10751   */\n    tag_151:\n        /* \"#utility.yul\":10527:10530   */\n      0x00\n        /* \"#utility.yul\":10548:10615   */\n      tag_286\n        /* \"#utility.yul\":10612:10614   */\n      0x2b\n        /* \"#utility.yul\":10607:10610   */\n      dup4\n        /* \"#utility.yul\":10548:10615   */\n      tag_124\n      jump\t// in\n    tag_286:\n        /* \"#utility.yul\":10541:10615   */\n      swap2\n      pop\n        /* \"#utility.yul\":10624:10717   */\n      tag_287\n        /* \"#utility.yul\":10713:10716   */\n      dup3\n        /* \"#utility.yul\":10624:10717   */\n      tag_150\n      jump\t// in\n    tag_287:\n        /* \"#utility.yul\":10742:10744   */\n      0x40\n        /* \"#utility.yul\":10737:10740   */\n      dup3\n        /* \"#utility.yul\":10733:10745   */\n      add\n        /* \"#utility.yul\":10726:10745   */\n      swap1\n      pop\n        /* \"#utility.yul\":10385:10751   */\n      swap2\n      swap1\n      pop\n      jump\t// out\n        /* \"#utility.yul\":10757:11176   */\n    tag_52:\n        /* \"#utility.yul\":10923:10927   */\n      0x00\n        /* \"#utility.yul\":10961:10963   */\n      0x20\n        /* \"#utility.yul\":10950:10959   */\n      dup3\n        /* \"#utility.yul\":10946:10964   */\n      add\n        /* \"#utility.yul\":10938:10964   */\n      swap1\n      pop\n        /* \"#utility.yul\":11010:11019   */\n      dup2\n        /* \"#utility.yul\":11004:11008   */\n      dup2\n        /* \"#utility.yul\":11000:11020   */\n      sub\n        /* \"#utility.yul\":10996:10997   */\n      0x00\n        /* \"#utility.yul\":10985:10994   */\n      dup4\n        /* \"#utility.yul\":10981:10998   */\n      add\n        /* \"#utility.yul\":10974:11021   */\n      mstore\n        /* \"#utility.yul\":11038:11169   */\n      tag_289\n        /* \"#utility.yul\":11164:11168   */\n      dup2\n        /* \"#utility.yul\":11038:11169   */\n      tag_151\n      jump\t// in\n    tag_289:\n        /* \"#utility.yul\":11030:11169   */\n      swap1\n      pop\n        /* \"#utility.yul\":10757:11176   */\n      swap2\n      swap1\n      pop\n      jump\t// out\n        /* \"#utility.yul\":11182:11362   */\n    tag_152:\n        /* \"#utility.yul\":11230:11307   */\n      0x4e487b7100000000000000000000000000000000000000000000000000000000\n        /* \"#utility.yul\":11227:11228   */\n      0x00\n        /* \"#utility.yul\":11220:11308   */\n      mstore\n        /* \"#utility.yul\":11327:11331   */\n      0x22\n        /* \"#utility.yul\":11324:11325   */\n      0x04\n        /* \"#utility.yul\":11317:11332   */\n      mstore\n        /* \"#utility.yul\":11351:11355   */\n      0x24\n        /* \"#utility.yul\":11348:11349   */\n      0x00\n        /* \"#utility.yul\":11341:11356   */\n      revert\n        /* \"#utility.yul\":11368:11688   */\n    tag_60:\n        /* \"#utility.yul\":11412:11418   */\n      0x00\n        /* \"#utility.yul\":11449:11450   */\n      0x02\n        /* \"#utility.yul\":11443:11447   */\n      dup3\n        /* \"#utility.yul\":11439:11451   */\n      div\n        /* \"#utility.yul\":11429:11451   */\n      swap1\n      pop\n        /* \"#utility.yul\":11496:11497   */\n      0x01\n        /* \"#utility.yul\":11490:11494   */\n      dup3\n        /* \"#utility.yul\":11486:11498   */\n      and\n        /* \"#utility.yul\":11517:11535   */\n      dup1\n        /* \"#utility.yul\":11507:11588   */\n      tag_292\n      jumpi\n        /* \"#utility.yul\":11573:11577   */\n      0x7f\n        /* \"#utility.yul\":11565:11571   */\n      dup3\n        /* \"#utility.yul\":11561:11578   */\n      and\n        /* \"#utility.yul\":11551:11578   */\n      swap2\n      pop\n        /* \"#utility.yul\":11507:11588   */\n    tag_292:\n        /* \"#utility.yul\":11635:11637   */\n      0x20\n        /* \"#utility.yul\":11627:11633   */\n      dup3\n        /* \"#utility.yul\":11624:11638   */\n      lt\n        /* \"#utility.yul\":11604:11622   */\n      dup2\n        /* \"#utility.yul\":11601:11639   */\n      sub\n        /* \"#utility.yul\":11598:11682   */\n      tag_293\n      jumpi\n        /* \"#utility.yul\":11654:11672   */\n      tag_294\n      tag_152\n      jump\t// in\n    tag_294:\n        /* \"#utility.yul\":11598:11682   */\n    tag_293:\n        /* \"#utility.yul\":11419:11688   */\n      pop\n        /* \"#utility.yul\":11368:11688   */\n      swap2\n      swap1\n      pop\n      jump\t// out\n        /* \"#utility.yul\":11694:11835   */\n    tag_153:\n        /* \"#utility.yul\":11743:11747   */\n      0x00\n        /* \"#utility.yul\":11766:11769   */\n      dup2\n        /* \"#utility.yul\":11758:11769   */\n      swap1\n      pop\n        /* \"#utility.yul\":11789:11792   */\n      dup2\n        /* \"#utility.yul\":11786:11787   */\n      0x00\n        /* \"#utility.yul\":11779:11793   */\n      mstore\n        /* \"#utility.yul\":11823:11827   */\n      0x20\n        /* \"#utility.yul\":11820:11821   */\n      0x00\n        /* \"#utility.yul\":11810:11828   */\n      keccak256\n        /* \"#utility.yul\":11802:11828   */\n      swap1\n      pop\n        /* \"#utility.yul\":11694:11835   */\n      swap2\n      swap1\n      pop\n      jump\t// out\n        /* \"#utility.yul\":11841:11934   */\n    tag_154:\n        /* \"#utility.yul\":11878:11884   */\n      0x00\n        /* \"#utility.yul\":11925:11927   */\n      0x20\n        /* \"#utility.yul\":11920:11922   */\n      0x1f\n        /* \"#utility.yul\":11913:11918   */\n      dup4\n        /* \"#utility.yul\":11909:11923   */\n      add\n        /* \"#utility.yul\":11905:11928   */\n      div\n        /* \"#utility.yul\":11895:11928   */\n      swap1\n      pop\n        /* \"#utility.yul\":11841:11934   */\n      swap2\n      swap1\n      pop\n      jump\t// out\n        /* \"#utility.yul\":11940:12047   */\n    tag_155:\n        /* \"#utility.yul\":11984:11992   */\n      0x00\n        /* \"#utility.yul\":12034:12039   */\n      dup3\n        /* \"#utility.yul\":12028:12032   */\n      dup3\n        /* \"#utility.yul\":12024:12040   */\n      shl\n        /* \"#utility.yul\":12003:12040   */\n      swap1\n      pop\n        /* \"#utility.yul\":11940:12047   */\n      swap3\n      swap2\n      pop\n      pop\n      jump\t// out\n        /* \"#utility.yul\":12053:12446   */\n    tag_156:\n        /* \"#utility.yul\":12122:12128   */\n      0x00\n        /* \"#utility.yul\":12172:12173   */\n      0x08\n        /* \"#utility.yul\":12160:12170   */\n      dup4\n        /* \"#utility.yul\":12156:12174   */\n      mul\n        /* \"#utility.yul\":12195:12292   */\n      tag_299\n        /* \"#utility.yul\":12225:12291   */\n      0xffffffffffffffffffffffffffffffffffffffffffffffffffffffffffffffff\n        /* \"#utility.yul\":12214:12223   */\n      dup3\n        /* \"#utility.yul\":12195:12292   */\n      tag_155\n      jump\t// in\n    tag_299:\n        /* \"#utility.yul\":12313:12352   */\n      tag_300\n        /* \"#utility.yul\":12343:12351   */\n      dup7\n        /* \"#utility.yul\":12332:12341   */\n      dup4\n        /* \"#utility.yul\":12313:12352   */\n      tag_155\n      jump\t// in\n    tag_300:\n        /* \"#utility.yul\":12301:12352   */\n      swap6\n      pop\n        /* \"#utility.yul\":12385:12389   */\n      dup1\n        /* \"#utility.yul\":12381:12390   */\n      not\n        /* \"#utility.yul\":12374:12379   */\n      dup5\n        /* \"#utility.yul\":12370:12391   */\n      and\n        /* \"#utility.yul\":12361:12391   */\n      swap4\n      pop\n        /* \"#utility.yul\":12434:12438   */\n      dup1\n        /* \"#utility.yul\":12424:12432   */\n      dup7\n        /* \"#utility.yul\":12420:12439   */\n      and\n        /* \"#utility.yul\":12413:12418   */\n      dup5\n        /* \"#utility.yul\":12410:12440   */\n      or\n        /* \"#utility.yul\":12400:12440   */\n      swap3\n      pop\n        /* \"#utility.yul\":12129:12446   */\n      pop\n      pop\n        /* \"#utility.yul\":12053:12446   */\n      swap4\n      swap3\n      pop\n      pop\n      pop\n      jump\t// out\n        /* \"#utility.yul\":12452:12512   */\n    tag_157:\n        /* \"#utility.yul\":12480:12483   */\n      0x00\n        /* \"#utility.yul\":12501:12506   */\n      dup2\n        /* \"#utility.yul\":12494:12506   */\n      swap1\n      pop\n        /* \"#utility.yul\":12452:12512   */\n      swap2\n      swap1\n      pop\n      jump\t// out\n        /* \"#utility.yul\":12518:12660   */\n    tag_158:\n        /* \"#utility.yul\":12568:12577   */\n      0x00\n        /* \"#utility.yul\":12601:12654   */\n      tag_303\n        /* \"#utility.yul\":12619:12653   */\n      tag_304\n        /* \"#utility.yul\":12628:12652   */\n      tag_305\n        /* \"#utility.yul\":12646:12651   */\n      dup5\n        /* \"#utility.yul\":12628:12652   */\n      tag_116\n      jump\t// in\n    tag_305:\n        /* \"#utility.yul\":12619:12653   */\n      tag_157\n      jump\t// in\n    tag_304:\n        /* \"#utility.yul\":12601:12654   */\n      tag_116\n      jump\t// in\n    tag_303:\n        /* \"#utility.yul\":12588:12654   */\n      swap1\n      pop\n        /* \"#utility.yul\":12518:12660   */\n      swap2\n      swap1\n      pop\n      jump\t// out\n        /* \"#utility.yul\":12666:12741   */\n    tag_159:\n        /* \"#utility.yul\":12709:12712   */\n      0x00\n        /* \"#utility.yul\":12730:12735   */\n      dup2\n        /* \"#utility.yul\":12723:12735   */\n      swap1\n      pop\n        /* \"#utility.yul\":12666:12741   */\n      swap2\n      swap1\n      pop\n      jump\t// out\n        /* \"#utility.yul\":12747:13016   */\n    tag_160:\n        /* \"#utility.yul\":12857:12896   */\n      tag_308\n        /* \"#utility.yul\":12888:12895   */\n      dup4\n        /* \"#utility.yul\":12857:12896   */\n      tag_158\n      jump\t// in\n    tag_308:\n        /* \"#utility.yul\":12918:13009   */\n      tag_309\n        /* \"#utility.yul\":12967:13008   */\n      tag_310\n        /* \"#utility.yul\":12991:13007   */\n      dup3\n        /* \"#utility.yul\":12967:13008   */\n      tag_159\n      jump\t// in\n    tag_310:\n        /* \"#utility.yul\":12959:12965   */\n      dup5\n        /* \"#utility.yul\":12952:12956   */\n      dup5\n        /* \"#utility.yul\":12946:12957   */\n      sload\n        /* \"#utility.yul\":12918:13009   */\n      tag_156\n      jump\t// in\n    tag_309:\n        /* \"#utility.yul\":12912:12916   */\n      dup3\n        /* \"#utility.yul\":12905:13010   */\n      sstore\n        /* \"#utility.yul\":12823:13016   */\n      pop\n        /* \"#utility.yul\":12747:13016   */\n      pop\n      pop\n      pop\n      jump\t// out\n        /* \"#utility.yul\":13022:13095   */\n    tag_161:\n        /* \"#utility.yul\":13067:13070   */\n      0x00\n        /* \"#utility.yul\":13022:13095   */\n      swap1\n      jump\t// out\n        /* \"#utility.yul\":13101:13290   */\n    tag_162:\n        /* \"#utility.yul\":13178:13210   */\n      tag_313\n      tag_161\n      jump\t// in\n    tag_313:\n        /* \"#utility.yul\":13219:13284   */\n      tag_314\n        /* \"#utility.yul\":13277:13283   */\n      dup2\n        /* \"#utility.yul\":13269:13275   */\n      dup5\n        /* \"#utility.yul\":13263:13267   */\n      dup5\n        /* \"#utility.yul\":13219:13284   */\n      tag_160\n      jump\t// in\n    tag_314:\n        /* \"#utility.yul\":13154:13290   */\n      pop\n        /* \"#utility.yul\":13101:13290   */\n      pop\n      pop\n      jump\t// out\n        /* \"#utility.yul\":13296:13482   */\n    tag_163:\n        /* \"#utility.yul\":13356:13476   */\n    tag_316:\n        /* \"#utility.yul\":13373:13376   */\n      dup2\n        /* \"#utility.yul\":13366:13371   */\n      dup2\n        /* \"#utility.yul\":13363:13377   */\n      lt\n        /* \"#utility.yul\":13356:13476   */\n      iszero\n      tag_318\n      jumpi\n        /* \"#utility.yul\":13427:13466   */\n      tag_319\n        /* \"#utility.yul\":13464:13465   */\n      0x00\n        /* \"#utility.yul\":13457:13462   */\n      dup3\n        /* \"#utility.yul\":13427:13466   */\n      tag_162\n      jump\t// in\n    tag_319:\n        /* \"#utility.yul\":13400:13401   */\n      0x01\n        /* \"#utility.yul\":13393:13398   */\n      dup2\n        /* \"#utility.yul\":13389:13402   */\n      add\n        /* \"#utility.yul\":13380:13402   */\n      swap1\n      pop\n        /* \"#utility.yul\":13356:13476   */\n      jump(tag_316)\n    tag_318:\n        /* \"#utility.yul\":13296:13482   */\n      pop\n      pop\n      jump\t// out\n        /* \"#utility.yul\":13488:14031   */\n    tag_164:\n        /* \"#utility.yul\":13589:13591   */\n      0x1f\n        /* \"#utility.yul\":13584:13587   */\n      dup3\n        /* \"#utility.yul\":13581:13592   */\n      gt\n        /* \"#utility.yul\":13578:14024   */\n      iszero\n      tag_321\n      jumpi\n        /* \"#utility.yul\":13623:13661   */\n      tag_322\n        /* \"#utility.yul\":13655:13660   */\n      dup2\n        /* \"#utility.yul\":13623:13661   */\n      tag_153\n      jump\t// in\n    tag_322:\n        /* \"#utility.yul\":13707:13736   */\n      tag_323\n        /* \"#utility.yul\":13725:13735   */\n      dup5\n        /* \"#utility.yul\":13707:13736   */\n      tag_154\n      jump\t// in\n    tag_323:\n        /* \"#utility.yul\":13697:13705   */\n      dup2\n        /* \"#utility.yul\":13693:13737   */\n      add\n        /* \"#utility.yul\":13890:13892   */\n      0x20\n        /* \"#utility.yul\":13878:13888   */\n      dup6\n        /* \"#utility.yul\":13875:13893   */\n      lt\n        /* \"#utility.yul\":13872:13921   */\n      iszero\n      tag_324\n      jumpi\n        /* \"#utility.yul\":13911:13919   */\n      dup2\n        /* \"#utility.yul\":13896:13919   */\n      swap1\n      pop\n        /* \"#utility.yul\":13872:13921   */\n    tag_324:\n        /* \"#utility.yul\":13934:14014   */\n      tag_325\n        /* \"#utility.yul\":13990:14012   */\n      tag_326\n        /* \"#utility.yul\":14008:14011   */\n      dup6\n        /* \"#utility.yul\":13990:14012   */\n      tag_154\n      jump\t// in\n    tag_326:\n        /* \"#utility.yul\":13980:13988   */\n      dup4\n        /* \"#utility.yul\":13976:14013   */\n      add\n        /* \"#utility.yul\":13963:13974   */\n      dup3\n        /* \"#utility.yul\":13934:14014   */\n      tag_163\n      jump\t// in\n    tag_325:\n        /* \"#utility.yul\":13593:14024   */\n      pop\n      pop\n        /* \"#utility.yul\":13578:14024   */\n    tag_321:\n        /* \"#utility.yul\":13488:14031   */\n      pop\n      pop\n      pop\n      jump\t// out\n        /* \"#utility.yul\":14037:14154   */\n    tag_165:\n        /* \"#utility.yul\":14091:14099   */\n      0x00\n        /* \"#utility.yul\":14141:14146   */\n      dup3\n        /* \"#utility.yul\":14135:14139   */\n      dup3\n        /* \"#utility.yul\":14131:14147   */\n      shr\n        /* \"#utility.yul\":14110:14147   */\n      swap1\n      pop\n        /* \"#utility.yul\":14037:14154   */\n      swap3\n      swap2\n      pop\n      pop\n      jump\t// out\n        /* \"#utility.yul\":14160:14329   */\n    tag_166:\n        /* \"#utility.yul\":14204:14210   */\n      0x00\n        /* \"#utility.yul\":14237:14288   */\n      tag_329\n        /* \"#utility.yul\":14285:14286   */\n      0x00\n        /* \"#utility.yul\":14281:14287   */\n      not\n        /* \"#utility.yul\":14273:14278   */\n      dup5\n        /* \"#utility.yul\":14270:14271   */\n      0x08\n        /* \"#utility.yul\":14266:14279   */\n      mul\n        /* \"#utility.yul\":14237:14288   */\n      tag_165\n      jump\t// in\n    tag_329:\n        /* \"#utility.yul\":14233:14289   */\n      not\n        /* \"#utility.yul\":14318:14322   */\n      dup1\n        /* \"#utility.yul\":14312:14316   */\n      dup4\n        /* \"#utility.yul\":14308:14323   */\n      and\n        /* \"#utility.yul\":14298:14323   */\n      swap2\n      pop\n        /* \"#utility.yul\":14211:14329   */\n      pop\n        /* \"#utility.yul\":14160:14329   */\n      swap3\n      swap2\n      pop\n      pop\n      jump\t// out\n        /* \"#utility.yul\":14334:14629   */\n    tag_167:\n        /* \"#utility.yul\":14410:14414   */\n      0x00\n        /* \"#utility.yul\":14556:14585   */\n      tag_331\n        /* \"#utility.yul\":14581:14584   */\n      dup4\n        /* \"#utility.yul\":14575:14579   */\n      dup4\n        /* \"#utility.yul\":14556:14585   */\n      tag_166\n      jump\t// in\n    tag_331:\n        /* \"#utility.yul\":14548:14585   */\n      swap2\n      pop\n        /* \"#utility.yul\":14618:14621   */\n      dup3\n        /* \"#utility.yul\":14615:14616   */\n      0x02\n        /* \"#utility.yul\":14611:14622   */\n      mul\n        /* \"#utility.yul\":14605:14609   */\n      dup3\n        /* \"#utility.yul\":14602:14623   */\n      or\n        /* \"#utility.yul\":14594:14623   */\n      swap1\n      pop\n        /* \"#utility.yul\":14334:14629   */\n      swap3\n      swap2\n      pop\n      pop\n      jump\t// out\n        /* \"#utility.yul\":14634:16029   */\n    tag_69:\n        /* \"#utility.yul\":14751:14788   */\n      tag_333\n        /* \"#utility.yul\":14784:14787   */\n      dup3\n        /* \"#utility.yul\":14751:14788   */\n      tag_123\n      jump\t// in\n    tag_333:\n        /* \"#utility.yul\":14853:14871   */\n      0xffffffffffffffff\n        /* \"#utility.yul\":14845:14851   */\n      dup2\n        /* \"#utility.yul\":14842:14872   */\n      gt\n        /* \"#utility.yul\":14839:14895   */\n      iszero\n      tag_334\n      jumpi\n        /* \"#utility.yul\":14875:14893   */\n      tag_335\n      tag_135\n      jump\t// in\n    tag_335:\n        /* \"#utility.yul\":14839:14895   */\n    tag_334:\n        /* \"#utility.yul\":14919:14957   */\n      tag_336\n        /* \"#utility.yul\":14951:14955   */\n      dup3\n        /* \"#utility.yul\":14945:14956   */\n      sload\n        /* \"#utility.yul\":14919:14957   */\n      tag_60\n      jump\t// in\n    tag_336:\n        /* \"#utility.yul\":15004:15071   */\n      tag_337\n        /* \"#utility.yul\":15064:15070   */\n      dup3\n        /* \"#utility.yul\":15056:15062   */\n      dup3\n        /* \"#utility.yul\":15050:15054   */\n      dup6\n        /* \"#utility.yul\":15004:15071   */\n      tag_164\n      jump\t// in\n    tag_337:\n        /* \"#utility.yul\":15098:15099   */\n      0x00\n        /* \"#utility.yul\":15122:15126   */\n      0x20\n        /* \"#utility.yul\":15109:15126   */\n      swap1\n      pop\n        /* \"#utility.yul\":15154:15156   */\n      0x1f\n        /* \"#utility.yul\":15146:15152   */\n      dup4\n        /* \"#utility.yul\":15143:15157   */\n      gt\n        /* \"#utility.yul\":15171:15172   */\n      0x01\n        /* \"#utility.yul\":15166:15784   */\n      dup2\n      eq\n      tag_339\n      jumpi\n        /* \"#utility.yul\":15828:15829   */\n      0x00\n        /* \"#utility.yul\":15845:15851   */\n      dup5\n        /* \"#utility.yul\":15842:15919   */\n      iszero\n      tag_340\n      jumpi\n        /* \"#utility.yul\":15894:15903   */\n      dup3\n        /* \"#utility.yul\":15889:15892   */\n      dup8\n        /* \"#utility.yul\":15885:15904   */\n      add\n        /* \"#utility.yul\":15879:15905   */\n      mload\n        /* \"#utility.yul\":15870:15905   */\n      swap1\n      pop\n        /* \"#utility.yul\":15842:15919   */\n    tag_340:\n        /* \"#utility.yul\":15945:16012   */\n      tag_341\n        /* \"#utility.yul\":16005:16011   */\n      dup6\n        /* \"#utility.yul\":15998:16003   */\n      dup3\n        /* \"#utility.yul\":15945:16012   */\n      tag_167\n      jump\t// in\n    tag_341:\n        /* \"#utility.yul\":15939:15943   */\n      dup7\n        /* \"#utility.yul\":15932:16013   */\n      sstore\n        /* \"#utility.yul\":15801:16023   */\n      pop\n        /* \"#utility.yul\":15136:16023   */\n      jump(tag_338)\n        /* \"#utility.yul\":15166:15784   */\n    tag_339:\n        /* \"#utility.yul\":15218:15222   */\n      0x1f\n        /* \"#utility.yul\":15214:15223   */\n      not\n        /* \"#utility.yul\":15206:15212   */\n      dup5\n        /* \"#utility.yul\":15202:15224   */\n      and\n        /* \"#utility.yul\":15252:15289   */\n      tag_342\n        /* \"#utility.yul\":15284:15288   */\n      dup7\n        /* \"#utility.yul\":15252:15289   */\n      tag_153\n      jump\t// in\n    tag_342:\n        /* \"#utility.yul\":15311:15312   */\n      0x00\n        /* \"#utility.yul\":15325:15533   */\n    tag_343:\n        /* \"#utility.yul\":15339:15346   */\n      dup3\n        /* \"#utility.yul\":15336:15337   */\n      dup2\n        /* \"#utility.yul\":15333:15347   */\n      lt\n        /* \"#utility.yul\":15325:15533   */\n      iszero\n      tag_345\n      jumpi\n        /* \"#utility.yul\":15418:15427   */\n      dup5\n        /* \"#utility.yul\":15413:15416   */\n      dup10\n        /* \"#utility.yul\":15409:15428   */\n      add\n        /* \"#utility.yul\":15403:15429   */\n      mload\n        /* \"#utility.yul\":15395:15401   */\n      dup3\n        /* \"#utility.yul\":15388:15430   */\n      sstore\n        /* \"#utility.yul\":15469:15470   */\n      0x01\n        /* \"#utility.yul\":15461:15467   */\n      dup3\n        /* \"#utility.yul\":15457:15471   */\n      add\n        /* \"#utility.yul\":15447:15471   */\n      swap2\n      pop\n        /* \"#utility.yul\":15516:15518   */\n      0x20\n        /* \"#utility.yul\":15505:15514   */\n      dup6\n        /* \"#utility.yul\":15501:15519   */\n      add\n        /* \"#utility.yul\":15488:15519   */\n      swap5\n      pop\n        /* \"#utility.yul\":15362:15366   */\n      0x20\n        /* \"#utility.yul\":15359:15360   */\n      dup2\n        /* \"#utility.yul\":15355:15367   */\n      add\n        /* \"#utility.yul\":15350:15367   */\n      swap1\n      pop\n        /* \"#utility.yul\":15325:15533   */\n      jump(tag_343)\n    tag_345:\n        /* \"#utility.yul\":15561:15567   */\n      dup7\n        /* \"#utility.yul\":15552:15559   */\n      dup4\n        /* \"#utility.yul\":15549:15568   */\n      lt\n        /* \"#utility.yul\":15546:15725   */\n      iszero\n      tag_346\n      jumpi\n        /* \"#utility.yul\":15619:15628   */\n      dup5\n        /* \"#utility.yul\":15614:15617   */\n      dup10\n        /* \"#utility.yul\":15610:15629   */\n      add\n        /* \"#utility.yul\":15604:15630   */\n      mload\n        /* \"#utility.yul\":15662:15710   */\n      tag_347\n        /* \"#utility.yul\":15704:15708   */\n      0x1f\n        /* \"#utility.yul\":15696:15702   */\n      dup10\n        /* \"#utility.yul\":15692:15709   */\n      and\n        /* \"#utility.yul\":15681:15690   */\n      dup3\n        /* \"#utility.yul\":15662:15710   */\n      tag_166\n      jump\t// in\n    tag_347:\n        /* \"#utility.yul\":15654:15660   */\n      dup4\n        /* \"#utility.yul\":15647:15711   */\n      sstore\n        /* \"#utility.yul\":15569:15725   */\n      pop\n        /* \"#utility.yul\":15546:15725   */\n    tag_346:\n        /* \"#utility.yul\":15771:15772   */\n      0x01\n        /* \"#utility.yul\":15767:15768   */\n      0x02\n        /* \"#utility.yul\":15759:15765   */\n      dup9\n        /* \"#utility.yul\":15755:15769   */\n      mul\n        /* \"#utility.yul\":15751:15773   */\n      add\n        /* \"#utility.yul\":15745:15749   */\n      dup9\n        /* \"#utility.yul\":15738:15774   */\n      sstore\n        /* \"#utility.yul\":15173:15784   */\n      pop\n      pop\n      pop\n        /* \"#utility.yul\":15136:16023   */\n    tag_338:\n      pop\n        /* \"#utility.yul\":14726:16029   */\n      pop\n      pop\n      pop\n        /* \"#utility.yul\":14634:16029   */\n      pop\n      pop\n      jump\t// out\n        /* \"#utility.yul\":16035:16215   */\n    tag_168:\n        /* \"#utility.yul\":16083:16160   */\n      0x4e487b7100000000000000000000000000000000000000000000000000000000\n        /* \"#utility.yul\":16080:16081   */\n      0x00\n        /* \"#utility.yul\":16073:16161   */\n      mstore\n        /* \"#utility.yul\":16180:16184   */\n      0x11\n        /* \"#utility.yul\":16177:16178   */\n      0x04\n        /* \"#utility.yul\":16170:16185   */\n      mstore\n        /* \"#utility.yul\":16204:16208   */\n      0x24\n        /* \"#utility.yul\":16201:16202   */\n      0x00\n        /* \"#utility.yul\":16194:16209   */\n      revert\n        /* \"#utility.yul\":16221:16454   */\n    tag_71:\n        /* \"#utility.yul\":16260:16263   */\n      0x00\n        /* \"#utility.yul\":16283:16307   */\n      tag_350\n        /* \"#utility.yul\":16301:16306   */\n      dup3\n        /* \"#utility.yul\":16283:16307   */\n      tag_116\n      jump\t// in\n    tag_350:\n        /* \"#utility.yul\":16274:16307   */\n      swap2\n      pop\n        /* \"#utility.yul\":16329:16395   */\n      0xffffffffffffffffffffffffffffffffffffffffffffffffffffffffffffffff\n        /* \"#utility.yul\":16322:16327   */\n      dup3\n        /* \"#utility.yul\":16319:16396   */\n      sub\n        /* \"#utility.yul\":16316:16419   */\n      tag_351\n      jumpi\n        /* \"#utility.yul\":16399:16417   */\n      tag_352\n      tag_168\n      jump\t// in\n    tag_352:\n        /* \"#utility.yul\":16316:16419   */\n    tag_351:\n        /* \"#utility.yul\":16446:16447   */\n      0x01\n        /* \"#utility.yul\":16439:16444   */\n      dup3\n        /* \"#utility.yul\":16435:16448   */\n      add\n        /* \"#utility.yul\":16428:16448   */\n      swap1\n      pop\n        /* \"#utility.yul\":16221:16454   */\n      swap2\n      swap1\n      pop\n      jump\t// out\n        /* \"#utility.yul\":16460:16993   */\n    tag_73:\n        /* \"#utility.yul\":16629:16633   */\n      0x00\n        /* \"#utility.yul\":16667:16669   */\n      0x60\n        /* \"#utility.yul\":16656:16665   */\n      dup3\n        /* \"#utility.yul\":16652:16670   */\n      add\n        /* \"#utility.yul\":16644:16670   */\n      swap1\n      pop\n        /* \"#utility.yul\":16680:16751   */\n      tag_354\n        /* \"#utility.yul\":16748:16749   */\n      0x00\n        /* \"#utility.yul\":16737:16746   */\n      dup4\n        /* \"#utility.yul\":16733:16750   */\n      add\n        /* \"#utility.yul\":16724:16730   */\n      dup7\n        /* \"#utility.yul\":16680:16751   */\n      tag_117\n      jump\t// in\n    tag_354:\n        /* \"#utility.yul\":16798:16807   */\n      dup2\n        /* \"#utility.yul\":16792:16796   */\n      dup2\n        /* \"#utility.yul\":16788:16808   */\n      sub\n        /* \"#utility.yul\":16783:16785   */\n      0x20\n        /* \"#utility.yul\":16772:16781   */\n      dup4\n        /* \"#utility.yul\":16768:16786   */\n      add\n        /* \"#utility.yul\":16761:16809   */\n      mstore\n        /* \"#utility.yul\":16826:16904   */\n      tag_355\n        /* \"#utility.yul\":16899:16903   */\n      dup2\n        /* \"#utility.yul\":16890:16896   */\n      dup6\n        /* \"#utility.yul\":16826:16904   */\n      tag_127\n      jump\t// in\n    tag_355:\n        /* \"#utility.yul\":16818:16904   */\n      swap1\n      pop\n        /* \"#utility.yul\":16914:16986   */\n      tag_356\n        /* \"#utility.yul\":16982:16984   */\n      0x40\n        /* \"#utility.yul\":16971:16980   */\n      dup4\n        /* \"#utility.yul\":16967:16985   */\n      add\n        /* \"#utility.yul\":16958:16964   */\n      dup5\n        /* \"#utility.yul\":16914:16986   */\n      tag_117\n      jump\t// in\n    tag_356:\n        /* \"#utility.yul\":16460:16993   */\n      swap5\n      swap4\n      pop\n      pop\n      pop\n      pop\n      jump\t// out\n        /* \"#utility.yul\":16999:17223   */\n    tag_169:\n        /* \"#utility.yul\":17139:17173   */\n      0x596f7520617265206e6f7420746865206f776e6572206f662074686973207072\n        /* \"#utility.yul\":17135:17136   */\n      0x00\n        /* \"#utility.yul\":17127:17133   */\n      dup3\n        /* \"#utility.yul\":17123:17137   */\n      add\n        /* \"#utility.yul\":17116:17174   */\n      mstore\n        /* \"#utility.yul\":17208:17215   */\n      0x6f64756374000000000000000000000000000000000000000000000000000000\n        /* \"#utility.yul\":17203:17205   */\n      0x20\n        /* \"#utility.yul\":17195:17201   */\n      dup3\n        /* \"#utility.yul\":17191:17206   */\n      add\n        /* \"#utility.yul\":17184:17216   */\n      mstore\n        /* \"#utility.yul\":16999:17223   */\n      pop\n      jump\t// out\n        /* \"#utility.yul\":17229:17595   */\n    tag_170:\n        /* \"#utility.yul\":17371:17374   */\n      0x00\n        /* \"#utility.yul\":17392:17459   */\n      tag_359\n        /* \"#utility.yul\":17456:17458   */\n      0x25\n        /* \"#utility.yul\":17451:17454   */\n      dup4\n        /* \"#utility.yul\":17392:17459   */\n      tag_124\n      jump\t// in\n    tag_359:\n        /* \"#utility.yul\":17385:17459   */\n      swap2\n      pop\n        /* \"#utility.yul\":17468:17561   */\n      tag_360\n        /* \"#utility.yul\":17557:17560   */\n      dup3\n        /* \"#utility.yul\":17468:17561   */\n      tag_169\n      jump\t// in\n    tag_360:\n        /* \"#utility.yul\":17586:17588   */\n      0x40\n        /* \"#utility.yul\":17581:17584   */\n      dup3\n        /* \"#utility.yul\":17577:17589   */\n      add\n        /* \"#utility.yul\":17570:17589   */\n      swap1\n      pop\n        /* \"#utility.yul\":17229:17595   */\n      swap2\n      swap1\n      pop\n      jump\t// out\n        /* \"#utility.yul\":17601:18020   */\n    tag_89:\n        /* \"#utility.yul\":17767:17771   */\n      0x00\n        /* \"#utility.yul\":17805:17807   */\n      0x20\n        /* \"#utility.yul\":17794:17803   */\n      dup3\n        /* \"#utility.yul\":17790:17808   */\n      add\n        /* \"#utility.yul\":17782:17808   */\n      swap1\n      pop\n        /* \"#utility.yul\":17854:17863   */\n      dup2\n        /* \"#utility.yul\":17848:17852   */\n      dup2\n        /* \"#utility.yul\":17844:17864   */\n      sub\n        /* \"#utility.yul\":17840:17841   */\n      0x00\n        /* \"#utility.yul\":17829:17838   */\n      dup4\n        /* \"#utility.yul\":17825:17842   */\n      add\n        /* \"#utility.yul\":17818:17865   */\n      mstore\n        /* \"#utility.yul\":17882:18013   */\n      tag_362\n        /* \"#utility.yul\":18008:18012   */\n      dup2\n        /* \"#utility.yul\":17882:18013   */\n      tag_170\n      jump\t// in\n    tag_362:\n        /* \"#utility.yul\":17874:18013   */\n      swap1\n      pop\n        /* \"#utility.yul\":17601:18020   */\n      swap2\n      swap1\n      pop\n      jump\t// out\n        /* \"#utility.yul\":18026:18191   */\n    tag_171:\n        /* \"#utility.yul\":18166:18183   */\n      0x496e76616c696420616464726573730000000000000000000000000000000000\n        /* \"#utility.yul\":18162:18163   */\n      0x00\n        /* \"#utility.yul\":18154:18160   */\n      dup3\n        /* \"#utility.yul\":18150:18164   */\n      add\n        /* \"#utility.yul\":18143:18184   */\n      mstore\n        /* \"#utility.yul\":18026:18191   */\n      pop\n      jump\t// out\n        /* \"#utility.yul\":18197:18563   */\n    tag_172:\n        /* \"#utility.yul\":18339:18342   */\n      0x00\n        /* \"#utility.yul\":18360:18427   */\n      tag_365\n        /* \"#utility.yul\":18424:18426   */\n      0x0f\n        /* \"#utility.yul\":18419:18422   */\n      dup4\n        /* \"#utility.yul\":18360:18427   */\n      tag_124\n      jump\t// in\n    tag_365:\n        /* \"#utility.yul\":18353:18427   */\n      swap2\n      pop\n        /* \"#utility.yul\":18436:18529   */\n      tag_366\n        /* \"#utility.yul\":18525:18528   */\n      dup3\n        /* \"#utility.yul\":18436:18529   */\n      tag_171\n      jump\t// in\n    tag_366:\n        /* \"#utility.yul\":18554:18556   */\n      0x20\n        /* \"#utility.yul\":18549:18552   */\n      dup3\n        /* \"#utility.yul\":18545:18557   */\n      add\n        /* \"#utility.yul\":18538:18557   */\n      swap1\n      pop\n        /* \"#utility.yul\":18197:18563   */\n      swap2\n      swap1\n      pop\n      jump\t// out\n        /* \"#utility.yul\":18569:18988   */\n    tag_92:\n        /* \"#utility.yul\":18735:18739   */\n      0x00\n        /* \"#utility.yul\":18773:18775   */\n      0x20\n        /* \"#utility.yul\":18762:18771   */\n      dup3\n        /* \"#utility.yul\":18758:18776   */\n      add\n        /* \"#utility.yul\":18750:18776   */\n      swap1\n      pop\n        /* \"#utility.yul\":18822:18831   */\n      dup2\n        /* \"#utility.yul\":18816:18820   */\n      dup2\n        /* \"#utility.yul\":18812:18832   */\n      sub\n        /* \"#utility.yul\":18808:18809   */\n      0x00\n        /* \"#utility.yul\":18797:18806   */\n      dup4\n        /* \"#utility.yul\":18793:18810   */\n      add\n        /* \"#utility.yul\":18786:18833   */\n      mstore\n        /* \"#utility.yul\":18850:18981   */\n      tag_368\n        /* \"#utility.yul\":18976:18980   */\n      dup2\n        /* \"#utility.yul\":18850:18981   */\n      tag_172\n      jump\t// in\n    tag_368:\n        /* \"#utility.yul\":18842:18981   */\n      swap1\n      pop\n        /* \"#utility.yul\":18569:18988   */\n      swap2\n      swap1\n      pop\n      jump\t// out\n        /* \"#utility.yul\":18994:19175   */\n    tag_173:\n        /* \"#utility.yul\":19134:19167   */\n      0x5265656e7472616e637947756172643a207265656e7472616e742063616c6c00\n        /* \"#utility.yul\":19130:19131   */\n      0x00\n        /* \"#utility.yul\":19122:19128   */\n      dup3\n        /* \"#utility.yul\":19118:19132   */\n      add\n        /* \"#utility.yul\":19111:19168   */\n      mstore\n        /* \"#utility.yul\":18994:19175   */\n      pop\n      jump\t// out\n        /* \"#utility.yul\":19181:19547   */\n    tag_174:\n        /* \"#utility.yul\":19323:19326   */\n      0x00\n        /* \"#utility.yul\":19344:19411   */\n      tag_371\n        /* \"#utility.yul\":19408:19410   */\n      0x1f\n        /* \"#utility.yul\":19403:19406   */\n      dup4\n        /* \"#utility.yul\":19344:19411   */\n      tag_124\n      jump\t// in\n    tag_371:\n        /* \"#utility.yul\":19337:19411   */\n      swap2\n      pop\n        /* \"#utility.yul\":19420:19513   */\n      tag_372\n        /* \"#utility.yul\":19509:19512   */\n      dup3\n        /* \"#utility.yul\":19420:19513   */\n      tag_173\n      jump\t// in\n    tag_372:\n        /* \"#utility.yul\":19538:19540   */\n      0x20\n        /* \"#utility.yul\":19533:19536   */\n      dup3\n        /* \"#utility.yul\":19529:19541   */\n      add\n        /* \"#utility.yul\":19522:19541   */\n      swap1\n      pop\n        /* \"#utility.yul\":19181:19547   */\n      swap2\n      swap1\n      pop\n      jump\t// out\n        /* \"#utility.yul\":19553:19972   */\n    tag_113:\n        /* \"#utility.yul\":19719:19723   */\n      0x00\n        /* \"#utility.yul\":19757:19759   */\n      0x20\n        /* \"#utility.yul\":19746:19755   */\n      dup3\n        /* \"#utility.yul\":19742:19760   */\n      add\n        /* \"#utility.yul\":19734:19760   */\n      swap1\n      pop\n        /* \"#utility.yul\":19806:19815   */\n      dup2\n        /* \"#utility.yul\":19800:19804   */\n      dup2\n        /* \"#utility.yul\":19796:19816   */\n      sub\n        /* \"#utility.yul\":19792:19793   */\n      0x00\n        /* \"#utility.yul\":19781:19790   */\n      dup4\n        /* \"#utility.yul\":19777:19794   */\n      add\n        /* \"#utility.yul\":19770:19817   */\n      mstore\n        /* \"#utility.yul\":19834:19965   */\n      tag_374\n        /* \"#utility.yul\":19960:19964   */\n      dup2\n        /* \"#utility.yul\":19834:19965   */\n      tag_174\n      jump\t// in\n    tag_374:\n        /* \"#utility.yul\":19826:19965   */\n      swap1\n      pop\n        /* \"#utility.yul\":19553:19972   */\n      swap2\n      swap1\n      pop\n      jump\t// out\n\n    auxdata: 0xa264697066735822122002a7487bafaf569423e9cbcbbf2cf321127c5b8762d643fe1f7e0e8cdfc75b0064736f6c634300081a0033\n}\n",
				"bytecode": {
					"linkReferences": {},
					"object": "608060405234801561000f575f80fd5b50335f73ffffffffffffffffffffffffffffffffffffffff168173ffffffffffffffffffffffffffffffffffffffff1603610081575f6040517f1e4fbdf7000000000000000000000000000000000000000000000000000000008152600401610078919061019d565b60405180910390fd5b6100908161009d60201b60201c565b50600180819055506101b6565b5f805f9054906101000a900473ffffffffffffffffffffffffffffffffffffffff169050815f806101000a81548173ffffffffffffffffffffffffffffffffffffffff021916908373ffffffffffffffffffffffffffffffffffffffff1602179055508173ffffffffffffffffffffffffffffffffffffffff168173ffffffffffffffffffffffffffffffffffffffff167f8be0079c531659141344cd1fd0a4f28419497f9722a3daafe3b4186f6b6457e060405160405180910390a35050565b5f73ffffffffffffffffffffffffffffffffffffffff82169050919050565b5f6101878261015e565b9050919050565b6101978161017d565b82525050565b5f6020820190506101b05f83018461018e565b92915050565b611548806101c35f395ff3fe608060405234801561000f575f80fd5b5060043610610091575f3560e01c80638c96091b116100645780638c96091b1461010d5780638da5cb5b14610129578063b9db15b414610147578063e43059e514610177578063f2fde38b1461019357610091565b80634de91a6314610095578063524e8462146100b3578063715018a6146100cf5780637acc0b20146100d9575b5f80fd5b61009d6101af565b6040516100aa9190610ad3565b60405180910390f35b6100cd60048036038101906100c89190610b27565b6101b5565b005b6100d7610285565b005b6100f360048036038101906100ee9190610b27565b610298565b604051610104959493929190610c1b565b60405180910390f35b61012760048036038101906101229190610d9f565b61037b565b005b6101316104d7565b60405161013e9190610df9565b60405180910390f35b610161600480360381019061015c9190610b27565b6104fe565b60405161016e9190610efa565b60405180910390f35b610191600480360381019061018c9190610f44565b61063b565b005b6101ad60048036038101906101a89190610f82565b61084d565b005b60035481565b3373ffffffffffffffffffffffffffffffffffffffff1660025f8381526020019081526020015f206002015f9054906101000a900473ffffffffffffffffffffffffffffffffffffffff1673ffffffffffffffffffffffffffffffffffffffff1614610256576040517f08c379a000000000000000000000000000000000000000000000000000000000815260040161024d9061101d565b60405180910390fd5b600160025f8381526020019081526020015f206004015f6101000a81548160ff02191690831515021790555050565b61028d6108d1565b6102965f610958565b565b6002602052805f5260405f205f91509050805f0154908060010180546102bd90611068565b80601f01602080910402602001604051908101604052809291908181526020018280546102e990611068565b80156103345780601f1061030b57610100808354040283529160200191610334565b820191905f5260205f20905b81548152906001019060200180831161031757829003601f168201915b505050505090806002015f9054906101000a900473ffffffffffffffffffffffffffffffffffffffff1690806003015490806004015f9054906101000a900460ff16905085565b6103836108d1565b5f60035490506040518060a001604052808281526020018481526020013373ffffffffffffffffffffffffffffffffffffffff1681526020018381526020015f151581525060025f8381526020019081526020015f205f820151815f015560208201518160010190816103f69190611235565b506040820151816002015f6101000a81548173ffffffffffffffffffffffffffffffffffffffff021916908373ffffffffffffffffffffffffffffffffffffffff160217905550606082015181600301556080820151816004015f6101000a81548160ff02191690831515021790555090505060035f81548092919061047b90611331565b91905055503373ffffffffffffffffffffffffffffffffffffffff167f5b750c34ff65e7500b4250ef0db18cf3a3f0d4ce3131ef7e64d457b0bea7236f8285856040516104ca93929190611378565b60405180910390a2505050565b5f805f9054906101000a900473ffffffffffffffffffffffffffffffffffffffff16905090565b610506610a78565b60025f8381526020019081526020015f206040518060a00160405290815f820154815260200160018201805461053b90611068565b80601f016020809104026020016040519081016040528092919081815260200182805461056790611068565b80156105b25780601f10610589576101008083540402835291602001916105b2565b820191905f5260205f20905b81548152906001019060200180831161059557829003601f168201915b50505050508152602001600282015f9054906101000a900473ffffffffffffffffffffffffffffffffffffffff1673ffffffffffffffffffffffffffffffffffffffff1673ffffffffffffffffffffffffffffffffffffffff16815260200160038201548152602001600482015f9054906101000a900460ff1615151515815250509050919050565b610643610a19565b3373ffffffffffffffffffffffffffffffffffffffff1660025f8481526020019081526020015f206002015f9054906101000a900473ffffffffffffffffffffffffffffffffffffffff1673ffffffffffffffffffffffffffffffffffffffff16146106e4576040517f08c379a00000000000000000000000000000000000000000000000000000000081526004016106db90611424565b60405180910390fd5b5f73ffffffffffffffffffffffffffffffffffffffff168173ffffffffffffffffffffffffffffffffffffffff1603610752576040517f08c379a00000000000000000000000000000000000000000000000000000000081526004016107499061148c565b60405180910390fd5b5f60025f8481526020019081526020015f206002015f9054906101000a900473ffffffffffffffffffffffffffffffffffffffff1690508160025f8581526020019081526020015f206002015f6101000a81548173ffffffffffffffffffffffffffffffffffffffff021916908373ffffffffffffffffffffffffffffffffffffffff1602179055508173ffffffffffffffffffffffffffffffffffffffff168173ffffffffffffffffffffffffffffffffffffffff167fcef86d37ba3dc1d682967cde44d8050488734bf53166725b220b4d2e515e9e93856040516108389190610ad3565b60405180910390a350610849610a68565b5050565b6108556108d1565b5f73ffffffffffffffffffffffffffffffffffffffff168173ffffffffffffffffffffffffffffffffffffffff16036108c5575f6040517f1e4fbdf70000000000000000000000000000000000000000000000000000000081526004016108bc9190610df9565b60405180910390fd5b6108ce81610958565b50565b6108d9610a71565b73ffffffffffffffffffffffffffffffffffffffff166108f76104d7565b73ffffffffffffffffffffffffffffffffffffffff16146109565761091a610a71565b6040517f118cdaa700000000000000000000000000000000000000000000000000000000815260040161094d9190610df9565b60405180910390fd5b565b5f805f9054906101000a900473ffffffffffffffffffffffffffffffffffffffff169050815f806101000a81548173ffffffffffffffffffffffffffffffffffffffff021916908373ffffffffffffffffffffffffffffffffffffffff1602179055508173ffffffffffffffffffffffffffffffffffffffff168173ffffffffffffffffffffffffffffffffffffffff167f8be0079c531659141344cd1fd0a4f28419497f9722a3daafe3b4186f6b6457e060405160405180910390a35050565b600260015403610a5e576040517f08c379a0000000000000000000000000000000000000000000000000000000008152600401610a55906114f4565b60405180910390fd5b6002600181905550565b60018081905550565b5f33905090565b6040518060a001604052805f8152602001606081526020015f73ffffffffffffffffffffffffffffffffffffffff1681526020015f81526020015f151581525090565b5f819050919050565b610acd81610abb565b82525050565b5f602082019050610ae65f830184610ac4565b92915050565b5f604051905090565b5f80fd5b5f80fd5b610b0681610abb565b8114610b10575f80fd5b50565b5f81359050610b2181610afd565b92915050565b5f60208284031215610b3c57610b3b610af5565b5b5f610b4984828501610b13565b91505092915050565b5f81519050919050565b5f82825260208201905092915050565b8281835e5f83830152505050565b5f601f19601f8301169050919050565b5f610b9482610b52565b610b9e8185610b5c565b9350610bae818560208601610b6c565b610bb781610b7a565b840191505092915050565b5f73ffffffffffffffffffffffffffffffffffffffff82169050919050565b5f610beb82610bc2565b9050919050565b610bfb81610be1565b82525050565b5f8115159050919050565b610c1581610c01565b82525050565b5f60a082019050610c2e5f830188610ac4565b8181036020830152610c408187610b8a565b9050610c4f6040830186610bf2565b610c5c6060830185610ac4565b610c696080830184610c0c565b9695505050505050565b5f80fd5b5f80fd5b7f4e487b71000000000000000000000000000000000000000000000000000000005f52604160045260245ffd5b610cb182610b7a565b810181811067ffffffffffffffff82111715610cd057610ccf610c7b565b5b80604052505050565b5f610ce2610aec565b9050610cee8282610ca8565b919050565b5f67ffffffffffffffff821115610d0d57610d0c610c7b565b5b610d1682610b7a565b9050602081019050919050565b828183375f83830152505050565b5f610d43610d3e84610cf3565b610cd9565b905082815260208101848484011115610d5f57610d5e610c77565b5b610d6a848285610d23565b509392505050565b5f82601f830112610d8657610d85610c73565b5b8135610d96848260208601610d31565b91505092915050565b5f8060408385031215610db557610db4610af5565b5b5f83013567ffffffffffffffff811115610dd257610dd1610af9565b5b610dde85828601610d72565b9250506020610def85828601610b13565b9150509250929050565b5f602082019050610e0c5f830184610bf2565b92915050565b610e1b81610abb565b82525050565b5f82825260208201905092915050565b5f610e3b82610b52565b610e458185610e21565b9350610e55818560208601610b6c565b610e5e81610b7a565b840191505092915050565b610e7281610be1565b82525050565b610e8181610c01565b82525050565b5f60a083015f830151610e9c5f860182610e12565b5060208301518482036020860152610eb48282610e31565b9150506040830151610ec96040860182610e69565b506060830151610edc6060860182610e12565b506080830151610eef6080860182610e78565b508091505092915050565b5f6020820190508181035f830152610f128184610e87565b905092915050565b610f2381610be1565b8114610f2d575f80fd5b50565b5f81359050610f3e81610f1a565b92915050565b5f8060408385031215610f5a57610f59610af5565b5b5f610f6785828601610b13565b9250506020610f7885828601610f30565b9150509250929050565b5f60208284031215610f9757610f96610af5565b5b5f610fa484828501610f30565b91505092915050565b7f596f75206d75737420626520746865206f776e657220746f20766572696679205f8201527f7468652070726f64756374000000000000000000000000000000000000000000602082015250565b5f611007602b83610b5c565b915061101282610fad565b604082019050919050565b5f6020820190508181035f83015261103481610ffb565b9050919050565b7f4e487b71000000000000000000000000000000000000000000000000000000005f52602260045260245ffd5b5f600282049050600182168061107f57607f821691505b6020821081036110925761109161103b565b5b50919050565b5f819050815f5260205f209050919050565b5f6020601f8301049050919050565b5f82821b905092915050565b5f600883026110f47fffffffffffffffffffffffffffffffffffffffffffffffffffffffffffffffff826110b9565b6110fe86836110b9565b95508019841693508086168417925050509392505050565b5f819050919050565b5f61113961113461112f84610abb565b611116565b610abb565b9050919050565b5f819050919050565b6111528361111f565b61116661115e82611140565b8484546110c5565b825550505050565b5f90565b61117a61116e565b611185818484611149565b505050565b5b818110156111a85761119d5f82611172565b60018101905061118b565b5050565b601f8211156111ed576111be81611098565b6111c7846110aa565b810160208510156111d6578190505b6111ea6111e2856110aa565b83018261118a565b50505b505050565b5f82821c905092915050565b5f61120d5f19846008026111f2565b1980831691505092915050565b5f61122583836111fe565b9150826002028217905092915050565b61123e82610b52565b67ffffffffffffffff81111561125757611256610c7b565b5b6112618254611068565b61126c8282856111ac565b5f60209050601f83116001811461129d575f841561128b578287015190505b611295858261121a565b8655506112fc565b601f1984166112ab86611098565b5f5b828110156112d2578489015182556001820191506020850194506020810190506112ad565b868310156112ef57848901516112eb601f8916826111fe565b8355505b6001600288020188555050505b505050505050565b7f4e487b71000000000000000000000000000000000000000000000000000000005f52601160045260245ffd5b5f61133b82610abb565b91507fffffffffffffffffffffffffffffffffffffffffffffffffffffffffffffffff820361136d5761136c611304565b5b600182019050919050565b5f60608201905061138b5f830186610ac4565b818103602083015261139d8185610b8a565b90506113ac6040830184610ac4565b949350505050565b7f596f7520617265206e6f7420746865206f776e6572206f6620746869732070725f8201527f6f64756374000000000000000000000000000000000000000000000000000000602082015250565b5f61140e602583610b5c565b9150611419826113b4565b604082019050919050565b5f6020820190508181035f83015261143b81611402565b9050919050565b7f496e76616c6964206164647265737300000000000000000000000000000000005f82015250565b5f611476600f83610b5c565b915061148182611442565b602082019050919050565b5f6020820190508181035f8301526114a38161146a565b9050919050565b7f5265656e7472616e637947756172643a207265656e7472616e742063616c6c005f82015250565b5f6114de601f83610b5c565b91506114e9826114aa565b602082019050919050565b5f6020820190508181035f83015261150b816114d2565b905091905056fea264697066735822122002a7487bafaf569423e9cbcbbf2cf321127c5b8762d643fe1f7e0e8cdfc75b0064736f6c634300081a0033",
					"opcodes": "PUSH1 0x80 PUSH1 0x40 MSTORE CALLVALUE DUP1 ISZERO PUSH2 0xF JUMPI PUSH0 DUP1 REVERT JUMPDEST POP CALLER PUSH0 PUSH20 0xFFFFFFFFFFFFFFFFFFFFFFFFFFFFFFFFFFFFFFFF AND DUP2 PUSH20 0xFFFFFFFFFFFFFFFFFFFFFFFFFFFFFFFFFFFFFFFF AND SUB PUSH2 0x81 JUMPI PUSH0 PUSH1 0x40 MLOAD PUSH32 0x1E4FBDF700000000000000000000000000000000000000000000000000000000 DUP2 MSTORE PUSH1 0x4 ADD PUSH2 0x78 SWAP2 SWAP1 PUSH2 0x19D JUMP JUMPDEST PUSH1 0x40 MLOAD DUP1 SWAP2 SUB SWAP1 REVERT JUMPDEST PUSH2 0x90 DUP2 PUSH2 0x9D PUSH1 0x20 SHL PUSH1 0x20 SHR JUMP JUMPDEST POP PUSH1 0x1 DUP1 DUP2 SWAP1 SSTORE POP PUSH2 0x1B6 JUMP JUMPDEST PUSH0 DUP1 PUSH0 SWAP1 SLOAD SWAP1 PUSH2 0x100 EXP SWAP1 DIV PUSH20 0xFFFFFFFFFFFFFFFFFFFFFFFFFFFFFFFFFFFFFFFF AND SWAP1 POP DUP2 PUSH0 DUP1 PUSH2 0x100 EXP DUP2 SLOAD DUP2 PUSH20 0xFFFFFFFFFFFFFFFFFFFFFFFFFFFFFFFFFFFFFFFF MUL NOT AND SWAP1 DUP4 PUSH20 0xFFFFFFFFFFFFFFFFFFFFFFFFFFFFFFFFFFFFFFFF AND MUL OR SWAP1 SSTORE POP DUP2 PUSH20 0xFFFFFFFFFFFFFFFFFFFFFFFFFFFFFFFFFFFFFFFF AND DUP2 PUSH20 0xFFFFFFFFFFFFFFFFFFFFFFFFFFFFFFFFFFFFFFFF AND PUSH32 0x8BE0079C531659141344CD1FD0A4F28419497F9722A3DAAFE3B4186F6B6457E0 PUSH1 0x40 MLOAD PUSH1 0x40 MLOAD DUP1 SWAP2 SUB SWAP1 LOG3 POP POP JUMP JUMPDEST PUSH0 PUSH20 0xFFFFFFFFFFFFFFFFFFFFFFFFFFFFFFFFFFFFFFFF DUP3 AND SWAP1 POP SWAP2 SWAP1 POP JUMP JUMPDEST PUSH0 PUSH2 0x187 DUP3 PUSH2 0x15E JUMP JUMPDEST SWAP1 POP SWAP2 SWAP1 POP JUMP JUMPDEST PUSH2 0x197 DUP2 PUSH2 0x17D JUMP JUMPDEST DUP3 MSTORE POP POP JUMP JUMPDEST PUSH0 PUSH1 0x20 DUP3 ADD SWAP1 POP PUSH2 0x1B0 PUSH0 DUP4 ADD DUP5 PUSH2 0x18E JUMP JUMPDEST SWAP3 SWAP2 POP POP JUMP JUMPDEST PUSH2 0x1548 DUP1 PUSH2 0x1C3 PUSH0 CODECOPY PUSH0 RETURN INVALID PUSH1 0x80 PUSH1 0x40 MSTORE CALLVALUE DUP1 ISZERO PUSH2 0xF JUMPI PUSH0 DUP1 REVERT JUMPDEST POP PUSH1 0x4 CALLDATASIZE LT PUSH2 0x91 JUMPI PUSH0 CALLDATALOAD PUSH1 0xE0 SHR DUP1 PUSH4 0x8C96091B GT PUSH2 0x64 JUMPI DUP1 PUSH4 0x8C96091B EQ PUSH2 0x10D JUMPI DUP1 PUSH4 0x8DA5CB5B EQ PUSH2 0x129 JUMPI DUP1 PUSH4 0xB9DB15B4 EQ PUSH2 0x147 JUMPI DUP1 PUSH4 0xE43059E5 EQ PUSH2 0x177 JUMPI DUP1 PUSH4 0xF2FDE38B EQ PUSH2 0x193 JUMPI PUSH2 0x91 JUMP JUMPDEST DUP1 PUSH4 0x4DE91A63 EQ PUSH2 0x95 JUMPI DUP1 PUSH4 0x524E8462 EQ PUSH2 0xB3 JUMPI DUP1 PUSH4 0x715018A6 EQ PUSH2 0xCF JUMPI DUP1 PUSH4 0x7ACC0B20 EQ PUSH2 0xD9 JUMPI JUMPDEST PUSH0 DUP1 REVERT JUMPDEST PUSH2 0x9D PUSH2 0x1AF JUMP JUMPDEST PUSH1 0x40 MLOAD PUSH2 0xAA SWAP2 SWAP1 PUSH2 0xAD3 JUMP JUMPDEST PUSH1 0x40 MLOAD DUP1 SWAP2 SUB SWAP1 RETURN JUMPDEST PUSH2 0xCD PUSH1 0x4 DUP1 CALLDATASIZE SUB DUP2 ADD SWAP1 PUSH2 0xC8 SWAP2 SWAP1 PUSH2 0xB27 JUMP JUMPDEST PUSH2 0x1B5 JUMP JUMPDEST STOP JUMPDEST PUSH2 0xD7 PUSH2 0x285 JUMP JUMPDEST STOP JUMPDEST PUSH2 0xF3 PUSH1 0x4 DUP1 CALLDATASIZE SUB DUP2 ADD SWAP1 PUSH2 0xEE SWAP2 SWAP1 PUSH2 0xB27 JUMP JUMPDEST PUSH2 0x298 JUMP JUMPDEST PUSH1 0x40 MLOAD PUSH2 0x104 SWAP6 SWAP5 SWAP4 SWAP3 SWAP2 SWAP1 PUSH2 0xC1B JUMP JUMPDEST PUSH1 0x40 MLOAD DUP1 SWAP2 SUB SWAP1 RETURN JUMPDEST PUSH2 0x127 PUSH1 0x4 DUP1 CALLDATASIZE SUB DUP2 ADD SWAP1 PUSH2 0x122 SWAP2 SWAP1 PUSH2 0xD9F JUMP JUMPDEST PUSH2 0x37B JUMP JUMPDEST STOP JUMPDEST PUSH2 0x131 PUSH2 0x4D7 JUMP JUMPDEST PUSH1 0x40 MLOAD PUSH2 0x13E SWAP2 SWAP1 PUSH2 0xDF9 JUMP JUMPDEST PUSH1 0x40 MLOAD DUP1 SWAP2 SUB SWAP1 RETURN JUMPDEST PUSH2 0x161 PUSH1 0x4 DUP1 CALLDATASIZE SUB DUP2 ADD SWAP1 PUSH2 0x15C SWAP2 SWAP1 PUSH2 0xB27 JUMP JUMPDEST PUSH2 0x4FE JUMP JUMPDEST PUSH1 0x40 MLOAD PUSH2 0x16E SWAP2 SWAP1 PUSH2 0xEFA JUMP JUMPDEST PUSH1 0x40 MLOAD DUP1 SWAP2 SUB SWAP1 RETURN JUMPDEST PUSH2 0x191 PUSH1 0x4 DUP1 CALLDATASIZE SUB DUP2 ADD SWAP1 PUSH2 0x18C SWAP2 SWAP1 PUSH2 0xF44 JUMP JUMPDEST PUSH2 0x63B JUMP JUMPDEST STOP JUMPDEST PUSH2 0x1AD PUSH1 0x4 DUP1 CALLDATASIZE SUB DUP2 ADD SWAP1 PUSH2 0x1A8 SWAP2 SWAP1 PUSH2 0xF82 JUMP JUMPDEST PUSH2 0x84D JUMP JUMPDEST STOP JUMPDEST PUSH1 0x3 SLOAD DUP2 JUMP JUMPDEST CALLER PUSH20 0xFFFFFFFFFFFFFFFFFFFFFFFFFFFFFFFFFFFFFFFF AND PUSH1 0x2 PUSH0 DUP4 DUP2 MSTORE PUSH1 0x20 ADD SWAP1 DUP2 MSTORE PUSH1 0x20 ADD PUSH0 KECCAK256 PUSH1 0x2 ADD PUSH0 SWAP1 SLOAD SWAP1 PUSH2 0x100 EXP SWAP1 DIV PUSH20 0xFFFFFFFFFFFFFFFFFFFFFFFFFFFFFFFFFFFFFFFF AND PUSH20 0xFFFFFFFFFFFFFFFFFFFFFFFFFFFFFFFFFFFFFFFF AND EQ PUSH2 0x256 JUMPI PUSH1 0x40 MLOAD PUSH32 0x8C379A000000000000000000000000000000000000000000000000000000000 DUP2 MSTORE PUSH1 0x4 ADD PUSH2 0x24D SWAP1 PUSH2 0x101D JUMP JUMPDEST PUSH1 0x40 MLOAD DUP1 SWAP2 SUB SWAP1 REVERT JUMPDEST PUSH1 0x1 PUSH1 0x2 PUSH0 DUP4 DUP2 MSTORE PUSH1 0x20 ADD SWAP1 DUP2 MSTORE PUSH1 0x20 ADD PUSH0 KECCAK256 PUSH1 0x4 ADD PUSH0 PUSH2 0x100 EXP DUP2 SLOAD DUP2 PUSH1 0xFF MUL NOT AND SWAP1 DUP4 ISZERO ISZERO MUL OR SWAP1 SSTORE POP POP JUMP JUMPDEST PUSH2 0x28D PUSH2 0x8D1 JUMP JUMPDEST PUSH2 0x296 PUSH0 PUSH2 0x958 JUMP JUMPDEST JUMP JUMPDEST PUSH1 0x2 PUSH1 0x20 MSTORE DUP1 PUSH0 MSTORE PUSH1 0x40 PUSH0 KECCAK256 PUSH0 SWAP2 POP SWAP1 POP DUP1 PUSH0 ADD SLOAD SWAP1 DUP1 PUSH1 0x1 ADD DUP1 SLOAD PUSH2 0x2BD SWAP1 PUSH2 0x1068 JUMP JUMPDEST DUP1 PUSH1 0x1F ADD PUSH1 0x20 DUP1 SWAP2 DIV MUL PUSH1 0x20 ADD PUSH1 0x40 MLOAD SWAP1 DUP2 ADD PUSH1 0x40 MSTORE DUP1 SWAP3 SWAP2 SWAP1 DUP2 DUP2 MSTORE PUSH1 0x20 ADD DUP3 DUP1 SLOAD PUSH2 0x2E9 SWAP1 PUSH2 0x1068 JUMP JUMPDEST DUP1 ISZERO PUSH2 0x334 JUMPI DUP1 PUSH1 0x1F LT PUSH2 0x30B JUMPI PUSH2 0x100 DUP1 DUP4 SLOAD DIV MUL DUP4 MSTORE SWAP2 PUSH1 0x20 ADD SWAP2 PUSH2 0x334 JUMP JUMPDEST DUP3 ADD SWAP2 SWAP1 PUSH0 MSTORE PUSH1 0x20 PUSH0 KECCAK256 SWAP1 JUMPDEST DUP2 SLOAD DUP2 MSTORE SWAP1 PUSH1 0x1 ADD SWAP1 PUSH1 0x20 ADD DUP1 DUP4 GT PUSH2 0x317 JUMPI DUP3 SWAP1 SUB PUSH1 0x1F AND DUP3 ADD SWAP2 JUMPDEST POP POP POP POP POP SWAP1 DUP1 PUSH1 0x2 ADD PUSH0 SWAP1 SLOAD SWAP1 PUSH2 0x100 EXP SWAP1 DIV PUSH20 0xFFFFFFFFFFFFFFFFFFFFFFFFFFFFFFFFFFFFFFFF AND SWAP1 DUP1 PUSH1 0x3 ADD SLOAD SWAP1 DUP1 PUSH1 0x4 ADD PUSH0 SWAP1 SLOAD SWAP1 PUSH2 0x100 EXP SWAP1 DIV PUSH1 0xFF AND SWAP1 POP DUP6 JUMP JUMPDEST PUSH2 0x383 PUSH2 0x8D1 JUMP JUMPDEST PUSH0 PUSH1 0x3 SLOAD SWAP1 POP PUSH1 0x40 MLOAD DUP1 PUSH1 0xA0 ADD PUSH1 0x40 MSTORE DUP1 DUP3 DUP2 MSTORE PUSH1 0x20 ADD DUP5 DUP2 MSTORE PUSH1 0x20 ADD CALLER PUSH20 0xFFFFFFFFFFFFFFFFFFFFFFFFFFFFFFFFFFFFFFFF AND DUP2 MSTORE PUSH1 0x20 ADD DUP4 DUP2 MSTORE PUSH1 0x20 ADD PUSH0 ISZERO ISZERO DUP2 MSTORE POP PUSH1 0x2 PUSH0 DUP4 DUP2 MSTORE PUSH1 0x20 ADD SWAP1 DUP2 MSTORE PUSH1 0x20 ADD PUSH0 KECCAK256 PUSH0 DUP3 ADD MLOAD DUP2 PUSH0 ADD SSTORE PUSH1 0x20 DUP3 ADD MLOAD DUP2 PUSH1 0x1 ADD SWAP1 DUP2 PUSH2 0x3F6 SWAP2 SWAP1 PUSH2 0x1235 JUMP JUMPDEST POP PUSH1 0x40 DUP3 ADD MLOAD DUP2 PUSH1 0x2 ADD PUSH0 PUSH2 0x100 EXP DUP2 SLOAD DUP2 PUSH20 0xFFFFFFFFFFFFFFFFFFFFFFFFFFFFFFFFFFFFFFFF MUL NOT AND SWAP1 DUP4 PUSH20 0xFFFFFFFFFFFFFFFFFFFFFFFFFFFFFFFFFFFFFFFF AND MUL OR SWAP1 SSTORE POP PUSH1 0x60 DUP3 ADD MLOAD DUP2 PUSH1 0x3 ADD SSTORE PUSH1 0x80 DUP3 ADD MLOAD DUP2 PUSH1 0x4 ADD PUSH0 PUSH2 0x100 EXP DUP2 SLOAD DUP2 PUSH1 0xFF MUL NOT AND SWAP1 DUP4 ISZERO ISZERO MUL OR SWAP1 SSTORE POP SWAP1 POP POP PUSH1 0x3 PUSH0 DUP2 SLOAD DUP1 SWAP3 SWAP2 SWAP1 PUSH2 0x47B SWAP1 PUSH2 0x1331 JUMP JUMPDEST SWAP2 SWAP1 POP SSTORE POP CALLER PUSH20 0xFFFFFFFFFFFFFFFFFFFFFFFFFFFFFFFFFFFFFFFF AND PUSH32 0x5B750C34FF65E7500B4250EF0DB18CF3A3F0D4CE3131EF7E64D457B0BEA7236F DUP3 DUP6 DUP6 PUSH1 0x40 MLOAD PUSH2 0x4CA SWAP4 SWAP3 SWAP2 SWAP1 PUSH2 0x1378 JUMP JUMPDEST PUSH1 0x40 MLOAD DUP1 SWAP2 SUB SWAP1 LOG2 POP POP POP JUMP JUMPDEST PUSH0 DUP1 PUSH0 SWAP1 SLOAD SWAP1 PUSH2 0x100 EXP SWAP1 DIV PUSH20 0xFFFFFFFFFFFFFFFFFFFFFFFFFFFFFFFFFFFFFFFF AND SWAP1 POP SWAP1 JUMP JUMPDEST PUSH2 0x506 PUSH2 0xA78 JUMP JUMPDEST PUSH1 0x2 PUSH0 DUP4 DUP2 MSTORE PUSH1 0x20 ADD SWAP1 DUP2 MSTORE PUSH1 0x20 ADD PUSH0 KECCAK256 PUSH1 0x40 MLOAD DUP1 PUSH1 0xA0 ADD PUSH1 0x40 MSTORE SWAP1 DUP2 PUSH0 DUP3 ADD SLOAD DUP2 MSTORE PUSH1 0x20 ADD PUSH1 0x1 DUP3 ADD DUP1 SLOAD PUSH2 0x53B SWAP1 PUSH2 0x1068 JUMP JUMPDEST DUP1 PUSH1 0x1F ADD PUSH1 0x20 DUP1 SWAP2 DIV MUL PUSH1 0x20 ADD PUSH1 0x40 MLOAD SWAP1 DUP2 ADD PUSH1 0x40 MSTORE DUP1 SWAP3 SWAP2 SWAP1 DUP2 DUP2 MSTORE PUSH1 0x20 ADD DUP3 DUP1 SLOAD PUSH2 0x567 SWAP1 PUSH2 0x1068 JUMP JUMPDEST DUP1 ISZERO PUSH2 0x5B2 JUMPI DUP1 PUSH1 0x1F LT PUSH2 0x589 JUMPI PUSH2 0x100 DUP1 DUP4 SLOAD DIV MUL DUP4 MSTORE SWAP2 PUSH1 0x20 ADD SWAP2 PUSH2 0x5B2 JUMP JUMPDEST DUP3 ADD SWAP2 SWAP1 PUSH0 MSTORE PUSH1 0x20 PUSH0 KECCAK256 SWAP1 JUMPDEST DUP2 SLOAD DUP2 MSTORE SWAP1 PUSH1 0x1 ADD SWAP1 PUSH1 0x20 ADD DUP1 DUP4 GT PUSH2 0x595 JUMPI DUP3 SWAP1 SUB PUSH1 0x1F AND DUP3 ADD SWAP2 JUMPDEST POP POP POP POP POP DUP2 MSTORE PUSH1 0x20 ADD PUSH1 0x2 DUP3 ADD PUSH0 SWAP1 SLOAD SWAP1 PUSH2 0x100 EXP SWAP1 DIV PUSH20 0xFFFFFFFFFFFFFFFFFFFFFFFFFFFFFFFFFFFFFFFF AND PUSH20 0xFFFFFFFFFFFFFFFFFFFFFFFFFFFFFFFFFFFFFFFF AND PUSH20 0xFFFFFFFFFFFFFFFFFFFFFFFFFFFFFFFFFFFFFFFF AND DUP2 MSTORE PUSH1 0x20 ADD PUSH1 0x3 DUP3 ADD SLOAD DUP2 MSTORE PUSH1 0x20 ADD PUSH1 0x4 DUP3 ADD PUSH0 SWAP1 SLOAD SWAP1 PUSH2 0x100 EXP SWAP1 DIV PUSH1 0xFF AND ISZERO ISZERO ISZERO ISZERO DUP2 MSTORE POP POP SWAP1 POP SWAP2 SWAP1 POP JUMP JUMPDEST PUSH2 0x643 PUSH2 0xA19 JUMP JUMPDEST CALLER PUSH20 0xFFFFFFFFFFFFFFFFFFFFFFFFFFFFFFFFFFFFFFFF AND PUSH1 0x2 PUSH0 DUP5 DUP2 MSTORE PUSH1 0x20 ADD SWAP1 DUP2 MSTORE PUSH1 0x20 ADD PUSH0 KECCAK256 PUSH1 0x2 ADD PUSH0 SWAP1 SLOAD SWAP1 PUSH2 0x100 EXP SWAP1 DIV PUSH20 0xFFFFFFFFFFFFFFFFFFFFFFFFFFFFFFFFFFFFFFFF AND PUSH20 0xFFFFFFFFFFFFFFFFFFFFFFFFFFFFFFFFFFFFFFFF AND EQ PUSH2 0x6E4 JUMPI PUSH1 0x40 MLOAD PUSH32 0x8C379A000000000000000000000000000000000000000000000000000000000 DUP2 MSTORE PUSH1 0x4 ADD PUSH2 0x6DB SWAP1 PUSH2 0x1424 JUMP JUMPDEST PUSH1 0x40 MLOAD DUP1 SWAP2 SUB SWAP1 REVERT JUMPDEST PUSH0 PUSH20 0xFFFFFFFFFFFFFFFFFFFFFFFFFFFFFFFFFFFFFFFF AND DUP2 PUSH20 0xFFFFFFFFFFFFFFFFFFFFFFFFFFFFFFFFFFFFFFFF AND SUB PUSH2 0x752 JUMPI PUSH1 0x40 MLOAD PUSH32 0x8C379A000000000000000000000000000000000000000000000000000000000 DUP2 MSTORE PUSH1 0x4 ADD PUSH2 0x749 SWAP1 PUSH2 0x148C JUMP JUMPDEST PUSH1 0x40 MLOAD DUP1 SWAP2 SUB SWAP1 REVERT JUMPDEST PUSH0 PUSH1 0x2 PUSH0 DUP5 DUP2 MSTORE PUSH1 0x20 ADD SWAP1 DUP2 MSTORE PUSH1 0x20 ADD PUSH0 KECCAK256 PUSH1 0x2 ADD PUSH0 SWAP1 SLOAD SWAP1 PUSH2 0x100 EXP SWAP1 DIV PUSH20 0xFFFFFFFFFFFFFFFFFFFFFFFFFFFFFFFFFFFFFFFF AND SWAP1 POP DUP2 PUSH1 0x2 PUSH0 DUP6 DUP2 MSTORE PUSH1 0x20 ADD SWAP1 DUP2 MSTORE PUSH1 0x20 ADD PUSH0 KECCAK256 PUSH1 0x2 ADD PUSH0 PUSH2 0x100 EXP DUP2 SLOAD DUP2 PUSH20 0xFFFFFFFFFFFFFFFFFFFFFFFFFFFFFFFFFFFFFFFF MUL NOT AND SWAP1 DUP4 PUSH20 0xFFFFFFFFFFFFFFFFFFFFFFFFFFFFFFFFFFFFFFFF AND MUL OR SWAP1 SSTORE POP DUP2 PUSH20 0xFFFFFFFFFFFFFFFFFFFFFFFFFFFFFFFFFFFFFFFF AND DUP2 PUSH20 0xFFFFFFFFFFFFFFFFFFFFFFFFFFFFFFFFFFFFFFFF AND PUSH32 0xCEF86D37BA3DC1D682967CDE44D8050488734BF53166725B220B4D2E515E9E93 DUP6 PUSH1 0x40 MLOAD PUSH2 0x838 SWAP2 SWAP1 PUSH2 0xAD3 JUMP JUMPDEST PUSH1 0x40 MLOAD DUP1 SWAP2 SUB SWAP1 LOG3 POP PUSH2 0x849 PUSH2 0xA68 JUMP JUMPDEST POP POP JUMP JUMPDEST PUSH2 0x855 PUSH2 0x8D1 JUMP JUMPDEST PUSH0 PUSH20 0xFFFFFFFFFFFFFFFFFFFFFFFFFFFFFFFFFFFFFFFF AND DUP2 PUSH20 0xFFFFFFFFFFFFFFFFFFFFFFFFFFFFFFFFFFFFFFFF AND SUB PUSH2 0x8C5 JUMPI PUSH0 PUSH1 0x40 MLOAD PUSH32 0x1E4FBDF700000000000000000000000000000000000000000000000000000000 DUP2 MSTORE PUSH1 0x4 ADD PUSH2 0x8BC SWAP2 SWAP1 PUSH2 0xDF9 JUMP JUMPDEST PUSH1 0x40 MLOAD DUP1 SWAP2 SUB SWAP1 REVERT JUMPDEST PUSH2 0x8CE DUP2 PUSH2 0x958 JUMP JUMPDEST POP JUMP JUMPDEST PUSH2 0x8D9 PUSH2 0xA71 JUMP JUMPDEST PUSH20 0xFFFFFFFFFFFFFFFFFFFFFFFFFFFFFFFFFFFFFFFF AND PUSH2 0x8F7 PUSH2 0x4D7 JUMP JUMPDEST PUSH20 0xFFFFFFFFFFFFFFFFFFFFFFFFFFFFFFFFFFFFFFFF AND EQ PUSH2 0x956 JUMPI PUSH2 0x91A PUSH2 0xA71 JUMP JUMPDEST PUSH1 0x40 MLOAD PUSH32 0x118CDAA700000000000000000000000000000000000000000000000000000000 DUP2 MSTORE PUSH1 0x4 ADD PUSH2 0x94D SWAP2 SWAP1 PUSH2 0xDF9 JUMP JUMPDEST PUSH1 0x40 MLOAD DUP1 SWAP2 SUB SWAP1 REVERT JUMPDEST JUMP JUMPDEST PUSH0 DUP1 PUSH0 SWAP1 SLOAD SWAP1 PUSH2 0x100 EXP SWAP1 DIV PUSH20 0xFFFFFFFFFFFFFFFFFFFFFFFFFFFFFFFFFFFFFFFF AND SWAP1 POP DUP2 PUSH0 DUP1 PUSH2 0x100 EXP DUP2 SLOAD DUP2 PUSH20 0xFFFFFFFFFFFFFFFFFFFFFFFFFFFFFFFFFFFFFFFF MUL NOT AND SWAP1 DUP4 PUSH20 0xFFFFFFFFFFFFFFFFFFFFFFFFFFFFFFFFFFFFFFFF AND MUL OR SWAP1 SSTORE POP DUP2 PUSH20 0xFFFFFFFFFFFFFFFFFFFFFFFFFFFFFFFFFFFFFFFF AND DUP2 PUSH20 0xFFFFFFFFFFFFFFFFFFFFFFFFFFFFFFFFFFFFFFFF AND PUSH32 0x8BE0079C531659141344CD1FD0A4F28419497F9722A3DAAFE3B4186F6B6457E0 PUSH1 0x40 MLOAD PUSH1 0x40 MLOAD DUP1 SWAP2 SUB SWAP1 LOG3 POP POP JUMP JUMPDEST PUSH1 0x2 PUSH1 0x1 SLOAD SUB PUSH2 0xA5E JUMPI PUSH1 0x40 MLOAD PUSH32 0x8C379A000000000000000000000000000000000000000000000000000000000 DUP2 MSTORE PUSH1 0x4 ADD PUSH2 0xA55 SWAP1 PUSH2 0x14F4 JUMP JUMPDEST PUSH1 0x40 MLOAD DUP1 SWAP2 SUB SWAP1 REVERT JUMPDEST PUSH1 0x2 PUSH1 0x1 DUP2 SWAP1 SSTORE POP JUMP JUMPDEST PUSH1 0x1 DUP1 DUP2 SWAP1 SSTORE POP JUMP JUMPDEST PUSH0 CALLER SWAP1 POP SWAP1 JUMP JUMPDEST PUSH1 0x40 MLOAD DUP1 PUSH1 0xA0 ADD PUSH1 0x40 MSTORE DUP1 PUSH0 DUP2 MSTORE PUSH1 0x20 ADD PUSH1 0x60 DUP2 MSTORE PUSH1 0x20 ADD PUSH0 PUSH20 0xFFFFFFFFFFFFFFFFFFFFFFFFFFFFFFFFFFFFFFFF AND DUP2 MSTORE PUSH1 0x20 ADD PUSH0 DUP2 MSTORE PUSH1 0x20 ADD PUSH0 ISZERO ISZERO DUP2 MSTORE POP SWAP1 JUMP JUMPDEST PUSH0 DUP2 SWAP1 POP SWAP2 SWAP1 POP JUMP JUMPDEST PUSH2 0xACD DUP2 PUSH2 0xABB JUMP JUMPDEST DUP3 MSTORE POP POP JUMP JUMPDEST PUSH0 PUSH1 0x20 DUP3 ADD SWAP1 POP PUSH2 0xAE6 PUSH0 DUP4 ADD DUP5 PUSH2 0xAC4 JUMP JUMPDEST SWAP3 SWAP2 POP POP JUMP JUMPDEST PUSH0 PUSH1 0x40 MLOAD SWAP1 POP SWAP1 JUMP JUMPDEST PUSH0 DUP1 REVERT JUMPDEST PUSH0 DUP1 REVERT JUMPDEST PUSH2 0xB06 DUP2 PUSH2 0xABB JUMP JUMPDEST DUP2 EQ PUSH2 0xB10 JUMPI PUSH0 DUP1 REVERT JUMPDEST POP JUMP JUMPDEST PUSH0 DUP2 CALLDATALOAD SWAP1 POP PUSH2 0xB21 DUP2 PUSH2 0xAFD JUMP JUMPDEST SWAP3 SWAP2 POP POP JUMP JUMPDEST PUSH0 PUSH1 0x20 DUP3 DUP5 SUB SLT ISZERO PUSH2 0xB3C JUMPI PUSH2 0xB3B PUSH2 0xAF5 JUMP JUMPDEST JUMPDEST PUSH0 PUSH2 0xB49 DUP5 DUP3 DUP6 ADD PUSH2 0xB13 JUMP JUMPDEST SWAP2 POP POP SWAP3 SWAP2 POP POP JUMP JUMPDEST PUSH0 DUP2 MLOAD SWAP1 POP SWAP2 SWAP1 POP JUMP JUMPDEST PUSH0 DUP3 DUP3 MSTORE PUSH1 0x20 DUP3 ADD SWAP1 POP SWAP3 SWAP2 POP POP JUMP JUMPDEST DUP3 DUP2 DUP4 MCOPY PUSH0 DUP4 DUP4 ADD MSTORE POP POP POP JUMP JUMPDEST PUSH0 PUSH1 0x1F NOT PUSH1 0x1F DUP4 ADD AND SWAP1 POP SWAP2 SWAP1 POP JUMP JUMPDEST PUSH0 PUSH2 0xB94 DUP3 PUSH2 0xB52 JUMP JUMPDEST PUSH2 0xB9E DUP2 DUP6 PUSH2 0xB5C JUMP JUMPDEST SWAP4 POP PUSH2 0xBAE DUP2 DUP6 PUSH1 0x20 DUP7 ADD PUSH2 0xB6C JUMP JUMPDEST PUSH2 0xBB7 DUP2 PUSH2 0xB7A JUMP JUMPDEST DUP5 ADD SWAP2 POP POP SWAP3 SWAP2 POP POP JUMP JUMPDEST PUSH0 PUSH20 0xFFFFFFFFFFFFFFFFFFFFFFFFFFFFFFFFFFFFFFFF DUP3 AND SWAP1 POP SWAP2 SWAP1 POP JUMP JUMPDEST PUSH0 PUSH2 0xBEB DUP3 PUSH2 0xBC2 JUMP JUMPDEST SWAP1 POP SWAP2 SWAP1 POP JUMP JUMPDEST PUSH2 0xBFB DUP2 PUSH2 0xBE1 JUMP JUMPDEST DUP3 MSTORE POP POP JUMP JUMPDEST PUSH0 DUP2 ISZERO ISZERO SWAP1 POP SWAP2 SWAP1 POP JUMP JUMPDEST PUSH2 0xC15 DUP2 PUSH2 0xC01 JUMP JUMPDEST DUP3 MSTORE POP POP JUMP JUMPDEST PUSH0 PUSH1 0xA0 DUP3 ADD SWAP1 POP PUSH2 0xC2E PUSH0 DUP4 ADD DUP9 PUSH2 0xAC4 JUMP JUMPDEST DUP2 DUP2 SUB PUSH1 0x20 DUP4 ADD MSTORE PUSH2 0xC40 DUP2 DUP8 PUSH2 0xB8A JUMP JUMPDEST SWAP1 POP PUSH2 0xC4F PUSH1 0x40 DUP4 ADD DUP7 PUSH2 0xBF2 JUMP JUMPDEST PUSH2 0xC5C PUSH1 0x60 DUP4 ADD DUP6 PUSH2 0xAC4 JUMP JUMPDEST PUSH2 0xC69 PUSH1 0x80 DUP4 ADD DUP5 PUSH2 0xC0C JUMP JUMPDEST SWAP7 SWAP6 POP POP POP POP POP POP JUMP JUMPDEST PUSH0 DUP1 REVERT JUMPDEST PUSH0 DUP1 REVERT JUMPDEST PUSH32 0x4E487B7100000000000000000000000000000000000000000000000000000000 PUSH0 MSTORE PUSH1 0x41 PUSH1 0x4 MSTORE PUSH1 0x24 PUSH0 REVERT JUMPDEST PUSH2 0xCB1 DUP3 PUSH2 0xB7A JUMP JUMPDEST DUP2 ADD DUP2 DUP2 LT PUSH8 0xFFFFFFFFFFFFFFFF DUP3 GT OR ISZERO PUSH2 0xCD0 JUMPI PUSH2 0xCCF PUSH2 0xC7B JUMP JUMPDEST JUMPDEST DUP1 PUSH1 0x40 MSTORE POP POP POP JUMP JUMPDEST PUSH0 PUSH2 0xCE2 PUSH2 0xAEC JUMP JUMPDEST SWAP1 POP PUSH2 0xCEE DUP3 DUP3 PUSH2 0xCA8 JUMP JUMPDEST SWAP2 SWAP1 POP JUMP JUMPDEST PUSH0 PUSH8 0xFFFFFFFFFFFFFFFF DUP3 GT ISZERO PUSH2 0xD0D JUMPI PUSH2 0xD0C PUSH2 0xC7B JUMP JUMPDEST JUMPDEST PUSH2 0xD16 DUP3 PUSH2 0xB7A JUMP JUMPDEST SWAP1 POP PUSH1 0x20 DUP2 ADD SWAP1 POP SWAP2 SWAP1 POP JUMP JUMPDEST DUP3 DUP2 DUP4 CALLDATACOPY PUSH0 DUP4 DUP4 ADD MSTORE POP POP POP JUMP JUMPDEST PUSH0 PUSH2 0xD43 PUSH2 0xD3E DUP5 PUSH2 0xCF3 JUMP JUMPDEST PUSH2 0xCD9 JUMP JUMPDEST SWAP1 POP DUP3 DUP2 MSTORE PUSH1 0x20 DUP2 ADD DUP5 DUP5 DUP5 ADD GT ISZERO PUSH2 0xD5F JUMPI PUSH2 0xD5E PUSH2 0xC77 JUMP JUMPDEST JUMPDEST PUSH2 0xD6A DUP5 DUP3 DUP6 PUSH2 0xD23 JUMP JUMPDEST POP SWAP4 SWAP3 POP POP POP JUMP JUMPDEST PUSH0 DUP3 PUSH1 0x1F DUP4 ADD SLT PUSH2 0xD86 JUMPI PUSH2 0xD85 PUSH2 0xC73 JUMP JUMPDEST JUMPDEST DUP2 CALLDATALOAD PUSH2 0xD96 DUP5 DUP3 PUSH1 0x20 DUP7 ADD PUSH2 0xD31 JUMP JUMPDEST SWAP2 POP POP SWAP3 SWAP2 POP POP JUMP JUMPDEST PUSH0 DUP1 PUSH1 0x40 DUP4 DUP6 SUB SLT ISZERO PUSH2 0xDB5 JUMPI PUSH2 0xDB4 PUSH2 0xAF5 JUMP JUMPDEST JUMPDEST PUSH0 DUP4 ADD CALLDATALOAD PUSH8 0xFFFFFFFFFFFFFFFF DUP2 GT ISZERO PUSH2 0xDD2 JUMPI PUSH2 0xDD1 PUSH2 0xAF9 JUMP JUMPDEST JUMPDEST PUSH2 0xDDE DUP6 DUP3 DUP7 ADD PUSH2 0xD72 JUMP JUMPDEST SWAP3 POP POP PUSH1 0x20 PUSH2 0xDEF DUP6 DUP3 DUP7 ADD PUSH2 0xB13 JUMP JUMPDEST SWAP2 POP POP SWAP3 POP SWAP3 SWAP1 POP JUMP JUMPDEST PUSH0 PUSH1 0x20 DUP3 ADD SWAP1 POP PUSH2 0xE0C PUSH0 DUP4 ADD DUP5 PUSH2 0xBF2 JUMP JUMPDEST SWAP3 SWAP2 POP POP JUMP JUMPDEST PUSH2 0xE1B DUP2 PUSH2 0xABB JUMP JUMPDEST DUP3 MSTORE POP POP JUMP JUMPDEST PUSH0 DUP3 DUP3 MSTORE PUSH1 0x20 DUP3 ADD SWAP1 POP SWAP3 SWAP2 POP POP JUMP JUMPDEST PUSH0 PUSH2 0xE3B DUP3 PUSH2 0xB52 JUMP JUMPDEST PUSH2 0xE45 DUP2 DUP6 PUSH2 0xE21 JUMP JUMPDEST SWAP4 POP PUSH2 0xE55 DUP2 DUP6 PUSH1 0x20 DUP7 ADD PUSH2 0xB6C JUMP JUMPDEST PUSH2 0xE5E DUP2 PUSH2 0xB7A JUMP JUMPDEST DUP5 ADD SWAP2 POP POP SWAP3 SWAP2 POP POP JUMP JUMPDEST PUSH2 0xE72 DUP2 PUSH2 0xBE1 JUMP JUMPDEST DUP3 MSTORE POP POP JUMP JUMPDEST PUSH2 0xE81 DUP2 PUSH2 0xC01 JUMP JUMPDEST DUP3 MSTORE POP POP JUMP JUMPDEST PUSH0 PUSH1 0xA0 DUP4 ADD PUSH0 DUP4 ADD MLOAD PUSH2 0xE9C PUSH0 DUP7 ADD DUP3 PUSH2 0xE12 JUMP JUMPDEST POP PUSH1 0x20 DUP4 ADD MLOAD DUP5 DUP3 SUB PUSH1 0x20 DUP7 ADD MSTORE PUSH2 0xEB4 DUP3 DUP3 PUSH2 0xE31 JUMP JUMPDEST SWAP2 POP POP PUSH1 0x40 DUP4 ADD MLOAD PUSH2 0xEC9 PUSH1 0x40 DUP7 ADD DUP3 PUSH2 0xE69 JUMP JUMPDEST POP PUSH1 0x60 DUP4 ADD MLOAD PUSH2 0xEDC PUSH1 0x60 DUP7 ADD DUP3 PUSH2 0xE12 JUMP JUMPDEST POP PUSH1 0x80 DUP4 ADD MLOAD PUSH2 0xEEF PUSH1 0x80 DUP7 ADD DUP3 PUSH2 0xE78 JUMP JUMPDEST POP DUP1 SWAP2 POP POP SWAP3 SWAP2 POP POP JUMP JUMPDEST PUSH0 PUSH1 0x20 DUP3 ADD SWAP1 POP DUP2 DUP2 SUB PUSH0 DUP4 ADD MSTORE PUSH2 0xF12 DUP2 DUP5 PUSH2 0xE87 JUMP JUMPDEST SWAP1 POP SWAP3 SWAP2 POP POP JUMP JUMPDEST PUSH2 0xF23 DUP2 PUSH2 0xBE1 JUMP JUMPDEST DUP2 EQ PUSH2 0xF2D JUMPI PUSH0 DUP1 REVERT JUMPDEST POP JUMP JUMPDEST PUSH0 DUP2 CALLDATALOAD SWAP1 POP PUSH2 0xF3E DUP2 PUSH2 0xF1A JUMP JUMPDEST SWAP3 SWAP2 POP POP JUMP JUMPDEST PUSH0 DUP1 PUSH1 0x40 DUP4 DUP6 SUB SLT ISZERO PUSH2 0xF5A JUMPI PUSH2 0xF59 PUSH2 0xAF5 JUMP JUMPDEST JUMPDEST PUSH0 PUSH2 0xF67 DUP6 DUP3 DUP7 ADD PUSH2 0xB13 JUMP JUMPDEST SWAP3 POP POP PUSH1 0x20 PUSH2 0xF78 DUP6 DUP3 DUP7 ADD PUSH2 0xF30 JUMP JUMPDEST SWAP2 POP POP SWAP3 POP SWAP3 SWAP1 POP JUMP JUMPDEST PUSH0 PUSH1 0x20 DUP3 DUP5 SUB SLT ISZERO PUSH2 0xF97 JUMPI PUSH2 0xF96 PUSH2 0xAF5 JUMP JUMPDEST JUMPDEST PUSH0 PUSH2 0xFA4 DUP5 DUP3 DUP6 ADD PUSH2 0xF30 JUMP JUMPDEST SWAP2 POP POP SWAP3 SWAP2 POP POP JUMP JUMPDEST PUSH32 0x596F75206D75737420626520746865206F776E657220746F2076657269667920 PUSH0 DUP3 ADD MSTORE PUSH32 0x7468652070726F64756374000000000000000000000000000000000000000000 PUSH1 0x20 DUP3 ADD MSTORE POP JUMP JUMPDEST PUSH0 PUSH2 0x1007 PUSH1 0x2B DUP4 PUSH2 0xB5C JUMP JUMPDEST SWAP2 POP PUSH2 0x1012 DUP3 PUSH2 0xFAD JUMP JUMPDEST PUSH1 0x40 DUP3 ADD SWAP1 POP SWAP2 SWAP1 POP JUMP JUMPDEST PUSH0 PUSH1 0x20 DUP3 ADD SWAP1 POP DUP2 DUP2 SUB PUSH0 DUP4 ADD MSTORE PUSH2 0x1034 DUP2 PUSH2 0xFFB JUMP JUMPDEST SWAP1 POP SWAP2 SWAP1 POP JUMP JUMPDEST PUSH32 0x4E487B7100000000000000000000000000000000000000000000000000000000 PUSH0 MSTORE PUSH1 0x22 PUSH1 0x4 MSTORE PUSH1 0x24 PUSH0 REVERT JUMPDEST PUSH0 PUSH1 0x2 DUP3 DIV SWAP1 POP PUSH1 0x1 DUP3 AND DUP1 PUSH2 0x107F JUMPI PUSH1 0x7F DUP3 AND SWAP2 POP JUMPDEST PUSH1 0x20 DUP3 LT DUP2 SUB PUSH2 0x1092 JUMPI PUSH2 0x1091 PUSH2 0x103B JUMP JUMPDEST JUMPDEST POP SWAP2 SWAP1 POP JUMP JUMPDEST PUSH0 DUP2 SWAP1 POP DUP2 PUSH0 MSTORE PUSH1 0x20 PUSH0 KECCAK256 SWAP1 POP SWAP2 SWAP1 POP JUMP JUMPDEST PUSH0 PUSH1 0x20 PUSH1 0x1F DUP4 ADD DIV SWAP1 POP SWAP2 SWAP1 POP JUMP JUMPDEST PUSH0 DUP3 DUP3 SHL SWAP1 POP SWAP3 SWAP2 POP POP JUMP JUMPDEST PUSH0 PUSH1 0x8 DUP4 MUL PUSH2 0x10F4 PUSH32 0xFFFFFFFFFFFFFFFFFFFFFFFFFFFFFFFFFFFFFFFFFFFFFFFFFFFFFFFFFFFFFFFF DUP3 PUSH2 0x10B9 JUMP JUMPDEST PUSH2 0x10FE DUP7 DUP4 PUSH2 0x10B9 JUMP JUMPDEST SWAP6 POP DUP1 NOT DUP5 AND SWAP4 POP DUP1 DUP7 AND DUP5 OR SWAP3 POP POP POP SWAP4 SWAP3 POP POP POP JUMP JUMPDEST PUSH0 DUP2 SWAP1 POP SWAP2 SWAP1 POP JUMP JUMPDEST PUSH0 PUSH2 0x1139 PUSH2 0x1134 PUSH2 0x112F DUP5 PUSH2 0xABB JUMP JUMPDEST PUSH2 0x1116 JUMP JUMPDEST PUSH2 0xABB JUMP JUMPDEST SWAP1 POP SWAP2 SWAP1 POP JUMP JUMPDEST PUSH0 DUP2 SWAP1 POP SWAP2 SWAP1 POP JUMP JUMPDEST PUSH2 0x1152 DUP4 PUSH2 0x111F JUMP JUMPDEST PUSH2 0x1166 PUSH2 0x115E DUP3 PUSH2 0x1140 JUMP JUMPDEST DUP5 DUP5 SLOAD PUSH2 0x10C5 JUMP JUMPDEST DUP3 SSTORE POP POP POP POP JUMP JUMPDEST PUSH0 SWAP1 JUMP JUMPDEST PUSH2 0x117A PUSH2 0x116E JUMP JUMPDEST PUSH2 0x1185 DUP2 DUP5 DUP5 PUSH2 0x1149 JUMP JUMPDEST POP POP POP JUMP JUMPDEST JUMPDEST DUP2 DUP2 LT ISZERO PUSH2 0x11A8 JUMPI PUSH2 0x119D PUSH0 DUP3 PUSH2 0x1172 JUMP JUMPDEST PUSH1 0x1 DUP2 ADD SWAP1 POP PUSH2 0x118B JUMP JUMPDEST POP POP JUMP JUMPDEST PUSH1 0x1F DUP3 GT ISZERO PUSH2 0x11ED JUMPI PUSH2 0x11BE DUP2 PUSH2 0x1098 JUMP JUMPDEST PUSH2 0x11C7 DUP5 PUSH2 0x10AA JUMP JUMPDEST DUP2 ADD PUSH1 0x20 DUP6 LT ISZERO PUSH2 0x11D6 JUMPI DUP2 SWAP1 POP JUMPDEST PUSH2 0x11EA PUSH2 0x11E2 DUP6 PUSH2 0x10AA JUMP JUMPDEST DUP4 ADD DUP3 PUSH2 0x118A JUMP JUMPDEST POP POP JUMPDEST POP POP POP JUMP JUMPDEST PUSH0 DUP3 DUP3 SHR SWAP1 POP SWAP3 SWAP2 POP POP JUMP JUMPDEST PUSH0 PUSH2 0x120D PUSH0 NOT DUP5 PUSH1 0x8 MUL PUSH2 0x11F2 JUMP JUMPDEST NOT DUP1 DUP4 AND SWAP2 POP POP SWAP3 SWAP2 POP POP JUMP JUMPDEST PUSH0 PUSH2 0x1225 DUP4 DUP4 PUSH2 0x11FE JUMP JUMPDEST SWAP2 POP DUP3 PUSH1 0x2 MUL DUP3 OR SWAP1 POP SWAP3 SWAP2 POP POP JUMP JUMPDEST PUSH2 0x123E DUP3 PUSH2 0xB52 JUMP JUMPDEST PUSH8 0xFFFFFFFFFFFFFFFF DUP2 GT ISZERO PUSH2 0x1257 JUMPI PUSH2 0x1256 PUSH2 0xC7B JUMP JUMPDEST JUMPDEST PUSH2 0x1261 DUP3 SLOAD PUSH2 0x1068 JUMP JUMPDEST PUSH2 0x126C DUP3 DUP3 DUP6 PUSH2 0x11AC JUMP JUMPDEST PUSH0 PUSH1 0x20 SWAP1 POP PUSH1 0x1F DUP4 GT PUSH1 0x1 DUP2 EQ PUSH2 0x129D JUMPI PUSH0 DUP5 ISZERO PUSH2 0x128B JUMPI DUP3 DUP8 ADD MLOAD SWAP1 POP JUMPDEST PUSH2 0x1295 DUP6 DUP3 PUSH2 0x121A JUMP JUMPDEST DUP7 SSTORE POP PUSH2 0x12FC JUMP JUMPDEST PUSH1 0x1F NOT DUP5 AND PUSH2 0x12AB DUP7 PUSH2 0x1098 JUMP JUMPDEST PUSH0 JUMPDEST DUP3 DUP2 LT ISZERO PUSH2 0x12D2 JUMPI DUP5 DUP10 ADD MLOAD DUP3 SSTORE PUSH1 0x1 DUP3 ADD SWAP2 POP PUSH1 0x20 DUP6 ADD SWAP5 POP PUSH1 0x20 DUP2 ADD SWAP1 POP PUSH2 0x12AD JUMP JUMPDEST DUP7 DUP4 LT ISZERO PUSH2 0x12EF JUMPI DUP5 DUP10 ADD MLOAD PUSH2 0x12EB PUSH1 0x1F DUP10 AND DUP3 PUSH2 0x11FE JUMP JUMPDEST DUP4 SSTORE POP JUMPDEST PUSH1 0x1 PUSH1 0x2 DUP9 MUL ADD DUP9 SSTORE POP POP POP JUMPDEST POP POP POP POP POP POP JUMP JUMPDEST PUSH32 0x4E487B7100000000000000000000000000000000000000000000000000000000 PUSH0 MSTORE PUSH1 0x11 PUSH1 0x4 MSTORE PUSH1 0x24 PUSH0 REVERT JUMPDEST PUSH0 PUSH2 0x133B DUP3 PUSH2 0xABB JUMP JUMPDEST SWAP2 POP PUSH32 0xFFFFFFFFFFFFFFFFFFFFFFFFFFFFFFFFFFFFFFFFFFFFFFFFFFFFFFFFFFFFFFFF DUP3 SUB PUSH2 0x136D JUMPI PUSH2 0x136C PUSH2 0x1304 JUMP JUMPDEST JUMPDEST PUSH1 0x1 DUP3 ADD SWAP1 POP SWAP2 SWAP1 POP JUMP JUMPDEST PUSH0 PUSH1 0x60 DUP3 ADD SWAP1 POP PUSH2 0x138B PUSH0 DUP4 ADD DUP7 PUSH2 0xAC4 JUMP JUMPDEST DUP2 DUP2 SUB PUSH1 0x20 DUP4 ADD MSTORE PUSH2 0x139D DUP2 DUP6 PUSH2 0xB8A JUMP JUMPDEST SWAP1 POP PUSH2 0x13AC PUSH1 0x40 DUP4 ADD DUP5 PUSH2 0xAC4 JUMP JUMPDEST SWAP5 SWAP4 POP POP POP POP JUMP JUMPDEST PUSH32 0x596F7520617265206E6F7420746865206F776E6572206F662074686973207072 PUSH0 DUP3 ADD MSTORE PUSH32 0x6F64756374000000000000000000000000000000000000000000000000000000 PUSH1 0x20 DUP3 ADD MSTORE POP JUMP JUMPDEST PUSH0 PUSH2 0x140E PUSH1 0x25 DUP4 PUSH2 0xB5C JUMP JUMPDEST SWAP2 POP PUSH2 0x1419 DUP3 PUSH2 0x13B4 JUMP JUMPDEST PUSH1 0x40 DUP3 ADD SWAP1 POP SWAP2 SWAP1 POP JUMP JUMPDEST PUSH0 PUSH1 0x20 DUP3 ADD SWAP1 POP DUP2 DUP2 SUB PUSH0 DUP4 ADD MSTORE PUSH2 0x143B DUP2 PUSH2 0x1402 JUMP JUMPDEST SWAP1 POP SWAP2 SWAP1 POP JUMP JUMPDEST PUSH32 0x496E76616C696420616464726573730000000000000000000000000000000000 PUSH0 DUP3 ADD MSTORE POP JUMP JUMPDEST PUSH0 PUSH2 0x1476 PUSH1 0xF DUP4 PUSH2 0xB5C JUMP JUMPDEST SWAP2 POP PUSH2 0x1481 DUP3 PUSH2 0x1442 JUMP JUMPDEST PUSH1 0x20 DUP3 ADD SWAP1 POP SWAP2 SWAP1 POP JUMP JUMPDEST PUSH0 PUSH1 0x20 DUP3 ADD SWAP1 POP DUP2 DUP2 SUB PUSH0 DUP4 ADD MSTORE PUSH2 0x14A3 DUP2 PUSH2 0x146A JUMP JUMPDEST SWAP1 POP SWAP2 SWAP1 POP JUMP JUMPDEST PUSH32 0x5265656E7472616E637947756172643A207265656E7472616E742063616C6C00 PUSH0 DUP3 ADD MSTORE POP JUMP JUMPDEST PUSH0 PUSH2 0x14DE PUSH1 0x1F DUP4 PUSH2 0xB5C JUMP JUMPDEST SWAP2 POP PUSH2 0x14E9 DUP3 PUSH2 0x14AA JUMP JUMPDEST PUSH1 0x20 DUP3 ADD SWAP1 POP SWAP2 SWAP1 POP JUMP JUMPDEST PUSH0 PUSH1 0x20 DUP3 ADD SWAP1 POP DUP2 DUP2 SUB PUSH0 DUP4 ADD MSTORE PUSH2 0x150B DUP2 PUSH2 0x14D2 JUMP JUMPDEST SWAP1 POP SWAP2 SWAP1 POP JUMP INVALID LOG2 PUSH5 0x6970667358 0x22 SLT KECCAK256 MUL 0xA7 BASEFEE PUSH28 0xAFAF569423E9CBCBBF2CF321127C5B8762D643FE1F7E0E8CDFC75B00 PUSH5 0x736F6C6343 STOP ADDMOD BYTE STOP CALLER "
				},
				"gasEstimates": {
					"creation": {
						"codeDepositCost": "1089600",
						"executionCost": "infinite",
						"totalCost": "infinite"
					},
					"external": {
						"getProduct(uint256)": "infinite",
						"nextProductId()": "2426",
						"owner()": "2537",
						"products(uint256)": "infinite",
						"registerProduct(string,uint256)": "infinite",
						"renounceOwnership()": "infinite",
						"transferOwnership(address)": "infinite",
						"transferProduct(uint256,address)": "infinite",
						"verifyProduct(uint256)": "27023"
					}
				},
				"methodIdentifiers": {
					"getProduct(uint256)": "b9db15b4",
					"nextProductId()": "4de91a63",
					"owner()": "8da5cb5b",
					"products(uint256)": "7acc0b20",
					"registerProduct(string,uint256)": "8c96091b",
					"renounceOwnership()": "715018a6",
					"transferOwnership(address)": "f2fde38b",
					"transferProduct(uint256,address)": "e43059e5",
					"verifyProduct(uint256)": "524e8462"
				}
			},
			"storageLayout": {
				"storage": [
					{
						"astId": 8,
						"contract": "contracts/ProductRegistry.sol:SimpleSupplyChain",
						"label": "_owner",
						"offset": 0,
						"slot": "0",
						"type": "t_address"
					},
					{
						"astId": 158,
						"contract": "contracts/ProductRegistry.sol:SimpleSupplyChain",
						"label": "_status",
						"offset": 0,
						"slot": "1",
						"type": "t_uint256"
					},
					{
						"astId": 266,
						"contract": "contracts/ProductRegistry.sol:SimpleSupplyChain",
						"label": "products",
						"offset": 0,
						"slot": "2",
						"type": "t_mapping(t_uint256,t_struct(Product)261_storage)"
					},
					{
						"astId": 268,
						"contract": "contracts/ProductRegistry.sol:SimpleSupplyChain",
						"label": "nextProductId",
						"offset": 0,
						"slot": "3",
						"type": "t_uint256"
					}
				],
				"types": {
					"t_address": {
						"encoding": "inplace",
						"label": "address",
						"numberOfBytes": "20"
					},
					"t_bool": {
						"encoding": "inplace",
						"label": "bool",
						"numberOfBytes": "1"
					},
					"t_mapping(t_uint256,t_struct(Product)261_storage)": {
						"encoding": "mapping",
						"key": "t_uint256",
						"label": "mapping(uint256 => struct SimpleSupplyChain.Product)",
						"numberOfBytes": "32",
						"value": "t_struct(Product)261_storage"
					},
					"t_string_storage": {
						"encoding": "bytes",
						"label": "string",
						"numberOfBytes": "32"
					},
					"t_struct(Product)261_storage": {
						"encoding": "inplace",
						"label": "struct SimpleSupplyChain.Product",
						"members": [
							{
								"astId": 252,
								"contract": "contracts/ProductRegistry.sol:SimpleSupplyChain",
								"label": "id",
								"offset": 0,
								"slot": "0",
								"type": "t_uint256"
							},
							{
								"astId": 254,
								"contract": "contracts/ProductRegistry.sol:SimpleSupplyChain",
								"label": "name",
								"offset": 0,
								"slot": "1",
								"type": "t_string_storage"
							},
							{
								"astId": 256,
								"contract": "contracts/ProductRegistry.sol:SimpleSupplyChain",
								"label": "currentOwner",
								"offset": 0,
								"slot": "2",
								"type": "t_address"
							},
							{
								"astId": 258,
								"contract": "contracts/ProductRegistry.sol:SimpleSupplyChain",
								"label": "price",
								"offset": 0,
								"slot": "3",
								"type": "t_uint256"
							},
							{
								"astId": 260,
								"contract": "contracts/ProductRegistry.sol:SimpleSupplyChain",
								"label": "verified",
								"offset": 0,
								"slot": "4",
								"type": "t_bool"
							}
						],
						"numberOfBytes": "160"
					},
					"t_uint256": {
						"encoding": "inplace",
						"label": "uint256",
						"numberOfBytes": "32"
					}
				}
			},
			"userdoc": {
				"kind": "user",
				"methods": {},
				"version": 1
			}
		}
	}
}